{
  "_format": "hh-sol-artifact-1",
  "contractName": "V4AddLiquidityHelper",
  "sourceName": "src/deploy/helpers/V4AddLiquidityHelper.sol",
  "abi": [
    {
      "inputs": [
        {
          "internalType": "contract IPoolManagerMinimal",
          "name": "_m",
          "type": "address"
        }
      ],
      "stateMutability": "nonpayable",
      "type": "constructor"
    },
    {
      "inputs": [],
      "name": "manager",
      "outputs": [
        {
          "internalType": "contract IPoolManagerMinimal",
          "name": "",
          "type": "address"
        }
      ],
      "stateMutability": "view",
      "type": "function"
    },
    {
      "inputs": [
        {
          "components": [
            {
              "internalType": "address",
              "name": "currency0",
              "type": "address"
            },
            {
              "internalType": "address",
              "name": "currency1",
              "type": "address"
            },
            {
              "internalType": "uint24",
              "name": "fee",
              "type": "uint24"
            },
            {
              "internalType": "int24",
              "name": "tickSpacing",
              "type": "int24"
            },
            {
              "internalType": "address",
              "name": "hooks",
              "type": "address"
            }
          ],
          "internalType": "struct IPoolManagerMinimal.PoolKey",
          "name": "key",
          "type": "tuple"
        },
        {
          "components": [
            {
              "internalType": "int24",
              "name": "tickLower",
              "type": "int24"
            },
            {
              "internalType": "int24",
              "name": "tickUpper",
              "type": "int24"
            },
            {
              "internalType": "int256",
              "name": "liquidityDelta",
              "type": "int256"
            },
            {
              "internalType": "bytes32",
              "name": "salt",
              "type": "bytes32"
            }
          ],
          "internalType": "struct IPoolManagerMinimal.ModifyLiquidityParams",
          "name": "params",
          "type": "tuple"
        },
        {
          "internalType": "bytes",
          "name": "hookData",
          "type": "bytes"
        },
        {
          "internalType": "bool",
          "name": "useBurn",
          "type": "bool"
        },
        {
          "internalType": "bool",
          "name": "useClaims",
          "type": "bool"
        }
      ],
      "name": "run",
      "outputs": [
        {
          "internalType": "int256",
          "name": "",
          "type": "int256"
        },
        {
          "internalType": "int256",
          "name": "",
          "type": "int256"
        }
      ],
      "stateMutability": "payable",
      "type": "function"
    },
    {
      "inputs": [
        {
          "internalType": "bytes",
          "name": "rawData",
          "type": "bytes"
        }
      ],
      "name": "unlockCallback",
      "outputs": [
        {
          "internalType": "bytes",
          "name": "",
          "type": "bytes"
        }
      ],
      "stateMutability": "nonpayable",
      "type": "function"
    },
    {
      "inputs": [],
      "name": "withdrawNative",
      "outputs": [],
      "stateMutability": "nonpayable",
      "type": "function"
    },
    {
      "stateMutability": "payable",
      "type": "receive"
    }
  ],
  "bytecode": "0x60a034609757601f61136638819003918201601f19168301916001600160401b03831184841017609b57808492602094604052833981010312609757516001600160a01b03811681036097576080526040516112b690816100b0823960805181818161036d015281816104d101528181610a8201528181610d1e01528181610e2f01528181610f340152818161115401526111f80152f35b5f80fd5b634e487b7160e01b5f52604160045260245ffdfe608080604052600436101561001c575b50361561001a575f80fd5b005b5f3560e01c908163481c6a7514610a3a5750806350431ce4146109ec57806391dd73461461044d5763995431f614610054575f61000f565b7ffffffffffffffffffffffffffffffffffffffffffffffffffffffffffffffffc3601610180811261043e5760a01361043e5760405161009381610b32565b60043573ffffffffffffffffffffffffffffffffffffffff8116810361043e57815260243573ffffffffffffffffffffffffffffffffffffffff8116810361043e57602082015260443562ffffff8116810361043e5760408201526064358060020b810361043e57606082015260843573ffffffffffffffffffffffffffffffffffffffff8116810361043e57608082015260807fffffffffffffffffffffffffffffffffffffffffffffffffffffffffffffff5c36011261043e576040519061015c82610b4e565b60a4358060020b810361043e57825260c4358060020b810361043e57602083015260e43560408301526101043560608301526101243567ffffffffffffffff811161043e576101af903690600401610c14565b91610144359283151580940361043e57610164359283151580940361043e57610353945f946102d9610318946102c473ffffffffffffffffffffffffffffffffffffffff976102926040519761020489610ae9565b3389526020890190815260408901928352606089019485526080890197885260a089019687526040519a8b996020808c0152511660408a015251606089019073ffffffffffffffffffffffffffffffffffffffff6080809282815116855282602082015116602086015262ffffff6040820151166040860152606081015160020b6060860152015116910152565b518051600290810b6101008901526020820151900b610120880152604081015161014088015260600151610160870152565b516101a06101808601526101e0850190610aa6565b915115156101a08401525115156101c0830152037fffffffffffffffffffffffffffffffffffffffffffffffffffffffffffffffe08101835282610b6a565b604051809381927f48c89491000000000000000000000000000000000000000000000000000000008352602060048401526024830190610aa6565b03818373ffffffffffffffffffffffffffffffffffffffff7f0000000000000000000000000000000000000000000000000000000000000000165af1908115610442575f916103be575b60406103b28360208082518301019101610c67565b82519182526020820152f35b90503d805f833e6103cf8183610b6a565b81019060208183031261043e5780519067ffffffffffffffff821161043e570181601f8201121561043e5780519161040683610bda565b906104146040519283610b6a565b8382526020848401011161043e575f602084604095826103b296018386015e83010152915061039d565b5f80fd5b6040513d5f823e3d90fd5b3461043e5760207ffffffffffffffffffffffffffffffffffffffffffffffffffffffffffffffffc36011261043e5760043567ffffffffffffffff811161043e573660238201121561043e57806004013567ffffffffffffffff811161043e5781016024810136811161043e5773ffffffffffffffffffffffffffffffffffffffff7f0000000000000000000000000000000000000000000000000000000000000000169283330361098e5760208184031261043e5760248101359067ffffffffffffffff821161043e5701916101a08382031261043e5760405161053181610ae9565b61053d60248501610bab565b815260a07fffffffffffffffffffffffffffffffffffffffffffffffffffffffffffffffe0858403011261043e576040519161057883610b32565b61058460448601610bab565b835261059260648601610bab565b6020840152608485013562ffffff8116810361043e577fffffffffffffffffffffffffffffffffffffffffffffffffffffffffffffff1c8660809360249360408801526105e160a48301610bcc565b60608801526105f260c48301610bab565b85880152602086019687520301011261043e576040519261061284610b4e565b61061e60e48601610bcc565b845261062d6101048601610bcc565b602085015261012485013560408501526101448501356060850152604082019384526101648501359567ffffffffffffffff871161043e57610679604092602461076399890101610c14565b908160608501526107355f6106a56101a46106976101848c01610c5a565b9a608089019b8c5201610c5a565b9760a08701988952610777885191519587519c8d97889687957f5a6bcfda000000000000000000000000000000000000000000000000000000008752600487019073ffffffffffffffffffffffffffffffffffffffff6080809282815116855282602082015116602086015262ffffff6040820151166040860152606081015160020b6060860152015116910152565b8051600290810b60a48701526020820151900b60c4860152604081015160e486015260600151610104850152565b610140610124840152610144830190610aa6565b03925af1908115610442576107f4955f9261095c575b508160801d9382600f0b9480600f0b965f88126108fd575b5f8712610899575b505f8713610841575b505f85136107f8575b505050506040519160208301526040820152604081526107e0606082610b6a565b604051918291602083526020830190610aa6565b0390f35b6fffffffffffffffffffffffffffffffff73ffffffffffffffffffffffffffffffffffffffff806020610838975101511693511691511515931691611136565b838080806107bf565b6108939073ffffffffffffffffffffffffffffffffffffffff8651511673ffffffffffffffffffffffffffffffffffffffff8551166fffffffffffffffffffffffffffffffff85511515931691611136565b876107b6565b6108f79073ffffffffffffffffffffffffffffffffffffffff602088510151169073ffffffffffffffffffffffffffffffffffffffff8651166fffffffffffffffffffffffffffffffff6108ec8b610c7d565b169151151592610d00565b886107ad565b61095773ffffffffffffffffffffffffffffffffffffffff8751511673ffffffffffffffffffffffffffffffffffffffff8651166fffffffffffffffffffffffffffffffff61094b86610c7d565b16908451151592610d00565b6107a5565b61097f91925060403d604011610987575b6109778183610b6a565b810190610c67565b50908661078d565b503d61096d565b60646040517f08c379a000000000000000000000000000000000000000000000000000000000815260206004820152600c60248201527f6f6e6c79206d616e6167657200000000000000000000000000000000000000006044820152fd5b3461043e575f7ffffffffffffffffffffffffffffffffffffffffffffffffffffffffffffffffc36011261043e575f80808047818115610a31575b3390f11561044257005b506108fc610a27565b3461043e575f7ffffffffffffffffffffffffffffffffffffffffffffffffffffffffffffffffc36011261043e5760209073ffffffffffffffffffffffffffffffffffffffff7f0000000000000000000000000000000000000000000000000000000000000000168152f35b907fffffffffffffffffffffffffffffffffffffffffffffffffffffffffffffffe0601f602080948051918291828752018686015e5f8582860101520116010190565b60c0810190811067ffffffffffffffff821117610b0557604052565b7f4e487b71000000000000000000000000000000000000000000000000000000005f52604160045260245ffd5b60a0810190811067ffffffffffffffff821117610b0557604052565b6080810190811067ffffffffffffffff821117610b0557604052565b90601f7fffffffffffffffffffffffffffffffffffffffffffffffffffffffffffffffe0910116810190811067ffffffffffffffff821117610b0557604052565b359073ffffffffffffffffffffffffffffffffffffffff8216820361043e57565b35908160020b820361043e57565b67ffffffffffffffff8111610b0557601f017fffffffffffffffffffffffffffffffffffffffffffffffffffffffffffffffe01660200190565b81601f8201121561043e57803590610c2b82610bda565b92610c396040519485610b6a565b8284526020838301011161043e57815f926020809301838601378301015290565b3590811515820361043e57565b919082604091031261043e576020825192015190565b600f0b7fffffffffffffffffffffffffffffffff800000000000000000000000000000008114610cac575f0390565b7f4e487b71000000000000000000000000000000000000000000000000000000005f52601160045260245ffd5b9081602091031261043e5751801515810361043e5790565b9081602091031261043e575190565b919215610dc35773ffffffffffffffffffffffffffffffffffffffff7f000000000000000000000000000000000000000000000000000000000000000016803b1561043e576040517ff5298aca00000000000000000000000000000000000000000000000000000000815273ffffffffffffffffffffffffffffffffffffffff92831660048201529290911660248301526044820192909252905f908290818381606481015b03925af1801561044257610db75750565b5f610dc191610b6a565b565b5f9173ffffffffffffffffffffffffffffffffffffffff1680610f1b575050814710610e97576020600492604051938480927f11da60b400000000000000000000000000000000000000000000000000000000825273ffffffffffffffffffffffffffffffffffffffff7f0000000000000000000000000000000000000000000000000000000000000000165af1908115610e8b5750610e605750565b610e819060203d602011610e84575b610e798183610b6a565b810190610cf1565b50565b503d610e6f565b604051903d90823e3d90fd5b60846040517f08c379a000000000000000000000000000000000000000000000000000000000815260206004820152602160248201527f496e73756666696369656e74206e617469766520746f6b656e2062616c616e6360448201527f65000000000000000000000000000000000000000000000000000000000000006064820152fd5b909273ffffffffffffffffffffffffffffffffffffffff7f00000000000000000000000000000000000000000000000000000000000000001691823b1561043e576040517fa58411940000000000000000000000000000000000000000000000000000000081528160048201525f8160248183885af180156104425761111e575b50929391928492849073ffffffffffffffffffffffffffffffffffffffff811630146110ab576040517f23b872dd00000000000000000000000000000000000000000000000000000000815273ffffffffffffffffffffffffffffffffffffffff9182166004820152911660248201526044810192909252909160209183916064918391905af180156110a057916020918493611073575b505b6004604051809581937f11da60b40000000000000000000000000000000000000000000000000000000083525af1908115610e8b5750610e605750565b61109290833d8511611099575b61108a8183610b6a565b810190610cd9565b505f611034565b503d611080565b6040513d85823e3d90fd5b5050604460209260405194859384927fa9059cbb00000000000000000000000000000000000000000000000000000000845288600485015260248401525af180156110a057916020918493611101575b50611036565b61111790833d85116110995761108a8183610b6a565b505f6110fb565b83959394505f61112d91610b6a565b5f939294610f9c565b9192156111e05773ffffffffffffffffffffffffffffffffffffffff7f000000000000000000000000000000000000000000000000000000000000000016803b1561043e576040517f156e29f600000000000000000000000000000000000000000000000000000000815273ffffffffffffffffffffffffffffffffffffffff92831660048201529290911660248301526044820192909252905f90829081838160648101610da6565b9173ffffffffffffffffffffffffffffffffffffffff7f000000000000000000000000000000000000000000000000000000000000000016803b1561043e576040517f0b0d9c0900000000000000000000000000000000000000000000000000000000815273ffffffffffffffffffffffffffffffffffffffff938416600482015293909216602484015260448301525f90829081838160648101610da656fea2646970667358221220a7b674bc755720dc8bea8e23332a2ea405af35330db66329723dae27bbed6cc464736f6c634300081a0033",
  "linkReferences": {},
  "deployedLinkReferences": {}
}