{
  "_format": "hh-sol-artifact-1",
  "contractName": "CurrencyLibrary",
  "sourceName": "src/deploy/types/Currency.sol",
  "abi": [
    {
      "inputs": [],
      "name": "ERC20TransferFailed",
      "type": "error"
    },
    {
      "inputs": [],
      "name": "NativeTransferFailed",
      "type": "error"
    },
    {
      "inputs": [],
      "name": "ADDRESS_ZERO",
      "outputs": [
        {
          "internalType": "Currency",
          "name": "",
          "type": "address"
        }
      ],
      "stateMutability": "view",
      "type": "function"
    }
  ],
  "bytecode": "0x60808060405234601757608d9081601c823930815050f35b5f80fdfe60808060405260043610156011575f80fd5b5f3560e01c6366e79509146023575f80fd5b5f7ffffffffffffffffffffffffffffffffffffffffffffffffffffffffffffffffc360112605357805f60209252f35b5f80fdfea2646970667358221220b9e6b508fa7185927274cbe11367e381b62b44902310e00541e8646d311a77d164736f6c634300081a0033",
  "linkReferences": {},
  "deployedLinkReferences": {}
}