{
  "_format": "hh-sol-artifact-1",
  "contractName": "ProtocolFeeLibrary",
  "sourceName": "src/deploy/libraries/ProtocolFeeLibrary.sol",
  "abi": [
    {
      "inputs": [],
      "name": "MAX_PROTOCOL_FEE",
      "outputs": [
        {
          "internalType": "uint16",
          "name": "",
          "type": "uint16"
        }
      ],
      "stateMutability": "view",
      "type": "function"
    }
  ],
  "bytecode": "0x60808060405234601757608f9081601c823930815050f35b5f80fdfe60808060405260043610156011575f80fd5b5f3560e01c63b8ca3b83146023575f80fd5b5f7ffffffffffffffffffffffffffffffffffffffffffffffffffffffffffffffffc360112605557806103e860209252f35b5f80fdfea264697066735822122050b4cb7a78aecc0cb39c77cadee29bdaa7c34a13f254ac3e0a72457dc27000b164736f6c634300081a0033",
  "linkReferences": {},
  "deployedLinkReferences": {}
}