{"src/deploy/helpers/V4AddLiquidityHelper.sol":{"V4AddLiquidityHelper":{"abi":[{"inputs":[{"internalType":"contract IPoolManagerMinimal","name":"_m","type":"address"}],"stateMutability":"nonpayable","type":"constructor"},{"inputs":[],"name":"manager","outputs":[{"internalType":"contract IPoolManagerMinimal","name":"","type":"address"}],"stateMutability":"view","type":"function"},{"inputs":[{"components":[{"internalType":"address","name":"currency0","type":"address"},{"internalType":"address","name":"currency1","type":"address"},{"internalType":"uint24","name":"fee","type":"uint24"},{"internalType":"int24","name":"tickSpacing","type":"int24"},{"internalType":"address","name":"hooks","type":"address"}],"internalType":"struct IPoolManagerMinimal.PoolKey","name":"key","type":"tuple"},{"components":[{"internalType":"int24","name":"tickLower","type":"int24"},{"internalType":"int24","name":"tickUpper","type":"int24"},{"internalType":"int256","name":"liquidityDelta","type":"int256"},{"internalType":"bytes32","name":"salt","type":"bytes32"}],"internalType":"struct IPoolManagerMinimal.ModifyLiquidityParams","name":"params","type":"tuple"},{"internalType":"bytes","name":"hookData","type":"bytes"},{"internalType":"bool","name":"useBurn","type":"bool"},{"internalType":"bool","name":"useClaims","type":"bool"}],"name":"run","outputs":[{"internalType":"int256","name":"","type":"int256"},{"internalType":"int256","name":"","type":"int256"}],"stateMutability":"payable","type":"function"},{"inputs":[{"internalType":"bytes","name":"rawData","type":"bytes"}],"name":"unlockCallback","outputs":[{"internalType":"bytes","name":"","type":"bytes"}],"stateMutability":"nonpayable","type":"function"},{"inputs":[],"name":"withdrawNative","outputs":[],"stateMutability":"nonpayable","type":"function"},{"stateMutability":"payable","type":"receive"}],"evm":{"bytecode":{"linkReferences":{},"object":"60a034609757601f61136638819003918201601f19168301916001600160401b03831184841017609b57808492602094604052833981010312609757516001600160a01b03811681036097576080526040516112b690816100b0823960805181818161036d015281816104d101528181610a8201528181610d1e01528181610e2f01528181610f340152818161115401526111f80152f35b5f80fd5b634e487b7160e01b5f52604160045260245ffdfe608080604052600436101561001c575b50361561001a575f80fd5b005b5f3560e01c908163481c6a7514610a3a5750806350431ce4146109ec57806391dd73461461044d5763995431f614610054575f61000f565b7ffffffffffffffffffffffffffffffffffffffffffffffffffffffffffffffffc3601610180811261043e5760a01361043e5760405161009381610b32565b60043573ffffffffffffffffffffffffffffffffffffffff8116810361043e57815260243573ffffffffffffffffffffffffffffffffffffffff8116810361043e57602082015260443562ffffff8116810361043e5760408201526064358060020b810361043e57606082015260843573ffffffffffffffffffffffffffffffffffffffff8116810361043e57608082015260807fffffffffffffffffffffffffffffffffffffffffffffffffffffffffffffff5c36011261043e576040519061015c82610b4e565b60a4358060020b810361043e57825260c4358060020b810361043e57602083015260e43560408301526101043560608301526101243567ffffffffffffffff811161043e576101af903690600401610c14565b91610144359283151580940361043e57610164359283151580940361043e57610353945f946102d9610318946102c473ffffffffffffffffffffffffffffffffffffffff976102926040519761020489610ae9565b3389526020890190815260408901928352606089019485526080890197885260a089019687526040519a8b996020808c0152511660408a015251606089019073ffffffffffffffffffffffffffffffffffffffff6080809282815116855282602082015116602086015262ffffff6040820151166040860152606081015160020b6060860152015116910152565b518051600290810b6101008901526020820151900b610120880152604081015161014088015260600151610160870152565b516101a06101808601526101e0850190610aa6565b915115156101a08401525115156101c0830152037fffffffffffffffffffffffffffffffffffffffffffffffffffffffffffffffe08101835282610b6a565b604051809381927f48c89491000000000000000000000000000000000000000000000000000000008352602060048401526024830190610aa6565b03818373ffffffffffffffffffffffffffffffffffffffff7f0000000000000000000000000000000000000000000000000000000000000000165af1908115610442575f916103be575b60406103b28360208082518301019101610c67565b82519182526020820152f35b90503d805f833e6103cf8183610b6a565b81019060208183031261043e5780519067ffffffffffffffff821161043e570181601f8201121561043e5780519161040683610bda565b906104146040519283610b6a565b8382526020848401011161043e575f602084604095826103b296018386015e83010152915061039d565b5f80fd5b6040513d5f823e3d90fd5b3461043e5760207ffffffffffffffffffffffffffffffffffffffffffffffffffffffffffffffffc36011261043e5760043567ffffffffffffffff811161043e573660238201121561043e57806004013567ffffffffffffffff811161043e5781016024810136811161043e5773ffffffffffffffffffffffffffffffffffffffff7f0000000000000000000000000000000000000000000000000000000000000000169283330361098e5760208184031261043e5760248101359067ffffffffffffffff821161043e5701916101a08382031261043e5760405161053181610ae9565b61053d60248501610bab565b815260a07fffffffffffffffffffffffffffffffffffffffffffffffffffffffffffffffe0858403011261043e576040519161057883610b32565b61058460448601610bab565b835261059260648601610bab565b6020840152608485013562ffffff8116810361043e577fffffffffffffffffffffffffffffffffffffffffffffffffffffffffffffff1c8660809360249360408801526105e160a48301610bcc565b60608801526105f260c48301610bab565b85880152602086019687520301011261043e576040519261061284610b4e565b61061e60e48601610bcc565b845261062d6101048601610bcc565b602085015261012485013560408501526101448501356060850152604082019384526101648501359567ffffffffffffffff871161043e57610679604092602461076399890101610c14565b908160608501526107355f6106a56101a46106976101848c01610c5a565b9a608089019b8c5201610c5a565b9760a08701988952610777885191519587519c8d97889687957f5a6bcfda000000000000000000000000000000000000000000000000000000008752600487019073ffffffffffffffffffffffffffffffffffffffff6080809282815116855282602082015116602086015262ffffff6040820151166040860152606081015160020b6060860152015116910152565b8051600290810b60a48701526020820151900b60c4860152604081015160e486015260600151610104850152565b610140610124840152610144830190610aa6565b03925af1908115610442576107f4955f9261095c575b508160801d9382600f0b9480600f0b965f88126108fd575b5f8712610899575b505f8713610841575b505f85136107f8575b505050506040519160208301526040820152604081526107e0606082610b6a565b604051918291602083526020830190610aa6565b0390f35b6fffffffffffffffffffffffffffffffff73ffffffffffffffffffffffffffffffffffffffff806020610838975101511693511691511515931691611136565b838080806107bf565b6108939073ffffffffffffffffffffffffffffffffffffffff8651511673ffffffffffffffffffffffffffffffffffffffff8551166fffffffffffffffffffffffffffffffff85511515931691611136565b876107b6565b6108f79073ffffffffffffffffffffffffffffffffffffffff602088510151169073ffffffffffffffffffffffffffffffffffffffff8651166fffffffffffffffffffffffffffffffff6108ec8b610c7d565b169151151592610d00565b886107ad565b61095773ffffffffffffffffffffffffffffffffffffffff8751511673ffffffffffffffffffffffffffffffffffffffff8651166fffffffffffffffffffffffffffffffff61094b86610c7d565b16908451151592610d00565b6107a5565b61097f91925060403d604011610987575b6109778183610b6a565b810190610c67565b50908661078d565b503d61096d565b60646040517f08c379a000000000000000000000000000000000000000000000000000000000815260206004820152600c60248201527f6f6e6c79206d616e6167657200000000000000000000000000000000000000006044820152fd5b3461043e575f7ffffffffffffffffffffffffffffffffffffffffffffffffffffffffffffffffc36011261043e575f80808047818115610a31575b3390f11561044257005b506108fc610a27565b3461043e575f7ffffffffffffffffffffffffffffffffffffffffffffffffffffffffffffffffc36011261043e5760209073ffffffffffffffffffffffffffffffffffffffff7f0000000000000000000000000000000000000000000000000000000000000000168152f35b907fffffffffffffffffffffffffffffffffffffffffffffffffffffffffffffffe0601f602080948051918291828752018686015e5f8582860101520116010190565b60c0810190811067ffffffffffffffff821117610b0557604052565b7f4e487b71000000000000000000000000000000000000000000000000000000005f52604160045260245ffd5b60a0810190811067ffffffffffffffff821117610b0557604052565b6080810190811067ffffffffffffffff821117610b0557604052565b90601f7fffffffffffffffffffffffffffffffffffffffffffffffffffffffffffffffe0910116810190811067ffffffffffffffff821117610b0557604052565b359073ffffffffffffffffffffffffffffffffffffffff8216820361043e57565b35908160020b820361043e57565b67ffffffffffffffff8111610b0557601f017fffffffffffffffffffffffffffffffffffffffffffffffffffffffffffffffe01660200190565b81601f8201121561043e57803590610c2b82610bda565b92610c396040519485610b6a565b8284526020838301011161043e57815f926020809301838601378301015290565b3590811515820361043e57565b919082604091031261043e576020825192015190565b600f0b7fffffffffffffffffffffffffffffffff800000000000000000000000000000008114610cac575f0390565b7f4e487b71000000000000000000000000000000000000000000000000000000005f52601160045260245ffd5b9081602091031261043e5751801515810361043e5790565b9081602091031261043e575190565b919215610dc35773ffffffffffffffffffffffffffffffffffffffff7f000000000000000000000000000000000000000000000000000000000000000016803b1561043e576040517ff5298aca00000000000000000000000000000000000000000000000000000000815273ffffffffffffffffffffffffffffffffffffffff92831660048201529290911660248301526044820192909252905f908290818381606481015b03925af1801561044257610db75750565b5f610dc191610b6a565b565b5f9173ffffffffffffffffffffffffffffffffffffffff1680610f1b575050814710610e97576020600492604051938480927f11da60b400000000000000000000000000000000000000000000000000000000825273ffffffffffffffffffffffffffffffffffffffff7f0000000000000000000000000000000000000000000000000000000000000000165af1908115610e8b5750610e605750565b610e819060203d602011610e84575b610e798183610b6a565b810190610cf1565b50565b503d610e6f565b604051903d90823e3d90fd5b60846040517f08c379a000000000000000000000000000000000000000000000000000000000815260206004820152602160248201527f496e73756666696369656e74206e617469766520746f6b656e2062616c616e6360448201527f65000000000000000000000000000000000000000000000000000000000000006064820152fd5b909273ffffffffffffffffffffffffffffffffffffffff7f00000000000000000000000000000000000000000000000000000000000000001691823b1561043e576040517fa58411940000000000000000000000000000000000000000000000000000000081528160048201525f8160248183885af180156104425761111e575b50929391928492849073ffffffffffffffffffffffffffffffffffffffff811630146110ab576040517f23b872dd00000000000000000000000000000000000000000000000000000000815273ffffffffffffffffffffffffffffffffffffffff9182166004820152911660248201526044810192909252909160209183916064918391905af180156110a057916020918493611073575b505b6004604051809581937f11da60b40000000000000000000000000000000000000000000000000000000083525af1908115610e8b5750610e605750565b61109290833d8511611099575b61108a8183610b6a565b810190610cd9565b505f611034565b503d611080565b6040513d85823e3d90fd5b5050604460209260405194859384927fa9059cbb00000000000000000000000000000000000000000000000000000000845288600485015260248401525af180156110a057916020918493611101575b50611036565b61111790833d85116110995761108a8183610b6a565b505f6110fb565b83959394505f61112d91610b6a565b5f939294610f9c565b9192156111e05773ffffffffffffffffffffffffffffffffffffffff7f000000000000000000000000000000000000000000000000000000000000000016803b1561043e576040517f156e29f600000000000000000000000000000000000000000000000000000000815273ffffffffffffffffffffffffffffffffffffffff92831660048201529290911660248301526044820192909252905f90829081838160648101610da6565b9173ffffffffffffffffffffffffffffffffffffffff7f000000000000000000000000000000000000000000000000000000000000000016803b1561043e576040517f0b0d9c0900000000000000000000000000000000000000000000000000000000815273ffffffffffffffffffffffffffffffffffffffff938416600482015293909216602484015260448301525f90829081838160648101610da656fea2646970667358221220a7b674bc755720dc8bea8e23332a2ea405af35330db66329723dae27bbed6cc464736f6c634300081a0033","opcodes":"PUSH1 0xA0 CALLVALUE PUSH1 0x97 JUMPI PUSH1 0x1F PUSH2 0x1366 CODESIZE DUP2 SWAP1 SUB SWAP2 DUP3 ADD PUSH1 0x1F NOT AND DUP4 ADD SWAP2 PUSH1 0x1 PUSH1 0x1 PUSH1 0x40 SHL SUB DUP4 GT DUP5 DUP5 LT OR PUSH1 0x9B JUMPI DUP1 DUP5 SWAP3 PUSH1 0x20 SWAP5 PUSH1 0x40 MSTORE DUP4 CODECOPY DUP2 ADD SUB SLT PUSH1 0x97 JUMPI MLOAD PUSH1 0x1 PUSH1 0x1 PUSH1 0xA0 SHL SUB DUP2 AND DUP2 SUB PUSH1 0x97 JUMPI PUSH1 0x80 MSTORE PUSH1 0x40 MLOAD PUSH2 0x12B6 SWAP1 DUP2 PUSH2 0xB0 DUP3 CODECOPY PUSH1 0x80 MLOAD DUP2 DUP2 DUP2 PUSH2 0x36D ADD MSTORE DUP2 DUP2 PUSH2 0x4D1 ADD MSTORE DUP2 DUP2 PUSH2 0xA82 ADD MSTORE DUP2 DUP2 PUSH2 0xD1E ADD MSTORE DUP2 DUP2 PUSH2 0xE2F ADD MSTORE DUP2 DUP2 PUSH2 0xF34 ADD MSTORE DUP2 DUP2 PUSH2 0x1154 ADD MSTORE PUSH2 0x11F8 ADD MSTORE RETURN JUMPDEST PUSH0 DUP1 REVERT JUMPDEST PUSH4 0x4E487B71 PUSH1 0xE0 SHL PUSH0 MSTORE PUSH1 0x41 PUSH1 0x4 MSTORE PUSH1 0x24 PUSH0 REVERT INVALID PUSH1 0x80 DUP1 PUSH1 0x40 MSTORE PUSH1 0x4 CALLDATASIZE LT ISZERO PUSH2 0x1C JUMPI JUMPDEST POP CALLDATASIZE ISZERO PUSH2 0x1A JUMPI PUSH0 DUP1 REVERT JUMPDEST STOP JUMPDEST PUSH0 CALLDATALOAD PUSH1 0xE0 SHR SWAP1 DUP2 PUSH4 0x481C6A75 EQ PUSH2 0xA3A JUMPI POP DUP1 PUSH4 0x50431CE4 EQ PUSH2 0x9EC JUMPI DUP1 PUSH4 0x91DD7346 EQ PUSH2 0x44D JUMPI PUSH4 0x995431F6 EQ PUSH2 0x54 JUMPI PUSH0 PUSH2 0xF JUMP JUMPDEST PUSH32 0xFFFFFFFFFFFFFFFFFFFFFFFFFFFFFFFFFFFFFFFFFFFFFFFFFFFFFFFFFFFFFFFC CALLDATASIZE ADD PUSH2 0x180 DUP2 SLT PUSH2 0x43E JUMPI PUSH1 0xA0 SGT PUSH2 0x43E JUMPI PUSH1 0x40 MLOAD PUSH2 0x93 DUP2 PUSH2 0xB32 JUMP JUMPDEST PUSH1 0x4 CALLDATALOAD PUSH20 0xFFFFFFFFFFFFFFFFFFFFFFFFFFFFFFFFFFFFFFFF DUP2 AND DUP2 SUB PUSH2 0x43E JUMPI DUP2 MSTORE PUSH1 0x24 CALLDATALOAD PUSH20 0xFFFFFFFFFFFFFFFFFFFFFFFFFFFFFFFFFFFFFFFF DUP2 AND DUP2 SUB PUSH2 0x43E JUMPI PUSH1 0x20 DUP3 ADD MSTORE PUSH1 0x44 CALLDATALOAD PUSH3 0xFFFFFF DUP2 AND DUP2 SUB PUSH2 0x43E JUMPI PUSH1 0x40 DUP3 ADD MSTORE PUSH1 0x64 CALLDATALOAD DUP1 PUSH1 0x2 SIGNEXTEND DUP2 SUB PUSH2 0x43E JUMPI PUSH1 0x60 DUP3 ADD MSTORE PUSH1 0x84 CALLDATALOAD PUSH20 0xFFFFFFFFFFFFFFFFFFFFFFFFFFFFFFFFFFFFFFFF DUP2 AND DUP2 SUB PUSH2 0x43E JUMPI PUSH1 0x80 DUP3 ADD MSTORE PUSH1 0x80 PUSH32 0xFFFFFFFFFFFFFFFFFFFFFFFFFFFFFFFFFFFFFFFFFFFFFFFFFFFFFFFFFFFFFF5C CALLDATASIZE ADD SLT PUSH2 0x43E JUMPI PUSH1 0x40 MLOAD SWAP1 PUSH2 0x15C DUP3 PUSH2 0xB4E JUMP JUMPDEST PUSH1 0xA4 CALLDATALOAD DUP1 PUSH1 0x2 SIGNEXTEND DUP2 SUB PUSH2 0x43E JUMPI DUP3 MSTORE PUSH1 0xC4 CALLDATALOAD DUP1 PUSH1 0x2 SIGNEXTEND DUP2 SUB PUSH2 0x43E JUMPI PUSH1 0x20 DUP4 ADD MSTORE PUSH1 0xE4 CALLDATALOAD PUSH1 0x40 DUP4 ADD MSTORE PUSH2 0x104 CALLDATALOAD PUSH1 0x60 DUP4 ADD MSTORE PUSH2 0x124 CALLDATALOAD PUSH8 0xFFFFFFFFFFFFFFFF DUP2 GT PUSH2 0x43E JUMPI PUSH2 0x1AF SWAP1 CALLDATASIZE SWAP1 PUSH1 0x4 ADD PUSH2 0xC14 JUMP JUMPDEST SWAP2 PUSH2 0x144 CALLDATALOAD SWAP3 DUP4 ISZERO ISZERO DUP1 SWAP5 SUB PUSH2 0x43E JUMPI PUSH2 0x164 CALLDATALOAD SWAP3 DUP4 ISZERO ISZERO DUP1 SWAP5 SUB PUSH2 0x43E JUMPI PUSH2 0x353 SWAP5 PUSH0 SWAP5 PUSH2 0x2D9 PUSH2 0x318 SWAP5 PUSH2 0x2C4 PUSH20 0xFFFFFFFFFFFFFFFFFFFFFFFFFFFFFFFFFFFFFFFF SWAP8 PUSH2 0x292 PUSH1 0x40 MLOAD SWAP8 PUSH2 0x204 DUP10 PUSH2 0xAE9 JUMP JUMPDEST CALLER DUP10 MSTORE PUSH1 0x20 DUP10 ADD SWAP1 DUP2 MSTORE PUSH1 0x40 DUP10 ADD SWAP3 DUP4 MSTORE PUSH1 0x60 DUP10 ADD SWAP5 DUP6 MSTORE PUSH1 0x80 DUP10 ADD SWAP8 DUP9 MSTORE PUSH1 0xA0 DUP10 ADD SWAP7 DUP8 MSTORE PUSH1 0x40 MLOAD SWAP11 DUP12 SWAP10 PUSH1 0x20 DUP1 DUP13 ADD MSTORE MLOAD AND PUSH1 0x40 DUP11 ADD MSTORE MLOAD PUSH1 0x60 DUP10 ADD SWAP1 PUSH20 0xFFFFFFFFFFFFFFFFFFFFFFFFFFFFFFFFFFFFFFFF PUSH1 0x80 DUP1 SWAP3 DUP3 DUP2 MLOAD AND DUP6 MSTORE DUP3 PUSH1 0x20 DUP3 ADD MLOAD AND PUSH1 0x20 DUP7 ADD MSTORE PUSH3 0xFFFFFF PUSH1 0x40 DUP3 ADD MLOAD AND PUSH1 0x40 DUP7 ADD MSTORE PUSH1 0x60 DUP2 ADD MLOAD PUSH1 0x2 SIGNEXTEND PUSH1 0x60 DUP7 ADD MSTORE ADD MLOAD AND SWAP2 ADD MSTORE JUMP JUMPDEST MLOAD DUP1 MLOAD PUSH1 0x2 SWAP1 DUP2 SIGNEXTEND PUSH2 0x100 DUP10 ADD MSTORE PUSH1 0x20 DUP3 ADD MLOAD SWAP1 SIGNEXTEND PUSH2 0x120 DUP9 ADD MSTORE PUSH1 0x40 DUP2 ADD MLOAD PUSH2 0x140 DUP9 ADD MSTORE PUSH1 0x60 ADD MLOAD PUSH2 0x160 DUP8 ADD MSTORE JUMP JUMPDEST MLOAD PUSH2 0x1A0 PUSH2 0x180 DUP7 ADD MSTORE PUSH2 0x1E0 DUP6 ADD SWAP1 PUSH2 0xAA6 JUMP JUMPDEST SWAP2 MLOAD ISZERO ISZERO PUSH2 0x1A0 DUP5 ADD MSTORE MLOAD ISZERO ISZERO PUSH2 0x1C0 DUP4 ADD MSTORE SUB PUSH32 0xFFFFFFFFFFFFFFFFFFFFFFFFFFFFFFFFFFFFFFFFFFFFFFFFFFFFFFFFFFFFFFE0 DUP2 ADD DUP4 MSTORE DUP3 PUSH2 0xB6A JUMP JUMPDEST PUSH1 0x40 MLOAD DUP1 SWAP4 DUP2 SWAP3 PUSH32 0x48C8949100000000000000000000000000000000000000000000000000000000 DUP4 MSTORE PUSH1 0x20 PUSH1 0x4 DUP5 ADD MSTORE PUSH1 0x24 DUP4 ADD SWAP1 PUSH2 0xAA6 JUMP JUMPDEST SUB DUP2 DUP4 PUSH20 0xFFFFFFFFFFFFFFFFFFFFFFFFFFFFFFFFFFFFFFFF PUSH32 0x0 AND GAS CALL SWAP1 DUP2 ISZERO PUSH2 0x442 JUMPI PUSH0 SWAP2 PUSH2 0x3BE JUMPI JUMPDEST PUSH1 0x40 PUSH2 0x3B2 DUP4 PUSH1 0x20 DUP1 DUP3 MLOAD DUP4 ADD ADD SWAP2 ADD PUSH2 0xC67 JUMP JUMPDEST DUP3 MLOAD SWAP2 DUP3 MSTORE PUSH1 0x20 DUP3 ADD MSTORE RETURN JUMPDEST SWAP1 POP RETURNDATASIZE DUP1 PUSH0 DUP4 RETURNDATACOPY PUSH2 0x3CF DUP2 DUP4 PUSH2 0xB6A JUMP JUMPDEST DUP2 ADD SWAP1 PUSH1 0x20 DUP2 DUP4 SUB SLT PUSH2 0x43E JUMPI DUP1 MLOAD SWAP1 PUSH8 0xFFFFFFFFFFFFFFFF DUP3 GT PUSH2 0x43E JUMPI ADD DUP2 PUSH1 0x1F DUP3 ADD SLT ISZERO PUSH2 0x43E JUMPI DUP1 MLOAD SWAP2 PUSH2 0x406 DUP4 PUSH2 0xBDA JUMP JUMPDEST SWAP1 PUSH2 0x414 PUSH1 0x40 MLOAD SWAP3 DUP4 PUSH2 0xB6A JUMP JUMPDEST DUP4 DUP3 MSTORE PUSH1 0x20 DUP5 DUP5 ADD ADD GT PUSH2 0x43E JUMPI PUSH0 PUSH1 0x20 DUP5 PUSH1 0x40 SWAP6 DUP3 PUSH2 0x3B2 SWAP7 ADD DUP4 DUP7 ADD MCOPY DUP4 ADD ADD MSTORE SWAP2 POP PUSH2 0x39D JUMP JUMPDEST PUSH0 DUP1 REVERT JUMPDEST PUSH1 0x40 MLOAD RETURNDATASIZE PUSH0 DUP3 RETURNDATACOPY RETURNDATASIZE SWAP1 REVERT JUMPDEST CALLVALUE PUSH2 0x43E JUMPI PUSH1 0x20 PUSH32 0xFFFFFFFFFFFFFFFFFFFFFFFFFFFFFFFFFFFFFFFFFFFFFFFFFFFFFFFFFFFFFFFC CALLDATASIZE ADD SLT PUSH2 0x43E JUMPI PUSH1 0x4 CALLDATALOAD PUSH8 0xFFFFFFFFFFFFFFFF DUP2 GT PUSH2 0x43E JUMPI CALLDATASIZE PUSH1 0x23 DUP3 ADD SLT ISZERO PUSH2 0x43E JUMPI DUP1 PUSH1 0x4 ADD CALLDATALOAD PUSH8 0xFFFFFFFFFFFFFFFF DUP2 GT PUSH2 0x43E JUMPI DUP2 ADD PUSH1 0x24 DUP2 ADD CALLDATASIZE DUP2 GT PUSH2 0x43E JUMPI PUSH20 0xFFFFFFFFFFFFFFFFFFFFFFFFFFFFFFFFFFFFFFFF PUSH32 0x0 AND SWAP3 DUP4 CALLER SUB PUSH2 0x98E JUMPI PUSH1 0x20 DUP2 DUP5 SUB SLT PUSH2 0x43E JUMPI PUSH1 0x24 DUP2 ADD CALLDATALOAD SWAP1 PUSH8 0xFFFFFFFFFFFFFFFF DUP3 GT PUSH2 0x43E JUMPI ADD SWAP2 PUSH2 0x1A0 DUP4 DUP3 SUB SLT PUSH2 0x43E JUMPI PUSH1 0x40 MLOAD PUSH2 0x531 DUP2 PUSH2 0xAE9 JUMP JUMPDEST PUSH2 0x53D PUSH1 0x24 DUP6 ADD PUSH2 0xBAB JUMP JUMPDEST DUP2 MSTORE PUSH1 0xA0 PUSH32 0xFFFFFFFFFFFFFFFFFFFFFFFFFFFFFFFFFFFFFFFFFFFFFFFFFFFFFFFFFFFFFFE0 DUP6 DUP5 SUB ADD SLT PUSH2 0x43E JUMPI PUSH1 0x40 MLOAD SWAP2 PUSH2 0x578 DUP4 PUSH2 0xB32 JUMP JUMPDEST PUSH2 0x584 PUSH1 0x44 DUP7 ADD PUSH2 0xBAB JUMP JUMPDEST DUP4 MSTORE PUSH2 0x592 PUSH1 0x64 DUP7 ADD PUSH2 0xBAB JUMP JUMPDEST PUSH1 0x20 DUP5 ADD MSTORE PUSH1 0x84 DUP6 ADD CALLDATALOAD PUSH3 0xFFFFFF DUP2 AND DUP2 SUB PUSH2 0x43E JUMPI PUSH32 0xFFFFFFFFFFFFFFFFFFFFFFFFFFFFFFFFFFFFFFFFFFFFFFFFFFFFFFFFFFFFFF1C DUP7 PUSH1 0x80 SWAP4 PUSH1 0x24 SWAP4 PUSH1 0x40 DUP9 ADD MSTORE PUSH2 0x5E1 PUSH1 0xA4 DUP4 ADD PUSH2 0xBCC JUMP JUMPDEST PUSH1 0x60 DUP9 ADD MSTORE PUSH2 0x5F2 PUSH1 0xC4 DUP4 ADD PUSH2 0xBAB JUMP JUMPDEST DUP6 DUP9 ADD MSTORE PUSH1 0x20 DUP7 ADD SWAP7 DUP8 MSTORE SUB ADD ADD SLT PUSH2 0x43E JUMPI PUSH1 0x40 MLOAD SWAP3 PUSH2 0x612 DUP5 PUSH2 0xB4E JUMP JUMPDEST PUSH2 0x61E PUSH1 0xE4 DUP7 ADD PUSH2 0xBCC JUMP JUMPDEST DUP5 MSTORE PUSH2 0x62D PUSH2 0x104 DUP7 ADD PUSH2 0xBCC JUMP JUMPDEST PUSH1 0x20 DUP6 ADD MSTORE PUSH2 0x124 DUP6 ADD CALLDATALOAD PUSH1 0x40 DUP6 ADD MSTORE PUSH2 0x144 DUP6 ADD CALLDATALOAD PUSH1 0x60 DUP6 ADD MSTORE PUSH1 0x40 DUP3 ADD SWAP4 DUP5 MSTORE PUSH2 0x164 DUP6 ADD CALLDATALOAD SWAP6 PUSH8 0xFFFFFFFFFFFFFFFF DUP8 GT PUSH2 0x43E JUMPI PUSH2 0x679 PUSH1 0x40 SWAP3 PUSH1 0x24 PUSH2 0x763 SWAP10 DUP10 ADD ADD PUSH2 0xC14 JUMP JUMPDEST SWAP1 DUP2 PUSH1 0x60 DUP6 ADD MSTORE PUSH2 0x735 PUSH0 PUSH2 0x6A5 PUSH2 0x1A4 PUSH2 0x697 PUSH2 0x184 DUP13 ADD PUSH2 0xC5A JUMP JUMPDEST SWAP11 PUSH1 0x80 DUP10 ADD SWAP12 DUP13 MSTORE ADD PUSH2 0xC5A JUMP JUMPDEST SWAP8 PUSH1 0xA0 DUP8 ADD SWAP9 DUP10 MSTORE PUSH2 0x777 DUP9 MLOAD SWAP2 MLOAD SWAP6 DUP8 MLOAD SWAP13 DUP14 SWAP8 DUP9 SWAP7 DUP8 SWAP6 PUSH32 0x5A6BCFDA00000000000000000000000000000000000000000000000000000000 DUP8 MSTORE PUSH1 0x4 DUP8 ADD SWAP1 PUSH20 0xFFFFFFFFFFFFFFFFFFFFFFFFFFFFFFFFFFFFFFFF PUSH1 0x80 DUP1 SWAP3 DUP3 DUP2 MLOAD AND DUP6 MSTORE DUP3 PUSH1 0x20 DUP3 ADD MLOAD AND PUSH1 0x20 DUP7 ADD MSTORE PUSH3 0xFFFFFF PUSH1 0x40 DUP3 ADD MLOAD AND PUSH1 0x40 DUP7 ADD MSTORE PUSH1 0x60 DUP2 ADD MLOAD PUSH1 0x2 SIGNEXTEND PUSH1 0x60 DUP7 ADD MSTORE ADD MLOAD AND SWAP2 ADD MSTORE JUMP JUMPDEST DUP1 MLOAD PUSH1 0x2 SWAP1 DUP2 SIGNEXTEND PUSH1 0xA4 DUP8 ADD MSTORE PUSH1 0x20 DUP3 ADD MLOAD SWAP1 SIGNEXTEND PUSH1 0xC4 DUP7 ADD MSTORE PUSH1 0x40 DUP2 ADD MLOAD PUSH1 0xE4 DUP7 ADD MSTORE PUSH1 0x60 ADD MLOAD PUSH2 0x104 DUP6 ADD MSTORE JUMP JUMPDEST PUSH2 0x140 PUSH2 0x124 DUP5 ADD MSTORE PUSH2 0x144 DUP4 ADD SWAP1 PUSH2 0xAA6 JUMP JUMPDEST SUB SWAP3 GAS CALL SWAP1 DUP2 ISZERO PUSH2 0x442 JUMPI PUSH2 0x7F4 SWAP6 PUSH0 SWAP3 PUSH2 0x95C JUMPI JUMPDEST POP DUP2 PUSH1 0x80 SAR SWAP4 DUP3 PUSH1 0xF SIGNEXTEND SWAP5 DUP1 PUSH1 0xF SIGNEXTEND SWAP7 PUSH0 DUP9 SLT PUSH2 0x8FD JUMPI JUMPDEST PUSH0 DUP8 SLT PUSH2 0x899 JUMPI JUMPDEST POP PUSH0 DUP8 SGT PUSH2 0x841 JUMPI JUMPDEST POP PUSH0 DUP6 SGT PUSH2 0x7F8 JUMPI JUMPDEST POP POP POP POP PUSH1 0x40 MLOAD SWAP2 PUSH1 0x20 DUP4 ADD MSTORE PUSH1 0x40 DUP3 ADD MSTORE PUSH1 0x40 DUP2 MSTORE PUSH2 0x7E0 PUSH1 0x60 DUP3 PUSH2 0xB6A JUMP JUMPDEST PUSH1 0x40 MLOAD SWAP2 DUP3 SWAP2 PUSH1 0x20 DUP4 MSTORE PUSH1 0x20 DUP4 ADD SWAP1 PUSH2 0xAA6 JUMP JUMPDEST SUB SWAP1 RETURN JUMPDEST PUSH16 0xFFFFFFFFFFFFFFFFFFFFFFFFFFFFFFFF PUSH20 0xFFFFFFFFFFFFFFFFFFFFFFFFFFFFFFFFFFFFFFFF DUP1 PUSH1 0x20 PUSH2 0x838 SWAP8 MLOAD ADD MLOAD AND SWAP4 MLOAD AND SWAP2 MLOAD ISZERO ISZERO SWAP4 AND SWAP2 PUSH2 0x1136 JUMP JUMPDEST DUP4 DUP1 DUP1 DUP1 PUSH2 0x7BF JUMP JUMPDEST PUSH2 0x893 SWAP1 PUSH20 0xFFFFFFFFFFFFFFFFFFFFFFFFFFFFFFFFFFFFFFFF DUP7 MLOAD MLOAD AND PUSH20 0xFFFFFFFFFFFFFFFFFFFFFFFFFFFFFFFFFFFFFFFF DUP6 MLOAD AND PUSH16 0xFFFFFFFFFFFFFFFFFFFFFFFFFFFFFFFF DUP6 MLOAD ISZERO ISZERO SWAP4 AND SWAP2 PUSH2 0x1136 JUMP JUMPDEST DUP8 PUSH2 0x7B6 JUMP JUMPDEST PUSH2 0x8F7 SWAP1 PUSH20 0xFFFFFFFFFFFFFFFFFFFFFFFFFFFFFFFFFFFFFFFF PUSH1 0x20 DUP9 MLOAD ADD MLOAD AND SWAP1 PUSH20 0xFFFFFFFFFFFFFFFFFFFFFFFFFFFFFFFFFFFFFFFF DUP7 MLOAD AND PUSH16 0xFFFFFFFFFFFFFFFFFFFFFFFFFFFFFFFF PUSH2 0x8EC DUP12 PUSH2 0xC7D JUMP JUMPDEST AND SWAP2 MLOAD ISZERO ISZERO SWAP3 PUSH2 0xD00 JUMP JUMPDEST DUP9 PUSH2 0x7AD JUMP JUMPDEST PUSH2 0x957 PUSH20 0xFFFFFFFFFFFFFFFFFFFFFFFFFFFFFFFFFFFFFFFF DUP8 MLOAD MLOAD AND PUSH20 0xFFFFFFFFFFFFFFFFFFFFFFFFFFFFFFFFFFFFFFFF DUP7 MLOAD AND PUSH16 0xFFFFFFFFFFFFFFFFFFFFFFFFFFFFFFFF PUSH2 0x94B DUP7 PUSH2 0xC7D JUMP JUMPDEST AND SWAP1 DUP5 MLOAD ISZERO ISZERO SWAP3 PUSH2 0xD00 JUMP JUMPDEST PUSH2 0x7A5 JUMP JUMPDEST PUSH2 0x97F SWAP2 SWAP3 POP PUSH1 0x40 RETURNDATASIZE PUSH1 0x40 GT PUSH2 0x987 JUMPI JUMPDEST PUSH2 0x977 DUP2 DUP4 PUSH2 0xB6A JUMP JUMPDEST DUP2 ADD SWAP1 PUSH2 0xC67 JUMP JUMPDEST POP SWAP1 DUP7 PUSH2 0x78D JUMP JUMPDEST POP RETURNDATASIZE PUSH2 0x96D JUMP JUMPDEST PUSH1 0x64 PUSH1 0x40 MLOAD PUSH32 0x8C379A000000000000000000000000000000000000000000000000000000000 DUP2 MSTORE PUSH1 0x20 PUSH1 0x4 DUP3 ADD MSTORE PUSH1 0xC PUSH1 0x24 DUP3 ADD MSTORE PUSH32 0x6F6E6C79206D616E616765720000000000000000000000000000000000000000 PUSH1 0x44 DUP3 ADD MSTORE REVERT JUMPDEST CALLVALUE PUSH2 0x43E JUMPI PUSH0 PUSH32 0xFFFFFFFFFFFFFFFFFFFFFFFFFFFFFFFFFFFFFFFFFFFFFFFFFFFFFFFFFFFFFFFC CALLDATASIZE ADD SLT PUSH2 0x43E JUMPI PUSH0 DUP1 DUP1 DUP1 SELFBALANCE DUP2 DUP2 ISZERO PUSH2 0xA31 JUMPI JUMPDEST CALLER SWAP1 CALL ISZERO PUSH2 0x442 JUMPI STOP JUMPDEST POP PUSH2 0x8FC PUSH2 0xA27 JUMP JUMPDEST CALLVALUE PUSH2 0x43E JUMPI PUSH0 PUSH32 0xFFFFFFFFFFFFFFFFFFFFFFFFFFFFFFFFFFFFFFFFFFFFFFFFFFFFFFFFFFFFFFFC CALLDATASIZE ADD SLT PUSH2 0x43E JUMPI PUSH1 0x20 SWAP1 PUSH20 0xFFFFFFFFFFFFFFFFFFFFFFFFFFFFFFFFFFFFFFFF PUSH32 0x0 AND DUP2 MSTORE RETURN JUMPDEST SWAP1 PUSH32 0xFFFFFFFFFFFFFFFFFFFFFFFFFFFFFFFFFFFFFFFFFFFFFFFFFFFFFFFFFFFFFFE0 PUSH1 0x1F PUSH1 0x20 DUP1 SWAP5 DUP1 MLOAD SWAP2 DUP3 SWAP2 DUP3 DUP8 MSTORE ADD DUP7 DUP7 ADD MCOPY PUSH0 DUP6 DUP3 DUP7 ADD ADD MSTORE ADD AND ADD ADD SWAP1 JUMP JUMPDEST PUSH1 0xC0 DUP2 ADD SWAP1 DUP2 LT PUSH8 0xFFFFFFFFFFFFFFFF DUP3 GT OR PUSH2 0xB05 JUMPI PUSH1 0x40 MSTORE JUMP JUMPDEST PUSH32 0x4E487B7100000000000000000000000000000000000000000000000000000000 PUSH0 MSTORE PUSH1 0x41 PUSH1 0x4 MSTORE PUSH1 0x24 PUSH0 REVERT JUMPDEST PUSH1 0xA0 DUP2 ADD SWAP1 DUP2 LT PUSH8 0xFFFFFFFFFFFFFFFF DUP3 GT OR PUSH2 0xB05 JUMPI PUSH1 0x40 MSTORE JUMP JUMPDEST PUSH1 0x80 DUP2 ADD SWAP1 DUP2 LT PUSH8 0xFFFFFFFFFFFFFFFF DUP3 GT OR PUSH2 0xB05 JUMPI PUSH1 0x40 MSTORE JUMP JUMPDEST SWAP1 PUSH1 0x1F PUSH32 0xFFFFFFFFFFFFFFFFFFFFFFFFFFFFFFFFFFFFFFFFFFFFFFFFFFFFFFFFFFFFFFE0 SWAP2 ADD AND DUP2 ADD SWAP1 DUP2 LT PUSH8 0xFFFFFFFFFFFFFFFF DUP3 GT OR PUSH2 0xB05 JUMPI PUSH1 0x40 MSTORE JUMP JUMPDEST CALLDATALOAD SWAP1 PUSH20 0xFFFFFFFFFFFFFFFFFFFFFFFFFFFFFFFFFFFFFFFF DUP3 AND DUP3 SUB PUSH2 0x43E JUMPI JUMP JUMPDEST CALLDATALOAD SWAP1 DUP2 PUSH1 0x2 SIGNEXTEND DUP3 SUB PUSH2 0x43E JUMPI JUMP JUMPDEST PUSH8 0xFFFFFFFFFFFFFFFF DUP2 GT PUSH2 0xB05 JUMPI PUSH1 0x1F ADD PUSH32 0xFFFFFFFFFFFFFFFFFFFFFFFFFFFFFFFFFFFFFFFFFFFFFFFFFFFFFFFFFFFFFFE0 AND PUSH1 0x20 ADD SWAP1 JUMP JUMPDEST DUP2 PUSH1 0x1F DUP3 ADD SLT ISZERO PUSH2 0x43E JUMPI DUP1 CALLDATALOAD SWAP1 PUSH2 0xC2B DUP3 PUSH2 0xBDA JUMP JUMPDEST SWAP3 PUSH2 0xC39 PUSH1 0x40 MLOAD SWAP5 DUP6 PUSH2 0xB6A JUMP JUMPDEST DUP3 DUP5 MSTORE PUSH1 0x20 DUP4 DUP4 ADD ADD GT PUSH2 0x43E JUMPI DUP2 PUSH0 SWAP3 PUSH1 0x20 DUP1 SWAP4 ADD DUP4 DUP7 ADD CALLDATACOPY DUP4 ADD ADD MSTORE SWAP1 JUMP JUMPDEST CALLDATALOAD SWAP1 DUP2 ISZERO ISZERO DUP3 SUB PUSH2 0x43E JUMPI JUMP JUMPDEST SWAP2 SWAP1 DUP3 PUSH1 0x40 SWAP2 SUB SLT PUSH2 0x43E JUMPI PUSH1 0x20 DUP3 MLOAD SWAP3 ADD MLOAD SWAP1 JUMP JUMPDEST PUSH1 0xF SIGNEXTEND PUSH32 0xFFFFFFFFFFFFFFFFFFFFFFFFFFFFFFFF80000000000000000000000000000000 DUP2 EQ PUSH2 0xCAC JUMPI PUSH0 SUB SWAP1 JUMP JUMPDEST PUSH32 0x4E487B7100000000000000000000000000000000000000000000000000000000 PUSH0 MSTORE PUSH1 0x11 PUSH1 0x4 MSTORE PUSH1 0x24 PUSH0 REVERT JUMPDEST SWAP1 DUP2 PUSH1 0x20 SWAP2 SUB SLT PUSH2 0x43E JUMPI MLOAD DUP1 ISZERO ISZERO DUP2 SUB PUSH2 0x43E JUMPI SWAP1 JUMP JUMPDEST SWAP1 DUP2 PUSH1 0x20 SWAP2 SUB SLT PUSH2 0x43E JUMPI MLOAD SWAP1 JUMP JUMPDEST SWAP2 SWAP3 ISZERO PUSH2 0xDC3 JUMPI PUSH20 0xFFFFFFFFFFFFFFFFFFFFFFFFFFFFFFFFFFFFFFFF PUSH32 0x0 AND DUP1 EXTCODESIZE ISZERO PUSH2 0x43E JUMPI PUSH1 0x40 MLOAD PUSH32 0xF5298ACA00000000000000000000000000000000000000000000000000000000 DUP2 MSTORE PUSH20 0xFFFFFFFFFFFFFFFFFFFFFFFFFFFFFFFFFFFFFFFF SWAP3 DUP4 AND PUSH1 0x4 DUP3 ADD MSTORE SWAP3 SWAP1 SWAP2 AND PUSH1 0x24 DUP4 ADD MSTORE PUSH1 0x44 DUP3 ADD SWAP3 SWAP1 SWAP3 MSTORE SWAP1 PUSH0 SWAP1 DUP3 SWAP1 DUP2 DUP4 DUP2 PUSH1 0x64 DUP2 ADD JUMPDEST SUB SWAP3 GAS CALL DUP1 ISZERO PUSH2 0x442 JUMPI PUSH2 0xDB7 JUMPI POP JUMP JUMPDEST PUSH0 PUSH2 0xDC1 SWAP2 PUSH2 0xB6A JUMP JUMPDEST JUMP JUMPDEST PUSH0 SWAP2 PUSH20 0xFFFFFFFFFFFFFFFFFFFFFFFFFFFFFFFFFFFFFFFF AND DUP1 PUSH2 0xF1B JUMPI POP POP DUP2 SELFBALANCE LT PUSH2 0xE97 JUMPI PUSH1 0x20 PUSH1 0x4 SWAP3 PUSH1 0x40 MLOAD SWAP4 DUP5 DUP1 SWAP3 PUSH32 0x11DA60B400000000000000000000000000000000000000000000000000000000 DUP3 MSTORE PUSH20 0xFFFFFFFFFFFFFFFFFFFFFFFFFFFFFFFFFFFFFFFF PUSH32 0x0 AND GAS CALL SWAP1 DUP2 ISZERO PUSH2 0xE8B JUMPI POP PUSH2 0xE60 JUMPI POP JUMP JUMPDEST PUSH2 0xE81 SWAP1 PUSH1 0x20 RETURNDATASIZE PUSH1 0x20 GT PUSH2 0xE84 JUMPI JUMPDEST PUSH2 0xE79 DUP2 DUP4 PUSH2 0xB6A JUMP JUMPDEST DUP2 ADD SWAP1 PUSH2 0xCF1 JUMP JUMPDEST POP JUMP JUMPDEST POP RETURNDATASIZE PUSH2 0xE6F JUMP JUMPDEST PUSH1 0x40 MLOAD SWAP1 RETURNDATASIZE SWAP1 DUP3 RETURNDATACOPY RETURNDATASIZE SWAP1 REVERT JUMPDEST PUSH1 0x84 PUSH1 0x40 MLOAD PUSH32 0x8C379A000000000000000000000000000000000000000000000000000000000 DUP2 MSTORE PUSH1 0x20 PUSH1 0x4 DUP3 ADD MSTORE PUSH1 0x21 PUSH1 0x24 DUP3 ADD MSTORE PUSH32 0x496E73756666696369656E74206E617469766520746F6B656E2062616C616E63 PUSH1 0x44 DUP3 ADD MSTORE PUSH32 0x6500000000000000000000000000000000000000000000000000000000000000 PUSH1 0x64 DUP3 ADD MSTORE REVERT JUMPDEST SWAP1 SWAP3 PUSH20 0xFFFFFFFFFFFFFFFFFFFFFFFFFFFFFFFFFFFFFFFF PUSH32 0x0 AND SWAP2 DUP3 EXTCODESIZE ISZERO PUSH2 0x43E JUMPI PUSH1 0x40 MLOAD PUSH32 0xA584119400000000000000000000000000000000000000000000000000000000 DUP2 MSTORE DUP2 PUSH1 0x4 DUP3 ADD MSTORE PUSH0 DUP2 PUSH1 0x24 DUP2 DUP4 DUP9 GAS CALL DUP1 ISZERO PUSH2 0x442 JUMPI PUSH2 0x111E JUMPI JUMPDEST POP SWAP3 SWAP4 SWAP2 SWAP3 DUP5 SWAP3 DUP5 SWAP1 PUSH20 0xFFFFFFFFFFFFFFFFFFFFFFFFFFFFFFFFFFFFFFFF DUP2 AND ADDRESS EQ PUSH2 0x10AB JUMPI PUSH1 0x40 MLOAD PUSH32 0x23B872DD00000000000000000000000000000000000000000000000000000000 DUP2 MSTORE PUSH20 0xFFFFFFFFFFFFFFFFFFFFFFFFFFFFFFFFFFFFFFFF SWAP2 DUP3 AND PUSH1 0x4 DUP3 ADD MSTORE SWAP2 AND PUSH1 0x24 DUP3 ADD MSTORE PUSH1 0x44 DUP2 ADD SWAP3 SWAP1 SWAP3 MSTORE SWAP1 SWAP2 PUSH1 0x20 SWAP2 DUP4 SWAP2 PUSH1 0x64 SWAP2 DUP4 SWAP2 SWAP1 GAS CALL DUP1 ISZERO PUSH2 0x10A0 JUMPI SWAP2 PUSH1 0x20 SWAP2 DUP5 SWAP4 PUSH2 0x1073 JUMPI JUMPDEST POP JUMPDEST PUSH1 0x4 PUSH1 0x40 MLOAD DUP1 SWAP6 DUP2 SWAP4 PUSH32 0x11DA60B400000000000000000000000000000000000000000000000000000000 DUP4 MSTORE GAS CALL SWAP1 DUP2 ISZERO PUSH2 0xE8B JUMPI POP PUSH2 0xE60 JUMPI POP JUMP JUMPDEST PUSH2 0x1092 SWAP1 DUP4 RETURNDATASIZE DUP6 GT PUSH2 0x1099 JUMPI JUMPDEST PUSH2 0x108A DUP2 DUP4 PUSH2 0xB6A JUMP JUMPDEST DUP2 ADD SWAP1 PUSH2 0xCD9 JUMP JUMPDEST POP PUSH0 PUSH2 0x1034 JUMP JUMPDEST POP RETURNDATASIZE PUSH2 0x1080 JUMP JUMPDEST PUSH1 0x40 MLOAD RETURNDATASIZE DUP6 DUP3 RETURNDATACOPY RETURNDATASIZE SWAP1 REVERT JUMPDEST POP POP PUSH1 0x44 PUSH1 0x20 SWAP3 PUSH1 0x40 MLOAD SWAP5 DUP6 SWAP4 DUP5 SWAP3 PUSH32 0xA9059CBB00000000000000000000000000000000000000000000000000000000 DUP5 MSTORE DUP9 PUSH1 0x4 DUP6 ADD MSTORE PUSH1 0x24 DUP5 ADD MSTORE GAS CALL DUP1 ISZERO PUSH2 0x10A0 JUMPI SWAP2 PUSH1 0x20 SWAP2 DUP5 SWAP4 PUSH2 0x1101 JUMPI JUMPDEST POP PUSH2 0x1036 JUMP JUMPDEST PUSH2 0x1117 SWAP1 DUP4 RETURNDATASIZE DUP6 GT PUSH2 0x1099 JUMPI PUSH2 0x108A DUP2 DUP4 PUSH2 0xB6A JUMP JUMPDEST POP PUSH0 PUSH2 0x10FB JUMP JUMPDEST DUP4 SWAP6 SWAP4 SWAP5 POP PUSH0 PUSH2 0x112D SWAP2 PUSH2 0xB6A JUMP JUMPDEST PUSH0 SWAP4 SWAP3 SWAP5 PUSH2 0xF9C JUMP JUMPDEST SWAP2 SWAP3 ISZERO PUSH2 0x11E0 JUMPI PUSH20 0xFFFFFFFFFFFFFFFFFFFFFFFFFFFFFFFFFFFFFFFF PUSH32 0x0 AND DUP1 EXTCODESIZE ISZERO PUSH2 0x43E JUMPI PUSH1 0x40 MLOAD PUSH32 0x156E29F600000000000000000000000000000000000000000000000000000000 DUP2 MSTORE PUSH20 0xFFFFFFFFFFFFFFFFFFFFFFFFFFFFFFFFFFFFFFFF SWAP3 DUP4 AND PUSH1 0x4 DUP3 ADD MSTORE SWAP3 SWAP1 SWAP2 AND PUSH1 0x24 DUP4 ADD MSTORE PUSH1 0x44 DUP3 ADD SWAP3 SWAP1 SWAP3 MSTORE SWAP1 PUSH0 SWAP1 DUP3 SWAP1 DUP2 DUP4 DUP2 PUSH1 0x64 DUP2 ADD PUSH2 0xDA6 JUMP JUMPDEST SWAP2 PUSH20 0xFFFFFFFFFFFFFFFFFFFFFFFFFFFFFFFFFFFFFFFF PUSH32 0x0 AND DUP1 EXTCODESIZE ISZERO PUSH2 0x43E JUMPI PUSH1 0x40 MLOAD PUSH32 0xB0D9C0900000000000000000000000000000000000000000000000000000000 DUP2 MSTORE PUSH20 0xFFFFFFFFFFFFFFFFFFFFFFFFFFFFFFFFFFFFFFFF SWAP4 DUP5 AND PUSH1 0x4 DUP3 ADD MSTORE SWAP4 SWAP1 SWAP3 AND PUSH1 0x24 DUP5 ADD MSTORE PUSH1 0x44 DUP4 ADD MSTORE PUSH0 SWAP1 DUP3 SWAP1 DUP2 DUP4 DUP2 PUSH1 0x64 DUP2 ADD PUSH2 0xDA6 JUMP INVALID LOG2 PUSH5 0x6970667358 0x22 SLT KECCAK256 0xA7 0xB6 PUSH21 0xBC755720DC8BEA8E23332A2EA405AF35330DB66329 PUSH19 0x3DAE27BBED6CC464736F6C634300081A003300 "},"methodIdentifiers":{"manager()":"481c6a75","run((address,address,uint24,int24,address),(int24,int24,int256,bytes32),bytes,bool,bool)":"995431f6","unlockCallback(bytes)":"91dd7346","withdrawNative()":"50431ce4"}}}}}