{"src/deploy/helpers/V4AddLiquidityHelper.sol":{"V4AddLiquidityHelper":{"abi":[{"inputs":[{"internalType":"contract IPoolManagerMinimal","name":"_m","type":"address"}],"stateMutability":"nonpayable","type":"constructor"},{"inputs":[],"name":"manager","outputs":[{"internalType":"contract IPoolManagerMinimal","name":"","type":"address"}],"stateMutability":"view","type":"function"},{"inputs":[{"components":[{"internalType":"address","name":"currency0","type":"address"},{"internalType":"address","name":"currency1","type":"address"},{"internalType":"uint24","name":"fee","type":"uint24"},{"internalType":"int24","name":"tickSpacing","type":"int24"},{"internalType":"address","name":"hooks","type":"address"}],"internalType":"struct IPoolManagerMinimal.PoolKey","name":"key","type":"tuple"},{"components":[{"internalType":"int24","name":"tickLower","type":"int24"},{"internalType":"int24","name":"tickUpper","type":"int24"},{"internalType":"int256","name":"liquidityDelta","type":"int256"},{"internalType":"bytes32","name":"salt","type":"bytes32"}],"internalType":"struct IPoolManagerMinimal.ModifyLiquidityParams","name":"params","type":"tuple"},{"internalType":"bytes","name":"hookData","type":"bytes"},{"internalType":"bool","name":"useBurn","type":"bool"},{"internalType":"bool","name":"useClaims","type":"bool"}],"name":"run","outputs":[{"internalType":"int256","name":"","type":"int256"},{"internalType":"int256","name":"","type":"int256"}],"stateMutability":"nonpayable","type":"function"},{"inputs":[{"internalType":"bytes","name":"rawData","type":"bytes"}],"name":"unlockCallback","outputs":[{"internalType":"bytes","name":"","type":"bytes"}],"stateMutability":"nonpayable","type":"function"}],"evm":{"bytecode":{"linkReferences":{},"object":"60a034609757601f61122938819003918201601f19168301916001600160401b03831184841017609b57808492602094604052833981010312609757516001600160a01b038116810360975760805260405161117990816100b0823960805181818161035b015281816104c0015281816109d301528181610c6c01528181610d7601528181610df70152818161101701526110bb0152f35b5f80fd5b634e487b7160e01b5f52604160045260245ffdfe6080806040526004361015610012575f80fd5b5f3560e01c908163481c6a751461098b5750806391dd73461461043b5763995431f61461003d575f80fd5b3461042c577ffffffffffffffffffffffffffffffffffffffffffffffffffffffffffffffffc3601610180811261042c5760a01361042c5760405161008181610a83565b60043573ffffffffffffffffffffffffffffffffffffffff8116810361042c57815260243573ffffffffffffffffffffffffffffffffffffffff8116810361042c57602082015260443562ffffff8116810361042c5760408201526064358060020b810361042c57606082015260843573ffffffffffffffffffffffffffffffffffffffff8116810361042c57608082015260807fffffffffffffffffffffffffffffffffffffffffffffffffffffffffffffff5c36011261042c576040519061014a82610a9f565b60a4358060020b810361042c57825260c4358060020b810361042c57602083015260e43560408301526101043560608301526101243567ffffffffffffffff811161042c5761019d903690600401610b65565b91610144359283151580940361042c57610164359283151580940361042c57610341945f946102c7610306946102b273ffffffffffffffffffffffffffffffffffffffff97610280604051976101f289610a3a565b3389526020890190815260408901928352606089019485526080890197885260a089019687526040519a8b996020808c0152511660408a015251606089019073ffffffffffffffffffffffffffffffffffffffff6080809282815116855282602082015116602086015262ffffff6040820151166040860152606081015160020b6060860152015116910152565b518051600290810b6101008901526020820151900b610120880152604081015161014088015260600151610160870152565b516101a06101808601526101e08501906109f7565b915115156101a08401525115156101c0830152037fffffffffffffffffffffffffffffffffffffffffffffffffffffffffffffffe08101835282610abb565b604051809381927f48c894910000000000000000000000000000000000000000000000000000000083526020600484015260248301906109f7565b03818373ffffffffffffffffffffffffffffffffffffffff7f0000000000000000000000000000000000000000000000000000000000000000165af1908115610430575f916103ac575b60406103a08360208082518301019101610bb8565b82519182526020820152f35b90503d805f833e6103bd8183610abb565b81019060208183031261042c5780519067ffffffffffffffff821161042c570181601f8201121561042c578051916103f483610b2b565b906104026040519283610abb565b8382526020848401011161042c575f602084604095826103a096018386015e83010152915061038b565b5f80fd5b6040513d5f823e3d90fd5b3461042c5760207ffffffffffffffffffffffffffffffffffffffffffffffffffffffffffffffffc36011261042c5760043567ffffffffffffffff811161042c573660238201121561042c57806004013567ffffffffffffffff811161042c578101906024820136811161042c5773ffffffffffffffffffffffffffffffffffffffff7f0000000000000000000000000000000000000000000000000000000000000000169182330361092d5760208185031261042c5760248101359067ffffffffffffffff821161042c5701926101a08482031261042c5760405161052081610a3a565b61052c60248601610afc565b815260a07fffffffffffffffffffffffffffffffffffffffffffffffffffffffffffffffe0868403011261042c576040519161056783610a83565b61057360448701610afc565b835261058160648701610afc565b6020840152608486013562ffffff8116810361042c577fffffffffffffffffffffffffffffffffffffffffffffffffffffffffffffff1c8760809360249360408801526105d060a48301610b1d565b60608801526105e160c48301610afc565b85880152602086019687520301011261042c576040519261060184610a9f565b61060d60e48701610b1d565b845261061c6101048701610b1d565b602085015261012486013560408501526101448601356060850152604082019384526101648601359467ffffffffffffffff861161042c576106686040926024610752988a0101610b65565b908160608501526107245f6106946101a46106866101848d01610bab565b9b608089019c8d5201610bab565b9760a08701988952610766885191519587519b8c97889687957f5a6bcfda000000000000000000000000000000000000000000000000000000008752600487019073ffffffffffffffffffffffffffffffffffffffff6080809282815116855282602082015116602086015262ffffff6040820151166040860152606081015160020b6060860152015116910152565b8051600290810b60a48701526020820151900b60c4860152604081015160e486015260600151610104850152565b6101406101248401526101448301906109f7565b03925af1928315610430576107d8955f955f956108f5575b509084915f87126108a8575b5f8312610856575b505f8613610812575b5f82136107dc575b505050506040519160208301526040820152604081526107c4606082610abb565b6040519182916020835260208301906109f7565b0390f35b73ffffffffffffffffffffffffffffffffffffffff80602061080996510151169351169051151592610ff9565b838082816107a3565b61085173ffffffffffffffffffffffffffffffffffffffff855151168773ffffffffffffffffffffffffffffffffffffffff8651168451151592610ff9565b61079b565b6108a29073ffffffffffffffffffffffffffffffffffffffff602087510151169073ffffffffffffffffffffffffffffffffffffffff86511661089886610bce565b9151151592610c4e565b87610792565b6108f073ffffffffffffffffffffffffffffffffffffffff8651511673ffffffffffffffffffffffffffffffffffffffff8651166108e58a610bce565b908451151592610c4e565b61078a565b90955061091b91945060403d604011610926575b6109138183610abb565b810190610bb8565b94909493908761077e565b503d610909565b60646040517f08c379a000000000000000000000000000000000000000000000000000000000815260206004820152600c60248201527f6f6e6c79206d616e6167657200000000000000000000000000000000000000006044820152fd5b3461042c575f7ffffffffffffffffffffffffffffffffffffffffffffffffffffffffffffffffc36011261042c5760209073ffffffffffffffffffffffffffffffffffffffff7f0000000000000000000000000000000000000000000000000000000000000000168152f35b907fffffffffffffffffffffffffffffffffffffffffffffffffffffffffffffffe0601f602080948051918291828752018686015e5f8582860101520116010190565b60c0810190811067ffffffffffffffff821117610a5657604052565b7f4e487b71000000000000000000000000000000000000000000000000000000005f52604160045260245ffd5b60a0810190811067ffffffffffffffff821117610a5657604052565b6080810190811067ffffffffffffffff821117610a5657604052565b90601f7fffffffffffffffffffffffffffffffffffffffffffffffffffffffffffffffe0910116810190811067ffffffffffffffff821117610a5657604052565b359073ffffffffffffffffffffffffffffffffffffffff8216820361042c57565b35908160020b820361042c57565b67ffffffffffffffff8111610a5657601f017fffffffffffffffffffffffffffffffffffffffffffffffffffffffffffffffe01660200190565b81601f8201121561042c57803590610b7c82610b2b565b92610b8a6040519485610abb565b8284526020838301011161042c57815f926020809301838601378301015290565b3590811515820361042c57565b919082604091031261042c576020825192015190565b7f80000000000000000000000000000000000000000000000000000000000000008114610bfa575f0390565b7f4e487b71000000000000000000000000000000000000000000000000000000005f52601160045260245ffd5b9081602091031261042c5751801515810361042c5790565b9081602091031261042c575190565b919215610d115773ffffffffffffffffffffffffffffffffffffffff7f000000000000000000000000000000000000000000000000000000000000000016803b1561042c576040517ff5298aca00000000000000000000000000000000000000000000000000000000815273ffffffffffffffffffffffffffffffffffffffff92831660048201529290911660248301526044820192909252905f908290818381606481015b03925af1801561043057610d055750565b5f610d0f91610abb565b565b5f9173ffffffffffffffffffffffffffffffffffffffff1680610dde5750506020600492604051938480927f11da60b400000000000000000000000000000000000000000000000000000000825273ffffffffffffffffffffffffffffffffffffffff7f0000000000000000000000000000000000000000000000000000000000000000165af1908115610dd25750610da75750565b610dc89060203d602011610dcb575b610dc08183610abb565b810190610c3f565b50565b503d610db6565b604051903d90823e3d90fd5b909273ffffffffffffffffffffffffffffffffffffffff7f00000000000000000000000000000000000000000000000000000000000000001691823b1561042c576040517fa58411940000000000000000000000000000000000000000000000000000000081528160048201525f8160248183885af1801561043057610fe1575b50929391928492849073ffffffffffffffffffffffffffffffffffffffff81163014610f6e576040517f23b872dd00000000000000000000000000000000000000000000000000000000815273ffffffffffffffffffffffffffffffffffffffff9182166004820152911660248201526044810192909252909160209183916064918391905af18015610f6357916020918493610f36575b505b6004604051809581937f11da60b40000000000000000000000000000000000000000000000000000000083525af1908115610dd25750610da75750565b610f5590833d8511610f5c575b610f4d8183610abb565b810190610c27565b505f610ef7565b503d610f43565b6040513d85823e3d90fd5b5050604460209260405194859384927fa9059cbb00000000000000000000000000000000000000000000000000000000845288600485015260248401525af18015610f6357916020918493610fc4575b50610ef9565b610fda90833d8511610f5c57610f4d8183610abb565b505f610fbe565b83959394505f610ff091610abb565b5f939294610e5f565b9192156110a35773ffffffffffffffffffffffffffffffffffffffff7f000000000000000000000000000000000000000000000000000000000000000016803b1561042c576040517f156e29f600000000000000000000000000000000000000000000000000000000815273ffffffffffffffffffffffffffffffffffffffff92831660048201529290911660248301526044820192909252905f90829081838160648101610cf4565b9173ffffffffffffffffffffffffffffffffffffffff7f000000000000000000000000000000000000000000000000000000000000000016803b1561042c576040517f0b0d9c0900000000000000000000000000000000000000000000000000000000815273ffffffffffffffffffffffffffffffffffffffff938416600482015293909216602484015260448301525f90829081838160648101610cf456fea26469706673582212206b7d2ed7913b17c236a5b239d2b268cce2f2f3a3ae99ef76fc5a11f05ed0117464736f6c634300081a0033","opcodes":"PUSH1 0xA0 CALLVALUE PUSH1 0x97 JUMPI PUSH1 0x1F PUSH2 0x1229 CODESIZE DUP2 SWAP1 SUB SWAP2 DUP3 ADD PUSH1 0x1F NOT AND DUP4 ADD SWAP2 PUSH1 0x1 PUSH1 0x1 PUSH1 0x40 SHL SUB DUP4 GT DUP5 DUP5 LT OR PUSH1 0x9B JUMPI DUP1 DUP5 SWAP3 PUSH1 0x20 SWAP5 PUSH1 0x40 MSTORE DUP4 CODECOPY DUP2 ADD SUB SLT PUSH1 0x97 JUMPI MLOAD PUSH1 0x1 PUSH1 0x1 PUSH1 0xA0 SHL SUB DUP2 AND DUP2 SUB PUSH1 0x97 JUMPI PUSH1 0x80 MSTORE PUSH1 0x40 MLOAD PUSH2 0x1179 SWAP1 DUP2 PUSH2 0xB0 DUP3 CODECOPY PUSH1 0x80 MLOAD DUP2 DUP2 DUP2 PUSH2 0x35B ADD MSTORE DUP2 DUP2 PUSH2 0x4C0 ADD MSTORE DUP2 DUP2 PUSH2 0x9D3 ADD MSTORE DUP2 DUP2 PUSH2 0xC6C ADD MSTORE DUP2 DUP2 PUSH2 0xD76 ADD MSTORE DUP2 DUP2 PUSH2 0xDF7 ADD MSTORE DUP2 DUP2 PUSH2 0x1017 ADD MSTORE PUSH2 0x10BB ADD MSTORE RETURN JUMPDEST PUSH0 DUP1 REVERT JUMPDEST PUSH4 0x4E487B71 PUSH1 0xE0 SHL PUSH0 MSTORE PUSH1 0x41 PUSH1 0x4 MSTORE PUSH1 0x24 PUSH0 REVERT INVALID PUSH1 0x80 DUP1 PUSH1 0x40 MSTORE PUSH1 0x4 CALLDATASIZE LT ISZERO PUSH2 0x12 JUMPI PUSH0 DUP1 REVERT JUMPDEST PUSH0 CALLDATALOAD PUSH1 0xE0 SHR SWAP1 DUP2 PUSH4 0x481C6A75 EQ PUSH2 0x98B JUMPI POP DUP1 PUSH4 0x91DD7346 EQ PUSH2 0x43B JUMPI PUSH4 0x995431F6 EQ PUSH2 0x3D JUMPI PUSH0 DUP1 REVERT JUMPDEST CALLVALUE PUSH2 0x42C JUMPI PUSH32 0xFFFFFFFFFFFFFFFFFFFFFFFFFFFFFFFFFFFFFFFFFFFFFFFFFFFFFFFFFFFFFFFC CALLDATASIZE ADD PUSH2 0x180 DUP2 SLT PUSH2 0x42C JUMPI PUSH1 0xA0 SGT PUSH2 0x42C JUMPI PUSH1 0x40 MLOAD PUSH2 0x81 DUP2 PUSH2 0xA83 JUMP JUMPDEST PUSH1 0x4 CALLDATALOAD PUSH20 0xFFFFFFFFFFFFFFFFFFFFFFFFFFFFFFFFFFFFFFFF DUP2 AND DUP2 SUB PUSH2 0x42C JUMPI DUP2 MSTORE PUSH1 0x24 CALLDATALOAD PUSH20 0xFFFFFFFFFFFFFFFFFFFFFFFFFFFFFFFFFFFFFFFF DUP2 AND DUP2 SUB PUSH2 0x42C JUMPI PUSH1 0x20 DUP3 ADD MSTORE PUSH1 0x44 CALLDATALOAD PUSH3 0xFFFFFF DUP2 AND DUP2 SUB PUSH2 0x42C JUMPI PUSH1 0x40 DUP3 ADD MSTORE PUSH1 0x64 CALLDATALOAD DUP1 PUSH1 0x2 SIGNEXTEND DUP2 SUB PUSH2 0x42C JUMPI PUSH1 0x60 DUP3 ADD MSTORE PUSH1 0x84 CALLDATALOAD PUSH20 0xFFFFFFFFFFFFFFFFFFFFFFFFFFFFFFFFFFFFFFFF DUP2 AND DUP2 SUB PUSH2 0x42C JUMPI PUSH1 0x80 DUP3 ADD MSTORE PUSH1 0x80 PUSH32 0xFFFFFFFFFFFFFFFFFFFFFFFFFFFFFFFFFFFFFFFFFFFFFFFFFFFFFFFFFFFFFF5C CALLDATASIZE ADD SLT PUSH2 0x42C JUMPI PUSH1 0x40 MLOAD SWAP1 PUSH2 0x14A DUP3 PUSH2 0xA9F JUMP JUMPDEST PUSH1 0xA4 CALLDATALOAD DUP1 PUSH1 0x2 SIGNEXTEND DUP2 SUB PUSH2 0x42C JUMPI DUP3 MSTORE PUSH1 0xC4 CALLDATALOAD DUP1 PUSH1 0x2 SIGNEXTEND DUP2 SUB PUSH2 0x42C JUMPI PUSH1 0x20 DUP4 ADD MSTORE PUSH1 0xE4 CALLDATALOAD PUSH1 0x40 DUP4 ADD MSTORE PUSH2 0x104 CALLDATALOAD PUSH1 0x60 DUP4 ADD MSTORE PUSH2 0x124 CALLDATALOAD PUSH8 0xFFFFFFFFFFFFFFFF DUP2 GT PUSH2 0x42C JUMPI PUSH2 0x19D SWAP1 CALLDATASIZE SWAP1 PUSH1 0x4 ADD PUSH2 0xB65 JUMP JUMPDEST SWAP2 PUSH2 0x144 CALLDATALOAD SWAP3 DUP4 ISZERO ISZERO DUP1 SWAP5 SUB PUSH2 0x42C JUMPI PUSH2 0x164 CALLDATALOAD SWAP3 DUP4 ISZERO ISZERO DUP1 SWAP5 SUB PUSH2 0x42C JUMPI PUSH2 0x341 SWAP5 PUSH0 SWAP5 PUSH2 0x2C7 PUSH2 0x306 SWAP5 PUSH2 0x2B2 PUSH20 0xFFFFFFFFFFFFFFFFFFFFFFFFFFFFFFFFFFFFFFFF SWAP8 PUSH2 0x280 PUSH1 0x40 MLOAD SWAP8 PUSH2 0x1F2 DUP10 PUSH2 0xA3A JUMP JUMPDEST CALLER DUP10 MSTORE PUSH1 0x20 DUP10 ADD SWAP1 DUP2 MSTORE PUSH1 0x40 DUP10 ADD SWAP3 DUP4 MSTORE PUSH1 0x60 DUP10 ADD SWAP5 DUP6 MSTORE PUSH1 0x80 DUP10 ADD SWAP8 DUP9 MSTORE PUSH1 0xA0 DUP10 ADD SWAP7 DUP8 MSTORE PUSH1 0x40 MLOAD SWAP11 DUP12 SWAP10 PUSH1 0x20 DUP1 DUP13 ADD MSTORE MLOAD AND PUSH1 0x40 DUP11 ADD MSTORE MLOAD PUSH1 0x60 DUP10 ADD SWAP1 PUSH20 0xFFFFFFFFFFFFFFFFFFFFFFFFFFFFFFFFFFFFFFFF PUSH1 0x80 DUP1 SWAP3 DUP3 DUP2 MLOAD AND DUP6 MSTORE DUP3 PUSH1 0x20 DUP3 ADD MLOAD AND PUSH1 0x20 DUP7 ADD MSTORE PUSH3 0xFFFFFF PUSH1 0x40 DUP3 ADD MLOAD AND PUSH1 0x40 DUP7 ADD MSTORE PUSH1 0x60 DUP2 ADD MLOAD PUSH1 0x2 SIGNEXTEND PUSH1 0x60 DUP7 ADD MSTORE ADD MLOAD AND SWAP2 ADD MSTORE JUMP JUMPDEST MLOAD DUP1 MLOAD PUSH1 0x2 SWAP1 DUP2 SIGNEXTEND PUSH2 0x100 DUP10 ADD MSTORE PUSH1 0x20 DUP3 ADD MLOAD SWAP1 SIGNEXTEND PUSH2 0x120 DUP9 ADD MSTORE PUSH1 0x40 DUP2 ADD MLOAD PUSH2 0x140 DUP9 ADD MSTORE PUSH1 0x60 ADD MLOAD PUSH2 0x160 DUP8 ADD MSTORE JUMP JUMPDEST MLOAD PUSH2 0x1A0 PUSH2 0x180 DUP7 ADD MSTORE PUSH2 0x1E0 DUP6 ADD SWAP1 PUSH2 0x9F7 JUMP JUMPDEST SWAP2 MLOAD ISZERO ISZERO PUSH2 0x1A0 DUP5 ADD MSTORE MLOAD ISZERO ISZERO PUSH2 0x1C0 DUP4 ADD MSTORE SUB PUSH32 0xFFFFFFFFFFFFFFFFFFFFFFFFFFFFFFFFFFFFFFFFFFFFFFFFFFFFFFFFFFFFFFE0 DUP2 ADD DUP4 MSTORE DUP3 PUSH2 0xABB JUMP JUMPDEST PUSH1 0x40 MLOAD DUP1 SWAP4 DUP2 SWAP3 PUSH32 0x48C8949100000000000000000000000000000000000000000000000000000000 DUP4 MSTORE PUSH1 0x20 PUSH1 0x4 DUP5 ADD MSTORE PUSH1 0x24 DUP4 ADD SWAP1 PUSH2 0x9F7 JUMP JUMPDEST SUB DUP2 DUP4 PUSH20 0xFFFFFFFFFFFFFFFFFFFFFFFFFFFFFFFFFFFFFFFF PUSH32 0x0 AND GAS CALL SWAP1 DUP2 ISZERO PUSH2 0x430 JUMPI PUSH0 SWAP2 PUSH2 0x3AC JUMPI JUMPDEST PUSH1 0x40 PUSH2 0x3A0 DUP4 PUSH1 0x20 DUP1 DUP3 MLOAD DUP4 ADD ADD SWAP2 ADD PUSH2 0xBB8 JUMP JUMPDEST DUP3 MLOAD SWAP2 DUP3 MSTORE PUSH1 0x20 DUP3 ADD MSTORE RETURN JUMPDEST SWAP1 POP RETURNDATASIZE DUP1 PUSH0 DUP4 RETURNDATACOPY PUSH2 0x3BD DUP2 DUP4 PUSH2 0xABB JUMP JUMPDEST DUP2 ADD SWAP1 PUSH1 0x20 DUP2 DUP4 SUB SLT PUSH2 0x42C JUMPI DUP1 MLOAD SWAP1 PUSH8 0xFFFFFFFFFFFFFFFF DUP3 GT PUSH2 0x42C JUMPI ADD DUP2 PUSH1 0x1F DUP3 ADD SLT ISZERO PUSH2 0x42C JUMPI DUP1 MLOAD SWAP2 PUSH2 0x3F4 DUP4 PUSH2 0xB2B JUMP JUMPDEST SWAP1 PUSH2 0x402 PUSH1 0x40 MLOAD SWAP3 DUP4 PUSH2 0xABB JUMP JUMPDEST DUP4 DUP3 MSTORE PUSH1 0x20 DUP5 DUP5 ADD ADD GT PUSH2 0x42C JUMPI PUSH0 PUSH1 0x20 DUP5 PUSH1 0x40 SWAP6 DUP3 PUSH2 0x3A0 SWAP7 ADD DUP4 DUP7 ADD MCOPY DUP4 ADD ADD MSTORE SWAP2 POP PUSH2 0x38B JUMP JUMPDEST PUSH0 DUP1 REVERT JUMPDEST PUSH1 0x40 MLOAD RETURNDATASIZE PUSH0 DUP3 RETURNDATACOPY RETURNDATASIZE SWAP1 REVERT JUMPDEST CALLVALUE PUSH2 0x42C JUMPI PUSH1 0x20 PUSH32 0xFFFFFFFFFFFFFFFFFFFFFFFFFFFFFFFFFFFFFFFFFFFFFFFFFFFFFFFFFFFFFFFC CALLDATASIZE ADD SLT PUSH2 0x42C JUMPI PUSH1 0x4 CALLDATALOAD PUSH8 0xFFFFFFFFFFFFFFFF DUP2 GT PUSH2 0x42C JUMPI CALLDATASIZE PUSH1 0x23 DUP3 ADD SLT ISZERO PUSH2 0x42C JUMPI DUP1 PUSH1 0x4 ADD CALLDATALOAD PUSH8 0xFFFFFFFFFFFFFFFF DUP2 GT PUSH2 0x42C JUMPI DUP2 ADD SWAP1 PUSH1 0x24 DUP3 ADD CALLDATASIZE DUP2 GT PUSH2 0x42C JUMPI PUSH20 0xFFFFFFFFFFFFFFFFFFFFFFFFFFFFFFFFFFFFFFFF PUSH32 0x0 AND SWAP2 DUP3 CALLER SUB PUSH2 0x92D JUMPI PUSH1 0x20 DUP2 DUP6 SUB SLT PUSH2 0x42C JUMPI PUSH1 0x24 DUP2 ADD CALLDATALOAD SWAP1 PUSH8 0xFFFFFFFFFFFFFFFF DUP3 GT PUSH2 0x42C JUMPI ADD SWAP3 PUSH2 0x1A0 DUP5 DUP3 SUB SLT PUSH2 0x42C JUMPI PUSH1 0x40 MLOAD PUSH2 0x520 DUP2 PUSH2 0xA3A JUMP JUMPDEST PUSH2 0x52C PUSH1 0x24 DUP7 ADD PUSH2 0xAFC JUMP JUMPDEST DUP2 MSTORE PUSH1 0xA0 PUSH32 0xFFFFFFFFFFFFFFFFFFFFFFFFFFFFFFFFFFFFFFFFFFFFFFFFFFFFFFFFFFFFFFE0 DUP7 DUP5 SUB ADD SLT PUSH2 0x42C JUMPI PUSH1 0x40 MLOAD SWAP2 PUSH2 0x567 DUP4 PUSH2 0xA83 JUMP JUMPDEST PUSH2 0x573 PUSH1 0x44 DUP8 ADD PUSH2 0xAFC JUMP JUMPDEST DUP4 MSTORE PUSH2 0x581 PUSH1 0x64 DUP8 ADD PUSH2 0xAFC JUMP JUMPDEST PUSH1 0x20 DUP5 ADD MSTORE PUSH1 0x84 DUP7 ADD CALLDATALOAD PUSH3 0xFFFFFF DUP2 AND DUP2 SUB PUSH2 0x42C JUMPI PUSH32 0xFFFFFFFFFFFFFFFFFFFFFFFFFFFFFFFFFFFFFFFFFFFFFFFFFFFFFFFFFFFFFF1C DUP8 PUSH1 0x80 SWAP4 PUSH1 0x24 SWAP4 PUSH1 0x40 DUP9 ADD MSTORE PUSH2 0x5D0 PUSH1 0xA4 DUP4 ADD PUSH2 0xB1D JUMP JUMPDEST PUSH1 0x60 DUP9 ADD MSTORE PUSH2 0x5E1 PUSH1 0xC4 DUP4 ADD PUSH2 0xAFC JUMP JUMPDEST DUP6 DUP9 ADD MSTORE PUSH1 0x20 DUP7 ADD SWAP7 DUP8 MSTORE SUB ADD ADD SLT PUSH2 0x42C JUMPI PUSH1 0x40 MLOAD SWAP3 PUSH2 0x601 DUP5 PUSH2 0xA9F JUMP JUMPDEST PUSH2 0x60D PUSH1 0xE4 DUP8 ADD PUSH2 0xB1D JUMP JUMPDEST DUP5 MSTORE PUSH2 0x61C PUSH2 0x104 DUP8 ADD PUSH2 0xB1D JUMP JUMPDEST PUSH1 0x20 DUP6 ADD MSTORE PUSH2 0x124 DUP7 ADD CALLDATALOAD PUSH1 0x40 DUP6 ADD MSTORE PUSH2 0x144 DUP7 ADD CALLDATALOAD PUSH1 0x60 DUP6 ADD MSTORE PUSH1 0x40 DUP3 ADD SWAP4 DUP5 MSTORE PUSH2 0x164 DUP7 ADD CALLDATALOAD SWAP5 PUSH8 0xFFFFFFFFFFFFFFFF DUP7 GT PUSH2 0x42C JUMPI PUSH2 0x668 PUSH1 0x40 SWAP3 PUSH1 0x24 PUSH2 0x752 SWAP9 DUP11 ADD ADD PUSH2 0xB65 JUMP JUMPDEST SWAP1 DUP2 PUSH1 0x60 DUP6 ADD MSTORE PUSH2 0x724 PUSH0 PUSH2 0x694 PUSH2 0x1A4 PUSH2 0x686 PUSH2 0x184 DUP14 ADD PUSH2 0xBAB JUMP JUMPDEST SWAP12 PUSH1 0x80 DUP10 ADD SWAP13 DUP14 MSTORE ADD PUSH2 0xBAB JUMP JUMPDEST SWAP8 PUSH1 0xA0 DUP8 ADD SWAP9 DUP10 MSTORE PUSH2 0x766 DUP9 MLOAD SWAP2 MLOAD SWAP6 DUP8 MLOAD SWAP12 DUP13 SWAP8 DUP9 SWAP7 DUP8 SWAP6 PUSH32 0x5A6BCFDA00000000000000000000000000000000000000000000000000000000 DUP8 MSTORE PUSH1 0x4 DUP8 ADD SWAP1 PUSH20 0xFFFFFFFFFFFFFFFFFFFFFFFFFFFFFFFFFFFFFFFF PUSH1 0x80 DUP1 SWAP3 DUP3 DUP2 MLOAD AND DUP6 MSTORE DUP3 PUSH1 0x20 DUP3 ADD MLOAD AND PUSH1 0x20 DUP7 ADD MSTORE PUSH3 0xFFFFFF PUSH1 0x40 DUP3 ADD MLOAD AND PUSH1 0x40 DUP7 ADD MSTORE PUSH1 0x60 DUP2 ADD MLOAD PUSH1 0x2 SIGNEXTEND PUSH1 0x60 DUP7 ADD MSTORE ADD MLOAD AND SWAP2 ADD MSTORE JUMP JUMPDEST DUP1 MLOAD PUSH1 0x2 SWAP1 DUP2 SIGNEXTEND PUSH1 0xA4 DUP8 ADD MSTORE PUSH1 0x20 DUP3 ADD MLOAD SWAP1 SIGNEXTEND PUSH1 0xC4 DUP7 ADD MSTORE PUSH1 0x40 DUP2 ADD MLOAD PUSH1 0xE4 DUP7 ADD MSTORE PUSH1 0x60 ADD MLOAD PUSH2 0x104 DUP6 ADD MSTORE JUMP JUMPDEST PUSH2 0x140 PUSH2 0x124 DUP5 ADD MSTORE PUSH2 0x144 DUP4 ADD SWAP1 PUSH2 0x9F7 JUMP JUMPDEST SUB SWAP3 GAS CALL SWAP3 DUP4 ISZERO PUSH2 0x430 JUMPI PUSH2 0x7D8 SWAP6 PUSH0 SWAP6 PUSH0 SWAP6 PUSH2 0x8F5 JUMPI JUMPDEST POP SWAP1 DUP5 SWAP2 PUSH0 DUP8 SLT PUSH2 0x8A8 JUMPI JUMPDEST PUSH0 DUP4 SLT PUSH2 0x856 JUMPI JUMPDEST POP PUSH0 DUP7 SGT PUSH2 0x812 JUMPI JUMPDEST PUSH0 DUP3 SGT PUSH2 0x7DC JUMPI JUMPDEST POP POP POP POP PUSH1 0x40 MLOAD SWAP2 PUSH1 0x20 DUP4 ADD MSTORE PUSH1 0x40 DUP3 ADD MSTORE PUSH1 0x40 DUP2 MSTORE PUSH2 0x7C4 PUSH1 0x60 DUP3 PUSH2 0xABB JUMP JUMPDEST PUSH1 0x40 MLOAD SWAP2 DUP3 SWAP2 PUSH1 0x20 DUP4 MSTORE PUSH1 0x20 DUP4 ADD SWAP1 PUSH2 0x9F7 JUMP JUMPDEST SUB SWAP1 RETURN JUMPDEST PUSH20 0xFFFFFFFFFFFFFFFFFFFFFFFFFFFFFFFFFFFFFFFF DUP1 PUSH1 0x20 PUSH2 0x809 SWAP7 MLOAD ADD MLOAD AND SWAP4 MLOAD AND SWAP1 MLOAD ISZERO ISZERO SWAP3 PUSH2 0xFF9 JUMP JUMPDEST DUP4 DUP1 DUP3 DUP2 PUSH2 0x7A3 JUMP JUMPDEST PUSH2 0x851 PUSH20 0xFFFFFFFFFFFFFFFFFFFFFFFFFFFFFFFFFFFFFFFF DUP6 MLOAD MLOAD AND DUP8 PUSH20 0xFFFFFFFFFFFFFFFFFFFFFFFFFFFFFFFFFFFFFFFF DUP7 MLOAD AND DUP5 MLOAD ISZERO ISZERO SWAP3 PUSH2 0xFF9 JUMP JUMPDEST PUSH2 0x79B JUMP JUMPDEST PUSH2 0x8A2 SWAP1 PUSH20 0xFFFFFFFFFFFFFFFFFFFFFFFFFFFFFFFFFFFFFFFF PUSH1 0x20 DUP8 MLOAD ADD MLOAD AND SWAP1 PUSH20 0xFFFFFFFFFFFFFFFFFFFFFFFFFFFFFFFFFFFFFFFF DUP7 MLOAD AND PUSH2 0x898 DUP7 PUSH2 0xBCE JUMP JUMPDEST SWAP2 MLOAD ISZERO ISZERO SWAP3 PUSH2 0xC4E JUMP JUMPDEST DUP8 PUSH2 0x792 JUMP JUMPDEST PUSH2 0x8F0 PUSH20 0xFFFFFFFFFFFFFFFFFFFFFFFFFFFFFFFFFFFFFFFF DUP7 MLOAD MLOAD AND PUSH20 0xFFFFFFFFFFFFFFFFFFFFFFFFFFFFFFFFFFFFFFFF DUP7 MLOAD AND PUSH2 0x8E5 DUP11 PUSH2 0xBCE JUMP JUMPDEST SWAP1 DUP5 MLOAD ISZERO ISZERO SWAP3 PUSH2 0xC4E JUMP JUMPDEST PUSH2 0x78A JUMP JUMPDEST SWAP1 SWAP6 POP PUSH2 0x91B SWAP2 SWAP5 POP PUSH1 0x40 RETURNDATASIZE PUSH1 0x40 GT PUSH2 0x926 JUMPI JUMPDEST PUSH2 0x913 DUP2 DUP4 PUSH2 0xABB JUMP JUMPDEST DUP2 ADD SWAP1 PUSH2 0xBB8 JUMP JUMPDEST SWAP5 SWAP1 SWAP5 SWAP4 SWAP1 DUP8 PUSH2 0x77E JUMP JUMPDEST POP RETURNDATASIZE PUSH2 0x909 JUMP JUMPDEST PUSH1 0x64 PUSH1 0x40 MLOAD PUSH32 0x8C379A000000000000000000000000000000000000000000000000000000000 DUP2 MSTORE PUSH1 0x20 PUSH1 0x4 DUP3 ADD MSTORE PUSH1 0xC PUSH1 0x24 DUP3 ADD MSTORE PUSH32 0x6F6E6C79206D616E616765720000000000000000000000000000000000000000 PUSH1 0x44 DUP3 ADD MSTORE REVERT JUMPDEST CALLVALUE PUSH2 0x42C JUMPI PUSH0 PUSH32 0xFFFFFFFFFFFFFFFFFFFFFFFFFFFFFFFFFFFFFFFFFFFFFFFFFFFFFFFFFFFFFFFC CALLDATASIZE ADD SLT PUSH2 0x42C JUMPI PUSH1 0x20 SWAP1 PUSH20 0xFFFFFFFFFFFFFFFFFFFFFFFFFFFFFFFFFFFFFFFF PUSH32 0x0 AND DUP2 MSTORE RETURN JUMPDEST SWAP1 PUSH32 0xFFFFFFFFFFFFFFFFFFFFFFFFFFFFFFFFFFFFFFFFFFFFFFFFFFFFFFFFFFFFFFE0 PUSH1 0x1F PUSH1 0x20 DUP1 SWAP5 DUP1 MLOAD SWAP2 DUP3 SWAP2 DUP3 DUP8 MSTORE ADD DUP7 DUP7 ADD MCOPY PUSH0 DUP6 DUP3 DUP7 ADD ADD MSTORE ADD AND ADD ADD SWAP1 JUMP JUMPDEST PUSH1 0xC0 DUP2 ADD SWAP1 DUP2 LT PUSH8 0xFFFFFFFFFFFFFFFF DUP3 GT OR PUSH2 0xA56 JUMPI PUSH1 0x40 MSTORE JUMP JUMPDEST PUSH32 0x4E487B7100000000000000000000000000000000000000000000000000000000 PUSH0 MSTORE PUSH1 0x41 PUSH1 0x4 MSTORE PUSH1 0x24 PUSH0 REVERT JUMPDEST PUSH1 0xA0 DUP2 ADD SWAP1 DUP2 LT PUSH8 0xFFFFFFFFFFFFFFFF DUP3 GT OR PUSH2 0xA56 JUMPI PUSH1 0x40 MSTORE JUMP JUMPDEST PUSH1 0x80 DUP2 ADD SWAP1 DUP2 LT PUSH8 0xFFFFFFFFFFFFFFFF DUP3 GT OR PUSH2 0xA56 JUMPI PUSH1 0x40 MSTORE JUMP JUMPDEST SWAP1 PUSH1 0x1F PUSH32 0xFFFFFFFFFFFFFFFFFFFFFFFFFFFFFFFFFFFFFFFFFFFFFFFFFFFFFFFFFFFFFFE0 SWAP2 ADD AND DUP2 ADD SWAP1 DUP2 LT PUSH8 0xFFFFFFFFFFFFFFFF DUP3 GT OR PUSH2 0xA56 JUMPI PUSH1 0x40 MSTORE JUMP JUMPDEST CALLDATALOAD SWAP1 PUSH20 0xFFFFFFFFFFFFFFFFFFFFFFFFFFFFFFFFFFFFFFFF DUP3 AND DUP3 SUB PUSH2 0x42C JUMPI JUMP JUMPDEST CALLDATALOAD SWAP1 DUP2 PUSH1 0x2 SIGNEXTEND DUP3 SUB PUSH2 0x42C JUMPI JUMP JUMPDEST PUSH8 0xFFFFFFFFFFFFFFFF DUP2 GT PUSH2 0xA56 JUMPI PUSH1 0x1F ADD PUSH32 0xFFFFFFFFFFFFFFFFFFFFFFFFFFFFFFFFFFFFFFFFFFFFFFFFFFFFFFFFFFFFFFE0 AND PUSH1 0x20 ADD SWAP1 JUMP JUMPDEST DUP2 PUSH1 0x1F DUP3 ADD SLT ISZERO PUSH2 0x42C JUMPI DUP1 CALLDATALOAD SWAP1 PUSH2 0xB7C DUP3 PUSH2 0xB2B JUMP JUMPDEST SWAP3 PUSH2 0xB8A PUSH1 0x40 MLOAD SWAP5 DUP6 PUSH2 0xABB JUMP JUMPDEST DUP3 DUP5 MSTORE PUSH1 0x20 DUP4 DUP4 ADD ADD GT PUSH2 0x42C JUMPI DUP2 PUSH0 SWAP3 PUSH1 0x20 DUP1 SWAP4 ADD DUP4 DUP7 ADD CALLDATACOPY DUP4 ADD ADD MSTORE SWAP1 JUMP JUMPDEST CALLDATALOAD SWAP1 DUP2 ISZERO ISZERO DUP3 SUB PUSH2 0x42C JUMPI JUMP JUMPDEST SWAP2 SWAP1 DUP3 PUSH1 0x40 SWAP2 SUB SLT PUSH2 0x42C JUMPI PUSH1 0x20 DUP3 MLOAD SWAP3 ADD MLOAD SWAP1 JUMP JUMPDEST PUSH32 0x8000000000000000000000000000000000000000000000000000000000000000 DUP2 EQ PUSH2 0xBFA JUMPI PUSH0 SUB SWAP1 JUMP JUMPDEST PUSH32 0x4E487B7100000000000000000000000000000000000000000000000000000000 PUSH0 MSTORE PUSH1 0x11 PUSH1 0x4 MSTORE PUSH1 0x24 PUSH0 REVERT JUMPDEST SWAP1 DUP2 PUSH1 0x20 SWAP2 SUB SLT PUSH2 0x42C JUMPI MLOAD DUP1 ISZERO ISZERO DUP2 SUB PUSH2 0x42C JUMPI SWAP1 JUMP JUMPDEST SWAP1 DUP2 PUSH1 0x20 SWAP2 SUB SLT PUSH2 0x42C JUMPI MLOAD SWAP1 JUMP JUMPDEST SWAP2 SWAP3 ISZERO PUSH2 0xD11 JUMPI PUSH20 0xFFFFFFFFFFFFFFFFFFFFFFFFFFFFFFFFFFFFFFFF PUSH32 0x0 AND DUP1 EXTCODESIZE ISZERO PUSH2 0x42C JUMPI PUSH1 0x40 MLOAD PUSH32 0xF5298ACA00000000000000000000000000000000000000000000000000000000 DUP2 MSTORE PUSH20 0xFFFFFFFFFFFFFFFFFFFFFFFFFFFFFFFFFFFFFFFF SWAP3 DUP4 AND PUSH1 0x4 DUP3 ADD MSTORE SWAP3 SWAP1 SWAP2 AND PUSH1 0x24 DUP4 ADD MSTORE PUSH1 0x44 DUP3 ADD SWAP3 SWAP1 SWAP3 MSTORE SWAP1 PUSH0 SWAP1 DUP3 SWAP1 DUP2 DUP4 DUP2 PUSH1 0x64 DUP2 ADD JUMPDEST SUB SWAP3 GAS CALL DUP1 ISZERO PUSH2 0x430 JUMPI PUSH2 0xD05 JUMPI POP JUMP JUMPDEST PUSH0 PUSH2 0xD0F SWAP2 PUSH2 0xABB JUMP JUMPDEST JUMP JUMPDEST PUSH0 SWAP2 PUSH20 0xFFFFFFFFFFFFFFFFFFFFFFFFFFFFFFFFFFFFFFFF AND DUP1 PUSH2 0xDDE JUMPI POP POP PUSH1 0x20 PUSH1 0x4 SWAP3 PUSH1 0x40 MLOAD SWAP4 DUP5 DUP1 SWAP3 PUSH32 0x11DA60B400000000000000000000000000000000000000000000000000000000 DUP3 MSTORE PUSH20 0xFFFFFFFFFFFFFFFFFFFFFFFFFFFFFFFFFFFFFFFF PUSH32 0x0 AND GAS CALL SWAP1 DUP2 ISZERO PUSH2 0xDD2 JUMPI POP PUSH2 0xDA7 JUMPI POP JUMP JUMPDEST PUSH2 0xDC8 SWAP1 PUSH1 0x20 RETURNDATASIZE PUSH1 0x20 GT PUSH2 0xDCB JUMPI JUMPDEST PUSH2 0xDC0 DUP2 DUP4 PUSH2 0xABB JUMP JUMPDEST DUP2 ADD SWAP1 PUSH2 0xC3F JUMP JUMPDEST POP JUMP JUMPDEST POP RETURNDATASIZE PUSH2 0xDB6 JUMP JUMPDEST PUSH1 0x40 MLOAD SWAP1 RETURNDATASIZE SWAP1 DUP3 RETURNDATACOPY RETURNDATASIZE SWAP1 REVERT JUMPDEST SWAP1 SWAP3 PUSH20 0xFFFFFFFFFFFFFFFFFFFFFFFFFFFFFFFFFFFFFFFF PUSH32 0x0 AND SWAP2 DUP3 EXTCODESIZE ISZERO PUSH2 0x42C JUMPI PUSH1 0x40 MLOAD PUSH32 0xA584119400000000000000000000000000000000000000000000000000000000 DUP2 MSTORE DUP2 PUSH1 0x4 DUP3 ADD MSTORE PUSH0 DUP2 PUSH1 0x24 DUP2 DUP4 DUP9 GAS CALL DUP1 ISZERO PUSH2 0x430 JUMPI PUSH2 0xFE1 JUMPI JUMPDEST POP SWAP3 SWAP4 SWAP2 SWAP3 DUP5 SWAP3 DUP5 SWAP1 PUSH20 0xFFFFFFFFFFFFFFFFFFFFFFFFFFFFFFFFFFFFFFFF DUP2 AND ADDRESS EQ PUSH2 0xF6E JUMPI PUSH1 0x40 MLOAD PUSH32 0x23B872DD00000000000000000000000000000000000000000000000000000000 DUP2 MSTORE PUSH20 0xFFFFFFFFFFFFFFFFFFFFFFFFFFFFFFFFFFFFFFFF SWAP2 DUP3 AND PUSH1 0x4 DUP3 ADD MSTORE SWAP2 AND PUSH1 0x24 DUP3 ADD MSTORE PUSH1 0x44 DUP2 ADD SWAP3 SWAP1 SWAP3 MSTORE SWAP1 SWAP2 PUSH1 0x20 SWAP2 DUP4 SWAP2 PUSH1 0x64 SWAP2 DUP4 SWAP2 SWAP1 GAS CALL DUP1 ISZERO PUSH2 0xF63 JUMPI SWAP2 PUSH1 0x20 SWAP2 DUP5 SWAP4 PUSH2 0xF36 JUMPI JUMPDEST POP JUMPDEST PUSH1 0x4 PUSH1 0x40 MLOAD DUP1 SWAP6 DUP2 SWAP4 PUSH32 0x11DA60B400000000000000000000000000000000000000000000000000000000 DUP4 MSTORE GAS CALL SWAP1 DUP2 ISZERO PUSH2 0xDD2 JUMPI POP PUSH2 0xDA7 JUMPI POP JUMP JUMPDEST PUSH2 0xF55 SWAP1 DUP4 RETURNDATASIZE DUP6 GT PUSH2 0xF5C JUMPI JUMPDEST PUSH2 0xF4D DUP2 DUP4 PUSH2 0xABB JUMP JUMPDEST DUP2 ADD SWAP1 PUSH2 0xC27 JUMP JUMPDEST POP PUSH0 PUSH2 0xEF7 JUMP JUMPDEST POP RETURNDATASIZE PUSH2 0xF43 JUMP JUMPDEST PUSH1 0x40 MLOAD RETURNDATASIZE DUP6 DUP3 RETURNDATACOPY RETURNDATASIZE SWAP1 REVERT JUMPDEST POP POP PUSH1 0x44 PUSH1 0x20 SWAP3 PUSH1 0x40 MLOAD SWAP5 DUP6 SWAP4 DUP5 SWAP3 PUSH32 0xA9059CBB00000000000000000000000000000000000000000000000000000000 DUP5 MSTORE DUP9 PUSH1 0x4 DUP6 ADD MSTORE PUSH1 0x24 DUP5 ADD MSTORE GAS CALL DUP1 ISZERO PUSH2 0xF63 JUMPI SWAP2 PUSH1 0x20 SWAP2 DUP5 SWAP4 PUSH2 0xFC4 JUMPI JUMPDEST POP PUSH2 0xEF9 JUMP JUMPDEST PUSH2 0xFDA SWAP1 DUP4 RETURNDATASIZE DUP6 GT PUSH2 0xF5C JUMPI PUSH2 0xF4D DUP2 DUP4 PUSH2 0xABB JUMP JUMPDEST POP PUSH0 PUSH2 0xFBE JUMP JUMPDEST DUP4 SWAP6 SWAP4 SWAP5 POP PUSH0 PUSH2 0xFF0 SWAP2 PUSH2 0xABB JUMP JUMPDEST PUSH0 SWAP4 SWAP3 SWAP5 PUSH2 0xE5F JUMP JUMPDEST SWAP2 SWAP3 ISZERO PUSH2 0x10A3 JUMPI PUSH20 0xFFFFFFFFFFFFFFFFFFFFFFFFFFFFFFFFFFFFFFFF PUSH32 0x0 AND DUP1 EXTCODESIZE ISZERO PUSH2 0x42C JUMPI PUSH1 0x40 MLOAD PUSH32 0x156E29F600000000000000000000000000000000000000000000000000000000 DUP2 MSTORE PUSH20 0xFFFFFFFFFFFFFFFFFFFFFFFFFFFFFFFFFFFFFFFF SWAP3 DUP4 AND PUSH1 0x4 DUP3 ADD MSTORE SWAP3 SWAP1 SWAP2 AND PUSH1 0x24 DUP4 ADD MSTORE PUSH1 0x44 DUP3 ADD SWAP3 SWAP1 SWAP3 MSTORE SWAP1 PUSH0 SWAP1 DUP3 SWAP1 DUP2 DUP4 DUP2 PUSH1 0x64 DUP2 ADD PUSH2 0xCF4 JUMP JUMPDEST SWAP2 PUSH20 0xFFFFFFFFFFFFFFFFFFFFFFFFFFFFFFFFFFFFFFFF PUSH32 0x0 AND DUP1 EXTCODESIZE ISZERO PUSH2 0x42C JUMPI PUSH1 0x40 MLOAD PUSH32 0xB0D9C0900000000000000000000000000000000000000000000000000000000 DUP2 MSTORE PUSH20 0xFFFFFFFFFFFFFFFFFFFFFFFFFFFFFFFFFFFFFFFF SWAP4 DUP5 AND PUSH1 0x4 DUP3 ADD MSTORE SWAP4 SWAP1 SWAP3 AND PUSH1 0x24 DUP5 ADD MSTORE PUSH1 0x44 DUP4 ADD MSTORE PUSH0 SWAP1 DUP3 SWAP1 DUP2 DUP4 DUP2 PUSH1 0x64 DUP2 ADD PUSH2 0xCF4 JUMP INVALID LOG2 PUSH5 0x6970667358 0x22 SLT KECCAK256 PUSH12 0x7D2ED7913B17C236A5B239D2 0xB2 PUSH9 0xCCE2F2F3A3AE99EF76 0xFC GAS GT CREATE MCOPY 0xD0 GT PUSH21 0x64736F6C634300081A003300000000000000000000 "},"methodIdentifiers":{"manager()":"481c6a75","run((address,address,uint24,int24,address),(int24,int24,int256,bytes32),bytes,bool,bool)":"995431f6","unlockCallback(bytes)":"91dd7346"}}}}}