{"src/deploy/types/BalanceDelta.sol":{"BalanceDeltaLibrary":{"abi":[{"inputs":[],"name":"ZERO_DELTA","outputs":[{"internalType":"BalanceDelta","name":"","type":"int256"}],"stateMutability":"view","type":"function"}],"evm":{"bytecode":{"linkReferences":{},"object":"60808060405234601757608d9081601c823930815050f35b5f80fdfe60808060405260043610156011575f80fd5b5f3560e01c6391cb4669146023575f80fd5b5f7ffffffffffffffffffffffffffffffffffffffffffffffffffffffffffffffffc360112605357805f60209252f35b5f80fdfea26469706673582212203dca4362c56f91fd538cd22b2b7dea0aa9c071c8595628c519c35eae9eacecf064736f6c634300081a0033","opcodes":"PUSH1 0x80 DUP1 PUSH1 0x40 MSTORE CALLVALUE PUSH1 0x17 JUMPI PUSH1 0x8D SWAP1 DUP2 PUSH1 0x1C DUP3 CODECOPY ADDRESS DUP2 POP POP RETURN JUMPDEST PUSH0 DUP1 REVERT INVALID PUSH1 0x80 DUP1 PUSH1 0x40 MSTORE PUSH1 0x4 CALLDATASIZE LT ISZERO PUSH1 0x11 JUMPI PUSH0 DUP1 REVERT JUMPDEST PUSH0 CALLDATALOAD PUSH1 0xE0 SHR PUSH4 0x91CB4669 EQ PUSH1 0x23 JUMPI PUSH0 DUP1 REVERT JUMPDEST PUSH0 PUSH32 0xFFFFFFFFFFFFFFFFFFFFFFFFFFFFFFFFFFFFFFFFFFFFFFFFFFFFFFFFFFFFFFFC CALLDATASIZE ADD SLT PUSH1 0x53 JUMPI DUP1 PUSH0 PUSH1 0x20 SWAP3 MSTORE RETURN JUMPDEST PUSH0 DUP1 REVERT INVALID LOG2 PUSH5 0x6970667358 0x22 SLT KECCAK256 RETURNDATASIZE 0xCA NUMBER PUSH3 0xC56F91 REVERT MSTORE8 DUP13 0xD2 0x2B 0x2B PUSH30 0xEA0AA9C071C8595628C519C35EAE9EACECF064736F6C634300081A003300 "},"methodIdentifiers":{"ZERO_DELTA()":"91cb4669"}}}}}