{"src/deploy/libraries/StateLibrary.sol":{"StateLibrary":{"abi":[{"inputs":[],"name":"FEE_GROWTH_GLOBAL0_OFFSET","outputs":[{"internalType":"uint256","name":"","type":"uint256"}],"stateMutability":"view","type":"function"},{"inputs":[],"name":"LIQUIDITY_OFFSET","outputs":[{"internalType":"uint256","name":"","type":"uint256"}],"stateMutability":"view","type":"function"},{"inputs":[],"name":"POOLS_SLOT","outputs":[{"internalType":"bytes32","name":"","type":"bytes32"}],"stateMutability":"view","type":"function"},{"inputs":[],"name":"POSITIONS_OFFSET","outputs":[{"internalType":"uint256","name":"","type":"uint256"}],"stateMutability":"view","type":"function"},{"inputs":[],"name":"TICKS_OFFSET","outputs":[{"internalType":"uint256","name":"","type":"uint256"}],"stateMutability":"view","type":"function"},{"inputs":[],"name":"TICK_BITMAP_OFFSET","outputs":[{"internalType":"uint256","name":"","type":"uint256"}],"stateMutability":"view","type":"function"}],"evm":{"bytecode":{"linkReferences":{},"object":"608080604052346019576101ce908161001e823930815050f35b5f80fdfe6080806040526004361015610012575f80fd5b5f3560e01c9081632ba31c53146101665750806357eb1da714610132578063769323e3146100fe5780637d35604a146100ca578063b432004a146100965763ca24e3b51461005e575f80fd5b5f7ffffffffffffffffffffffffffffffffffffffffffffffffffffffffffffffffc36011261009257602060405160018152f35b5f80fd5b5f7ffffffffffffffffffffffffffffffffffffffffffffffffffffffffffffffffc36011261009257602060405160038152f35b5f7ffffffffffffffffffffffffffffffffffffffffffffffffffffffffffffffffc36011261009257602060405160058152f35b5f7ffffffffffffffffffffffffffffffffffffffffffffffffffffffffffffffffc36011261009257602060405160048152f35b5f7ffffffffffffffffffffffffffffffffffffffffffffffffffffffffffffffffc36011261009257602060405160068152f35b5f7ffffffffffffffffffffffffffffffffffffffffffffffffffffffffffffffffc3601126100925780600660209252f3fea26469706673582212209496326ceefa9b4fecdf0ec412ddb8a7e1fadc00f649332f5ac4b694b7e03ece64736f6c634300081a0033","opcodes":"PUSH1 0x80 DUP1 PUSH1 0x40 MSTORE CALLVALUE PUSH1 0x19 JUMPI PUSH2 0x1CE SWAP1 DUP2 PUSH2 0x1E DUP3 CODECOPY ADDRESS DUP2 POP POP RETURN JUMPDEST PUSH0 DUP1 REVERT INVALID PUSH1 0x80 DUP1 PUSH1 0x40 MSTORE PUSH1 0x4 CALLDATASIZE LT ISZERO PUSH2 0x12 JUMPI PUSH0 DUP1 REVERT JUMPDEST PUSH0 CALLDATALOAD PUSH1 0xE0 SHR SWAP1 DUP2 PUSH4 0x2BA31C53 EQ PUSH2 0x166 JUMPI POP DUP1 PUSH4 0x57EB1DA7 EQ PUSH2 0x132 JUMPI DUP1 PUSH4 0x769323E3 EQ PUSH2 0xFE JUMPI DUP1 PUSH4 0x7D35604A EQ PUSH2 0xCA JUMPI DUP1 PUSH4 0xB432004A EQ PUSH2 0x96 JUMPI PUSH4 0xCA24E3B5 EQ PUSH2 0x5E JUMPI PUSH0 DUP1 REVERT JUMPDEST PUSH0 PUSH32 0xFFFFFFFFFFFFFFFFFFFFFFFFFFFFFFFFFFFFFFFFFFFFFFFFFFFFFFFFFFFFFFFC CALLDATASIZE ADD SLT PUSH2 0x92 JUMPI PUSH1 0x20 PUSH1 0x40 MLOAD PUSH1 0x1 DUP2 MSTORE RETURN JUMPDEST PUSH0 DUP1 REVERT JUMPDEST PUSH0 PUSH32 0xFFFFFFFFFFFFFFFFFFFFFFFFFFFFFFFFFFFFFFFFFFFFFFFFFFFFFFFFFFFFFFFC CALLDATASIZE ADD SLT PUSH2 0x92 JUMPI PUSH1 0x20 PUSH1 0x40 MLOAD PUSH1 0x3 DUP2 MSTORE RETURN JUMPDEST PUSH0 PUSH32 0xFFFFFFFFFFFFFFFFFFFFFFFFFFFFFFFFFFFFFFFFFFFFFFFFFFFFFFFFFFFFFFFC CALLDATASIZE ADD SLT PUSH2 0x92 JUMPI PUSH1 0x20 PUSH1 0x40 MLOAD PUSH1 0x5 DUP2 MSTORE RETURN JUMPDEST PUSH0 PUSH32 0xFFFFFFFFFFFFFFFFFFFFFFFFFFFFFFFFFFFFFFFFFFFFFFFFFFFFFFFFFFFFFFFC CALLDATASIZE ADD SLT PUSH2 0x92 JUMPI PUSH1 0x20 PUSH1 0x40 MLOAD PUSH1 0x4 DUP2 MSTORE RETURN JUMPDEST PUSH0 PUSH32 0xFFFFFFFFFFFFFFFFFFFFFFFFFFFFFFFFFFFFFFFFFFFFFFFFFFFFFFFFFFFFFFFC CALLDATASIZE ADD SLT PUSH2 0x92 JUMPI PUSH1 0x20 PUSH1 0x40 MLOAD PUSH1 0x6 DUP2 MSTORE RETURN JUMPDEST PUSH0 PUSH32 0xFFFFFFFFFFFFFFFFFFFFFFFFFFFFFFFFFFFFFFFFFFFFFFFFFFFFFFFFFFFFFFFC CALLDATASIZE ADD SLT PUSH2 0x92 JUMPI DUP1 PUSH1 0x6 PUSH1 0x20 SWAP3 MSTORE RETURN INVALID LOG2 PUSH5 0x6970667358 0x22 SLT KECCAK256 SWAP5 SWAP7 ORIGIN PUSH13 0xEEFA9B4FECDF0EC412DDB8A7E1 STATICCALL 0xDC STOP 0xF6 BLOBHASH CALLER 0x2F GAS 0xC4 0xB6 SWAP5 0xB7 0xE0 RETURNDATACOPY 0xCE PUSH5 0x736F6C6343 STOP ADDMOD BYTE STOP CALLER "},"methodIdentifiers":{"FEE_GROWTH_GLOBAL0_OFFSET()":"ca24e3b5","LIQUIDITY_OFFSET()":"b432004a","POOLS_SLOT()":"57eb1da7","POSITIONS_OFFSET()":"2ba31c53","TICKS_OFFSET()":"769323e3","TICK_BITMAP_OFFSET()":"7d35604a"}}}}}