{"src/deploy/libraries/ProtocolFeeLibrary.sol":{"ProtocolFeeLibrary":{"abi":[{"inputs":[],"name":"MAX_PROTOCOL_FEE","outputs":[{"internalType":"uint16","name":"","type":"uint16"}],"stateMutability":"view","type":"function"}],"evm":{"bytecode":{"linkReferences":{},"object":"60808060405234601757608f9081601c823930815050f35b5f80fdfe60808060405260043610156011575f80fd5b5f3560e01c63b8ca3b83146023575f80fd5b5f7ffffffffffffffffffffffffffffffffffffffffffffffffffffffffffffffffc360112605557806103e860209252f35b5f80fdfea264697066735822122050b4cb7a78aecc0cb39c77cadee29bdaa7c34a13f254ac3e0a72457dc27000b164736f6c634300081a0033","opcodes":"PUSH1 0x80 DUP1 PUSH1 0x40 MSTORE CALLVALUE PUSH1 0x17 JUMPI PUSH1 0x8F SWAP1 DUP2 PUSH1 0x1C DUP3 CODECOPY ADDRESS DUP2 POP POP RETURN JUMPDEST PUSH0 DUP1 REVERT INVALID PUSH1 0x80 DUP1 PUSH1 0x40 MSTORE PUSH1 0x4 CALLDATASIZE LT ISZERO PUSH1 0x11 JUMPI PUSH0 DUP1 REVERT JUMPDEST PUSH0 CALLDATALOAD PUSH1 0xE0 SHR PUSH4 0xB8CA3B83 EQ PUSH1 0x23 JUMPI PUSH0 DUP1 REVERT JUMPDEST PUSH0 PUSH32 0xFFFFFFFFFFFFFFFFFFFFFFFFFFFFFFFFFFFFFFFFFFFFFFFFFFFFFFFFFFFFFFFC CALLDATASIZE ADD SLT PUSH1 0x55 JUMPI DUP1 PUSH2 0x3E8 PUSH1 0x20 SWAP3 MSTORE RETURN JUMPDEST PUSH0 DUP1 REVERT INVALID LOG2 PUSH5 0x6970667358 0x22 SLT KECCAK256 POP 0xB4 0xCB PUSH27 0x78AECC0CB39C77CADEE29BDAA7C34A13F254AC3E0A72457DC27000 0xB1 PUSH5 0x736F6C6343 STOP ADDMOD BYTE STOP CALLER "},"methodIdentifiers":{"MAX_PROTOCOL_FEE()":"b8ca3b83"}}}}}