{"src/deploy/PoolManager.sol":{"PoolManager":{"abi":[{"inputs":[{"internalType":"address","name":"initialOwner","type":"address"}],"stateMutability":"nonpayable","type":"constructor"},{"inputs":[],"name":"AlreadyUnlocked","type":"error"},{"inputs":[{"internalType":"address","name":"currency0","type":"address"},{"internalType":"address","name":"currency1","type":"address"}],"name":"CurrenciesOutOfOrderOrEqual","type":"error"},{"inputs":[],"name":"CurrencyNotSettled","type":"error"},{"inputs":[],"name":"DelegateCallNotAllowed","type":"error"},{"inputs":[],"name":"InvalidCaller","type":"error"},{"inputs":[],"name":"ManagerLocked","type":"error"},{"inputs":[],"name":"MustClearExactPositiveDelta","type":"error"},{"inputs":[],"name":"NonzeroNativeValue","type":"error"},{"inputs":[],"name":"PoolNotInitialized","type":"error"},{"inputs":[],"name":"ProtocolFeeCurrencySynced","type":"error"},{"inputs":[{"internalType":"uint24","name":"fee","type":"uint24"}],"name":"ProtocolFeeTooLarge","type":"error"},{"inputs":[],"name":"SwapAmountCannotBeZero","type":"error"},{"inputs":[{"internalType":"int24","name":"tickSpacing","type":"int24"}],"name":"TickSpacingTooLarge","type":"error"},{"inputs":[{"internalType":"int24","name":"tickSpacing","type":"int24"}],"name":"TickSpacingTooSmall","type":"error"},{"inputs":[],"name":"UnauthorizedDynamicLPFeeUpdate","type":"error"},{"anonymous":false,"inputs":[{"indexed":true,"internalType":"address","name":"owner","type":"address"},{"indexed":true,"internalType":"address","name":"spender","type":"address"},{"indexed":true,"internalType":"uint256","name":"id","type":"uint256"},{"indexed":false,"internalType":"uint256","name":"amount","type":"uint256"}],"name":"Approval","type":"event"},{"anonymous":false,"inputs":[{"indexed":true,"internalType":"PoolId","name":"id","type":"bytes32"},{"indexed":true,"internalType":"address","name":"sender","type":"address"},{"indexed":false,"internalType":"uint256","name":"amount0","type":"uint256"},{"indexed":false,"internalType":"uint256","name":"amount1","type":"uint256"}],"name":"Donate","type":"event"},{"anonymous":false,"inputs":[{"indexed":true,"internalType":"PoolId","name":"id","type":"bytes32"},{"indexed":true,"internalType":"Currency","name":"currency0","type":"address"},{"indexed":true,"internalType":"Currency","name":"currency1","type":"address"},{"indexed":false,"internalType":"uint24","name":"fee","type":"uint24"},{"indexed":false,"internalType":"int24","name":"tickSpacing","type":"int24"},{"indexed":false,"internalType":"contract IHooks","name":"hooks","type":"address"},{"indexed":false,"internalType":"uint160","name":"sqrtPriceX96","type":"uint160"},{"indexed":false,"internalType":"int24","name":"tick","type":"int24"}],"name":"Initialize","type":"event"},{"anonymous":false,"inputs":[{"indexed":true,"internalType":"PoolId","name":"id","type":"bytes32"},{"indexed":true,"internalType":"address","name":"sender","type":"address"},{"indexed":false,"internalType":"int24","name":"tickLower","type":"int24"},{"indexed":false,"internalType":"int24","name":"tickUpper","type":"int24"},{"indexed":false,"internalType":"int256","name":"liquidityDelta","type":"int256"},{"indexed":false,"internalType":"bytes32","name":"salt","type":"bytes32"}],"name":"ModifyLiquidity","type":"event"},{"anonymous":false,"inputs":[{"indexed":true,"internalType":"address","name":"owner","type":"address"},{"indexed":true,"internalType":"address","name":"operator","type":"address"},{"indexed":false,"internalType":"bool","name":"approved","type":"bool"}],"name":"OperatorSet","type":"event"},{"anonymous":false,"inputs":[{"indexed":true,"internalType":"address","name":"user","type":"address"},{"indexed":true,"internalType":"address","name":"newOwner","type":"address"}],"name":"OwnershipTransferred","type":"event"},{"anonymous":false,"inputs":[{"indexed":true,"internalType":"address","name":"protocolFeeController","type":"address"}],"name":"ProtocolFeeControllerUpdated","type":"event"},{"anonymous":false,"inputs":[{"indexed":true,"internalType":"PoolId","name":"id","type":"bytes32"},{"indexed":false,"internalType":"uint24","name":"protocolFee","type":"uint24"}],"name":"ProtocolFeeUpdated","type":"event"},{"anonymous":false,"inputs":[{"indexed":true,"internalType":"PoolId","name":"id","type":"bytes32"},{"indexed":true,"internalType":"address","name":"sender","type":"address"},{"indexed":false,"internalType":"int128","name":"amount0","type":"int128"},{"indexed":false,"internalType":"int128","name":"amount1","type":"int128"},{"indexed":false,"internalType":"uint160","name":"sqrtPriceX96","type":"uint160"},{"indexed":false,"internalType":"uint128","name":"liquidity","type":"uint128"},{"indexed":false,"internalType":"int24","name":"tick","type":"int24"},{"indexed":false,"internalType":"uint24","name":"fee","type":"uint24"}],"name":"Swap","type":"event"},{"anonymous":false,"inputs":[{"indexed":false,"internalType":"address","name":"caller","type":"address"},{"indexed":true,"internalType":"address","name":"from","type":"address"},{"indexed":true,"internalType":"address","name":"to","type":"address"},{"indexed":true,"internalType":"uint256","name":"id","type":"uint256"},{"indexed":false,"internalType":"uint256","name":"amount","type":"uint256"}],"name":"Transfer","type":"event"},{"inputs":[{"internalType":"address","name":"owner","type":"address"},{"internalType":"address","name":"spender","type":"address"},{"internalType":"uint256","name":"id","type":"uint256"}],"name":"allowance","outputs":[{"internalType":"uint256","name":"amount","type":"uint256"}],"stateMutability":"view","type":"function"},{"inputs":[{"internalType":"address","name":"spender","type":"address"},{"internalType":"uint256","name":"id","type":"uint256"},{"internalType":"uint256","name":"amount","type":"uint256"}],"name":"approve","outputs":[{"internalType":"bool","name":"","type":"bool"}],"stateMutability":"nonpayable","type":"function"},{"inputs":[{"internalType":"address","name":"owner","type":"address"},{"internalType":"uint256","name":"id","type":"uint256"}],"name":"balanceOf","outputs":[{"internalType":"uint256","name":"balance","type":"uint256"}],"stateMutability":"view","type":"function"},{"inputs":[{"internalType":"address","name":"from","type":"address"},{"internalType":"uint256","name":"id","type":"uint256"},{"internalType":"uint256","name":"amount","type":"uint256"}],"name":"burn","outputs":[],"stateMutability":"nonpayable","type":"function"},{"inputs":[{"internalType":"Currency","name":"currency","type":"address"},{"internalType":"uint256","name":"amount","type":"uint256"}],"name":"clear","outputs":[],"stateMutability":"nonpayable","type":"function"},{"inputs":[{"internalType":"address","name":"recipient","type":"address"},{"internalType":"Currency","name":"currency","type":"address"},{"internalType":"uint256","name":"amount","type":"uint256"}],"name":"collectProtocolFees","outputs":[{"internalType":"uint256","name":"amountCollected","type":"uint256"}],"stateMutability":"nonpayable","type":"function"},{"inputs":[{"components":[{"internalType":"Currency","name":"currency0","type":"address"},{"internalType":"Currency","name":"currency1","type":"address"},{"internalType":"uint24","name":"fee","type":"uint24"},{"internalType":"int24","name":"tickSpacing","type":"int24"},{"internalType":"contract IHooks","name":"hooks","type":"address"}],"internalType":"struct PoolKey","name":"key","type":"tuple"},{"internalType":"uint256","name":"amount0","type":"uint256"},{"internalType":"uint256","name":"amount1","type":"uint256"},{"internalType":"bytes","name":"hookData","type":"bytes"}],"name":"donate","outputs":[{"internalType":"BalanceDelta","name":"delta","type":"int256"}],"stateMutability":"nonpayable","type":"function"},{"inputs":[{"internalType":"bytes32","name":"slot","type":"bytes32"}],"name":"extsload","outputs":[{"internalType":"bytes32","name":"","type":"bytes32"}],"stateMutability":"view","type":"function"},{"inputs":[{"internalType":"bytes32","name":"startSlot","type":"bytes32"},{"internalType":"uint256","name":"nSlots","type":"uint256"}],"name":"extsload","outputs":[{"internalType":"bytes32[]","name":"","type":"bytes32[]"}],"stateMutability":"view","type":"function"},{"inputs":[{"internalType":"bytes32[]","name":"slots","type":"bytes32[]"}],"name":"extsload","outputs":[{"internalType":"bytes32[]","name":"","type":"bytes32[]"}],"stateMutability":"view","type":"function"},{"inputs":[{"internalType":"bytes32[]","name":"slots","type":"bytes32[]"}],"name":"exttload","outputs":[{"internalType":"bytes32[]","name":"","type":"bytes32[]"}],"stateMutability":"view","type":"function"},{"inputs":[{"internalType":"bytes32","name":"slot","type":"bytes32"}],"name":"exttload","outputs":[{"internalType":"bytes32","name":"","type":"bytes32"}],"stateMutability":"view","type":"function"},{"inputs":[{"components":[{"internalType":"Currency","name":"currency0","type":"address"},{"internalType":"Currency","name":"currency1","type":"address"},{"internalType":"uint24","name":"fee","type":"uint24"},{"internalType":"int24","name":"tickSpacing","type":"int24"},{"internalType":"contract IHooks","name":"hooks","type":"address"}],"internalType":"struct PoolKey","name":"key","type":"tuple"},{"internalType":"uint160","name":"sqrtPriceX96","type":"uint160"}],"name":"initialize","outputs":[{"internalType":"int24","name":"tick","type":"int24"}],"stateMutability":"nonpayable","type":"function"},{"inputs":[{"internalType":"address","name":"owner","type":"address"},{"internalType":"address","name":"operator","type":"address"}],"name":"isOperator","outputs":[{"internalType":"bool","name":"isOperator","type":"bool"}],"stateMutability":"view","type":"function"},{"inputs":[{"internalType":"address","name":"to","type":"address"},{"internalType":"uint256","name":"id","type":"uint256"},{"internalType":"uint256","name":"amount","type":"uint256"}],"name":"mint","outputs":[],"stateMutability":"nonpayable","type":"function"},{"inputs":[{"components":[{"internalType":"Currency","name":"currency0","type":"address"},{"internalType":"Currency","name":"currency1","type":"address"},{"internalType":"uint24","name":"fee","type":"uint24"},{"internalType":"int24","name":"tickSpacing","type":"int24"},{"internalType":"contract IHooks","name":"hooks","type":"address"}],"internalType":"struct PoolKey","name":"key","type":"tuple"},{"components":[{"internalType":"int24","name":"tickLower","type":"int24"},{"internalType":"int24","name":"tickUpper","type":"int24"},{"internalType":"int256","name":"liquidityDelta","type":"int256"},{"internalType":"bytes32","name":"salt","type":"bytes32"}],"internalType":"struct ModifyLiquidityParams","name":"params","type":"tuple"},{"internalType":"bytes","name":"hookData","type":"bytes"}],"name":"modifyLiquidity","outputs":[{"internalType":"BalanceDelta","name":"callerDelta","type":"int256"},{"internalType":"BalanceDelta","name":"feesAccrued","type":"int256"}],"stateMutability":"nonpayable","type":"function"},{"inputs":[],"name":"owner","outputs":[{"internalType":"address","name":"","type":"address"}],"stateMutability":"view","type":"function"},{"inputs":[],"name":"protocolFeeController","outputs":[{"internalType":"address","name":"","type":"address"}],"stateMutability":"view","type":"function"},{"inputs":[{"internalType":"Currency","name":"currency","type":"address"}],"name":"protocolFeesAccrued","outputs":[{"internalType":"uint256","name":"amount","type":"uint256"}],"stateMutability":"view","type":"function"},{"inputs":[{"internalType":"address","name":"operator","type":"address"},{"internalType":"bool","name":"approved","type":"bool"}],"name":"setOperator","outputs":[{"internalType":"bool","name":"","type":"bool"}],"stateMutability":"nonpayable","type":"function"},{"inputs":[{"components":[{"internalType":"Currency","name":"currency0","type":"address"},{"internalType":"Currency","name":"currency1","type":"address"},{"internalType":"uint24","name":"fee","type":"uint24"},{"internalType":"int24","name":"tickSpacing","type":"int24"},{"internalType":"contract IHooks","name":"hooks","type":"address"}],"internalType":"struct PoolKey","name":"key","type":"tuple"},{"internalType":"uint24","name":"newProtocolFee","type":"uint24"}],"name":"setProtocolFee","outputs":[],"stateMutability":"nonpayable","type":"function"},{"inputs":[{"internalType":"address","name":"controller","type":"address"}],"name":"setProtocolFeeController","outputs":[],"stateMutability":"nonpayable","type":"function"},{"inputs":[],"name":"settle","outputs":[{"internalType":"uint256","name":"","type":"uint256"}],"stateMutability":"payable","type":"function"},{"inputs":[{"internalType":"address","name":"recipient","type":"address"}],"name":"settleFor","outputs":[{"internalType":"uint256","name":"","type":"uint256"}],"stateMutability":"payable","type":"function"},{"inputs":[{"internalType":"bytes4","name":"interfaceId","type":"bytes4"}],"name":"supportsInterface","outputs":[{"internalType":"bool","name":"","type":"bool"}],"stateMutability":"view","type":"function"},{"inputs":[{"components":[{"internalType":"Currency","name":"currency0","type":"address"},{"internalType":"Currency","name":"currency1","type":"address"},{"internalType":"uint24","name":"fee","type":"uint24"},{"internalType":"int24","name":"tickSpacing","type":"int24"},{"internalType":"contract IHooks","name":"hooks","type":"address"}],"internalType":"struct PoolKey","name":"key","type":"tuple"},{"components":[{"internalType":"bool","name":"zeroForOne","type":"bool"},{"internalType":"int256","name":"amountSpecified","type":"int256"},{"internalType":"uint160","name":"sqrtPriceLimitX96","type":"uint160"}],"internalType":"struct SwapParams","name":"params","type":"tuple"},{"internalType":"bytes","name":"hookData","type":"bytes"}],"name":"swap","outputs":[{"internalType":"BalanceDelta","name":"swapDelta","type":"int256"}],"stateMutability":"nonpayable","type":"function"},{"inputs":[{"internalType":"Currency","name":"currency","type":"address"}],"name":"sync","outputs":[],"stateMutability":"nonpayable","type":"function"},{"inputs":[{"internalType":"Currency","name":"currency","type":"address"},{"internalType":"address","name":"to","type":"address"},{"internalType":"uint256","name":"amount","type":"uint256"}],"name":"take","outputs":[],"stateMutability":"nonpayable","type":"function"},{"inputs":[{"internalType":"address","name":"receiver","type":"address"},{"internalType":"uint256","name":"id","type":"uint256"},{"internalType":"uint256","name":"amount","type":"uint256"}],"name":"transfer","outputs":[{"internalType":"bool","name":"","type":"bool"}],"stateMutability":"nonpayable","type":"function"},{"inputs":[{"internalType":"address","name":"sender","type":"address"},{"internalType":"address","name":"receiver","type":"address"},{"internalType":"uint256","name":"id","type":"uint256"},{"internalType":"uint256","name":"amount","type":"uint256"}],"name":"transferFrom","outputs":[{"internalType":"bool","name":"","type":"bool"}],"stateMutability":"nonpayable","type":"function"},{"inputs":[{"internalType":"address","name":"newOwner","type":"address"}],"name":"transferOwnership","outputs":[],"stateMutability":"nonpayable","type":"function"},{"inputs":[{"internalType":"bytes","name":"data","type":"bytes"}],"name":"unlock","outputs":[{"internalType":"bytes","name":"result","type":"bytes"}],"stateMutability":"nonpayable","type":"function"},{"inputs":[{"components":[{"internalType":"Currency","name":"currency0","type":"address"},{"internalType":"Currency","name":"currency1","type":"address"},{"internalType":"uint24","name":"fee","type":"uint24"},{"internalType":"int24","name":"tickSpacing","type":"int24"},{"internalType":"contract IHooks","name":"hooks","type":"address"}],"internalType":"struct PoolKey","name":"key","type":"tuple"},{"internalType":"uint24","name":"newDynamicLPFee","type":"uint24"}],"name":"updateDynamicLPFee","outputs":[],"stateMutability":"nonpayable","type":"function"}],"evm":{"bytecode":{"linkReferences":{},"object":"60a03460a057601f615eab38819003918201601f19168301916001600160401b0383118484101760a45780849260209460405283398101031260a057516001600160a01b0381169081900360a0575f80546001600160a01b0319168217815560405191907f8be0079c531659141344cd1fd0a4f28419497f9722a3daafe3b4186f6b6457e08180a330608052615df290816100b98239608051816135260152f35b5f80fd5b634e487b7160e01b5f52604160045260245ffdfe60a0806040526004361015610012575f80fd5b5f3560e01c908162fdd58e14612cd55750806301ffc9a714612c16578063095bcdb614612b6c5780630b0d9c0914612ae057806311da60b414612a85578063156e29f6146129d55780631e2eaeaf1461299b578063234266d7146126fc5780632d7713891461265157806335fd631a146125dd5780633dd45adb14612579578063426a8493146124f557806348c894911461226a5780635275965114612152578063558a72971461207b578063598af9e714611fe35780635a6bcfda1461144f5780636276cbbe14610f965780637e87ce7d14610e5957806380f0b44c14610d875780638161b87414610c315780638da5cb5b14610be157806397e8cd4e14610b7e5780639bf6645f14610b31578063a584119414610a66578063b6363cf2146109d5578063dbd035ff1461097f578063f02de3b21461092e578063f135baaa146108f4578063f2fde38b14610848578063f3cd914c146104ff578063f5298aca146103345763fe99049a14610186575f80fd5b346103305760807ffffffffffffffffffffffffffffffffffffffffffffffffffffffffffffffffc360112610330576101bd612d3f565b6101c5612d62565b90604435917f1b3d7edb2e9c0b0e7c525b20aaaef0f5940d2ed71663c7d39266ecafac72885961027973ffffffffffffffffffffffffffffffffffffffff80606435951693843314158061030d575b610287575b845f52600460205260405f20875f5260205260405f2061023a878254612fed565b90551693845f52600460205260405f20865f5260205260405f2061025f828254612ffa565b905560408051338152602081019290925290918291820190565b0390a4602060405160018152f35b845f52600560205260405f208233165f5260205260405f20875f5260205260405f2054867fffffffffffffffffffffffffffffffffffffffffffffffffffffffffffffffff82036102da575b5050610219565b6102e391612fed565b855f52600560205260405f208333165f5260205260405f20885f5260205260405f20555f866102d3565b50845f52600360205260405f208233165f5260205260ff60405f20541615610214565b5f80fd5b346103305761034236612d85565b7fc090fc4683624cfc3884e9d8de5eca132f2d0ec062aff75d43c0465d5ceeab235c156104d7577f1b3d7edb2e9c0b0e7c525b20aaaef0f5940d2ed71663c7d39266ecafac7288596103ed73ffffffffffffffffffffffffffffffffffffffff805f9516956103bb6103b3866130aa565b3390896130f0565b169233841415806104a0575b6103f2575b8385526004602052604085208686526020526040852061025f828254612fed565b0390a4005b83855260056020526040852073ffffffffffffffffffffffffffffffffffffffff33168652602052604085208686526020526040852054817fffffffffffffffffffffffffffffffffffffffffffffffffffffffffffffffff8203610459575b50506103cc565b61046291612fed565b84865260056020526040862073ffffffffffffffffffffffffffffffffffffffff331687526020526040862087875260205260408620558681610452565b5083855260036020526040852073ffffffffffffffffffffffffffffffffffffffff3316865260205260ff604086205416156103c7565b7f54e3ca0d000000000000000000000000000000000000000000000000000000005f5260045ffd5b34610330576101207ffffffffffffffffffffffffffffffffffffffffffffffffffffffffffffffffc3601126103305761053836612e81565b60607fffffffffffffffffffffffffffffffffffffffffffffffffffffffffffffff5c360112610330576040519061056f82612df6565b60a4358015158103610330578252602082019060c435825260e4359073ffffffffffffffffffffffffffffffffffffffff8216820361033057604084019182526101043567ffffffffffffffff8111610330576105d0903690600401612f4d565b9290937fc090fc4683624cfc3884e9d8de5eca132f2d0ec062aff75d43c0465d5ceeab235c156104d75761060261350f565b51156108205760a0822092835f52600660205260405f209061062382613576565b60808401958482828a8a5173ffffffffffffffffffffffffffffffffffffffff169361064e94613b44565b90949195606088015160020b908b511515905173ffffffffffffffffffffffffffffffffffffffff1691604051986106858a612e12565b895260208901526040880152606087015262ffffff166080860152885115155f149862ffffff6107a2986106db61078f9860209d6108005773ffffffffffffffffffffffffffffffffffffffff8b511695614959565b9492968291926107d3575b505073ffffffffffffffffffffffffffffffffffffffff845116938e6fffffffffffffffffffffffffffffffff60408301511691015160020b90604051958860801d600f0b875288600f0b60208801526040870152606086015260808501521660a08301527f40e9cecb9f5f1f1c5b9c97dec2917b7ee92e57ba5563708daca94dd84ad7112f60c03393a38673ffffffffffffffffffffffffffffffffffffffff8a5116613d81565b809491946107aa575b5050823391613652565b604051908152f35b73ffffffffffffffffffffffffffffffffffffffff6107cc9251169083613652565b8480610798565b73ffffffffffffffffffffffffffffffffffffffff165f5260018f5260405f209081540190558e806106e6565b73ffffffffffffffffffffffffffffffffffffffff8e8c01511695614959565b7fbe8b8507000000000000000000000000000000000000000000000000000000005f5260045ffd5b346103305760207ffffffffffffffffffffffffffffffffffffffffffffffffffffffffffffffffc360112610330577fffffffffffffffffffffffff00000000000000000000000000000000000000006108a0612d3f565b73ffffffffffffffffffffffffffffffffffffffff5f54916108c58284163314613007565b1691829116175f55337f8be0079c531659141344cd1fd0a4f28419497f9722a3daafe3b4186f6b6457e05f80a3005b346103305760207ffffffffffffffffffffffffffffffffffffffffffffffffffffffffffffffffc360112610330576004355c5f5260205ff35b34610330575f7ffffffffffffffffffffffffffffffffffffffffffffffffffffffffffffffffc36011261033057602073ffffffffffffffffffffffffffffffffffffffff60025416604051908152f35b346103305761098d36612f7b565b6040519160408360208152836020820152019160051b8301916020806040850193925b83355481520191019084838210156109cc5750602080916109b0565b60408186030190f35b346103305760407ffffffffffffffffffffffffffffffffffffffffffffffffffffffffffffffffc36011261033057610a0c612d3f565b73ffffffffffffffffffffffffffffffffffffffff610a29612d62565b91165f52600360205273ffffffffffffffffffffffffffffffffffffffff60405f2091165f52602052602060ff60405f2054166040519015158152f35b346103305760207ffffffffffffffffffffffffffffffffffffffffffffffffffffffffffffffffc36011261033057610a9d612d3f565b73ffffffffffffffffffffffffffffffffffffffff81169081610ae15750505f7f27e098c505d44ec3574004bca052aabf76bd35004c182099d8c575fb238593b95d005b610aea90613a92565b907f27e098c505d44ec3574004bca052aabf76bd35004c182099d8c575fb238593b95d7f1e0745a7db1623981f0b2a5d4232364c00787266eb75ad546f190e6cebe9bd955d005b3461033057610b3f36612f7b565b6040519160408360208152836020820152019160051b8301916020806040850193925b83355c81520191019084838210156109cc575060208091610b62565b346103305760207ffffffffffffffffffffffffffffffffffffffffffffffffffffffffffffffffc3601126103305773ffffffffffffffffffffffffffffffffffffffff610bca612d3f565b165f526001602052602060405f2054604051908152f35b34610330575f7ffffffffffffffffffffffffffffffffffffffffffffffffffffffffffffffffc36011261033057602073ffffffffffffffffffffffffffffffffffffffff5f5416604051908152f35b346103305760607ffffffffffffffffffffffffffffffffffffffffffffffffffffffffffffffffc36011261033057610c68612d3f565b610c70612d62565b60443573ffffffffffffffffffffffffffffffffffffffff600254163303610d5f5773ffffffffffffffffffffffffffffffffffffffff821680151580610d1f575b610cf7576020936107a29280610cef5750815f526001855260405f20549384925b5f526001865260405f20610ce8848254612fed565b90556131f8565b938492610cd3565b7fc79e5948000000000000000000000000000000000000000000000000000000005f5260045ffd5b508073ffffffffffffffffffffffffffffffffffffffff7f27e098c505d44ec3574004bca052aabf76bd35004c182099d8c575fb238593b95c1614610cb2565b7f48f5c3ed000000000000000000000000000000000000000000000000000000005f5260045ffd5b346103305760407ffffffffffffffffffffffffffffffffffffffffffffffffffffffffffffffffc36011261033057610dbe612d3f565b7fc090fc4683624cfc3884e9d8de5eca132f2d0ec062aff75d43c0465d5ceeab235c156104d757335f90815273ffffffffffffffffffffffffffffffffffffffff8216602052604090205c610e146024356130aa565b9081600f0b03610e3157610e2f9133915f03600f0b906130f0565b005b7fbda73abf000000000000000000000000000000000000000000000000000000005f5260045ffd5b346103305760c07ffffffffffffffffffffffffffffffffffffffffffffffffffffffffffffffffc36011261033057610e9136612e81565b610e99612e6f565b9073ffffffffffffffffffffffffffffffffffffffff600254163303610d5f57623e900062fff0008316106103e9610fff8416101615610f6557602060a07fe9c42593e71f84403b84352cd168d693e2c9fcd1fdbcc3feb21d92b43e6696f9922092835f526006825260405f20610f0f81613576565b805479ffffff00000000000000000000000000000000000000000000008360b81b16907fffffffffffff000000ffffffffffffffffffffffffffffffffffffffffffffff1617905562ffffff60405191168152a2005b62ffffff827fa7abe2f7000000000000000000000000000000000000000000000000000000005f521660045260245ffd5b346103305760c07ffffffffffffffffffffffffffffffffffffffffffffffffffffffffffffffffc36011261033057610fce36612e81565b60a4359073ffffffffffffffffffffffffffffffffffffffff821680830361033057610ff861350f565b6060820191825160020b617fff81136114245750825160020b600181126113f9575073ffffffffffffffffffffffffffffffffffffffff815116602082019073ffffffffffffffffffffffffffffffffffffffff825116808210156113c2575050608082019073ffffffffffffffffffffffffffffffffffffffff82511690604084019161108c62ffffff845116826139b7565b1561139757506110a162ffffff835116613a75565b96835173ffffffffffffffffffffffffffffffffffffffff8116908133036112e0575b505060a0852090815f52600660205260405f2090815473ffffffffffffffffffffffffffffffffffffffff166112b8576020997fdd466e674ea557f56295e2d0218a125ea4b4f0f6f3307b95f85e6110838d6438927cffffff000000000000000000000000000000000000000000000000000061114260a0946145fc565b9260d01b168a76ffffff000000000000000000000000000000000000000084861b161717905562ffffff73ffffffffffffffffffffffffffffffffffffffff808a5116965116965116995160020b73ffffffffffffffffffffffffffffffffffffffff885116906040519b8c528c8c015260408b01528860608b015260020b98896080820152a45173ffffffffffffffffffffffffffffffffffffffff8116908133036111f4575b8585604051908152f35b61100016611203575b806111ea565b6112af9261128d604051937f6fe7e6eb0000000000000000000000000000000000000000000000000000000088860152336024860152604485019073ffffffffffffffffffffffffffffffffffffffff6080809282815116855282602082015116602086015262ffffff6040820151166040860152606081015160020b6060860152015116910152565b60e48301528361010483015261010482526112aa61012483612e2e565b613f25565b508280806111fd565b7f7983c051000000000000000000000000000000000000000000000000000000005f5260045ffd5b612000166112ef575b806110c4565b61139090604051907fdc98354e00000000000000000000000000000000000000000000000000000000602083015233602483015261137a604483018973ffffffffffffffffffffffffffffffffffffffff6080809282815116855282602082015116602086015262ffffff6040820151166040860152606081015160020b6060860152015116910152565b8860e483015260e482526112aa61010483612e2e565b50886112e9565b7fe65af6a0000000000000000000000000000000000000000000000000000000005f5260045260245ffd5b60449250604051917f6e6c983000000000000000000000000000000000000000000000000000000000835260048301526024820152fd5b7fe9e90588000000000000000000000000000000000000000000000000000000005f5260045260245ffd5b7fb70024f8000000000000000000000000000000000000000000000000000000005f5260045260245ffd5b34610330576101407ffffffffffffffffffffffffffffffffffffffffffffffffffffffffffffffffc3601126103305761148836612e81565b60807fffffffffffffffffffffffffffffffffffffffffffffffffffffffffffffff5c36011261033057604051906114bf82612dda565b60a4358060020b810361033057825260c4358060020b810361033057602083015260e43560408301526101043560608301526101243567ffffffffffffffff811161033057611512903690600401612f4d565b90927fc090fc4683624cfc3884e9d8de5eca132f2d0ec062aff75d43c0465d5ceeab235c156104d75761154361350f565b60a0832093845f52600660205260405f20608052611562608051613576565b608084015173ffffffffffffffffffffffffffffffffffffffff811690813303611ede575b5050815160020b92602083015160020b916115a56040850151613785565b93606087015160020b9760608201516040519960c08b018b811067ffffffffffffffff821117611eb157604052338b528860208c01528660408c015287600f0b60608c015260808b015260a08a01525f9185881215611e7a577ffffffffffffffffffffffffffffffffffffffffffffffffffffffffffff276188812611e4e57620d89e88613611e22576040519261163c84612dda565b5f84525f60208501525f60408501525f606085015287600f0b611b25575b600460805101978960020b5f528860205260405f20988860020b5f5260205260405f206080515460a01c60020b8b81125f14611acf575060028060018c0154600184015490039b015491015490039b5b60a073ffffffffffffffffffffffffffffffffffffffff825116910151906040519160268301528960068301528b600383015281525f603a600c83012091816040820152816020820152525f5260066080510160205260405f20976fffffffffffffffffffffffffffffffff8954169982600f0b155f14611a72578a15611a4a5761176f61176960409f9b61184e9c6118609e5b60018301956117616002611755848a548503615703565b95019283548503615703565b9655556130aa565b916130aa565b6fffffffffffffffffffffffffffffffff169060801b179a8b965f84600f0b126119dc575b5082600f0b611898575b5050506117c46117b58560801d8360801d01613785565b9185600f0b90600f0b01613785565b6fffffffffffffffffffffffffffffffff169060801b1791815160020b90602083015160020b8c8401516060850151918e5194855260208501528d84015260608301527ff208f4912782fd25c7f114ca3723a2d5dd6f3bcc3ac8db5af63baa85f711d5ec60803393a38873ffffffffffffffffffffffffffffffffffffffff60808201511661385b565b8094919461186c575b50833391613652565b82519182526020820152f35b6118929073ffffffffffffffffffffffffffffffffffffffff6080840151169083613652565b85611857565b60805154929350909173ffffffffffffffffffffffffffffffffffffffff81169060a01c60020b828112156118fe575050906118f2926118e76118dd6118ed94614158565b91600f0b92614158565b90614527565b613785565b60801b5b8b808061179e565b92809193125f146119a95761193d9161192a6118ed6118ed9361192488600f0b91614158565b87614527565b9361193886600f0b92614158565b6144ca565b6fffffffffffffffffffffffffffffffff169060801b17906fffffffffffffffffffffffffffffffff61197c60036080510192600f0b8284541661456e565b167fffffffffffffffffffffffffffffffff000000000000000000000000000000008254161790556118f6565b906118ed9250926119bf6118dd6119c595614158565b906144ca565b6fffffffffffffffffffffffffffffffff166118f6565b808f9151611a1e575b01516119f2575b8e611794565b611a198260805160049160020b5f52016020525f6002604082208281558260018201550155565b6119ec565b611a458360805160049160020b5f52016020525f6002604082208281558260018201550155565b6119e5565b7faefeb924000000000000000000000000000000000000000000000000000000005f5260045ffd5b61176f61176960409f9b61184e9c6118609e6fffffffffffffffffffffffffffffffff611aa289600f0b8361456e565b167fffffffffffffffffffffffffffffffff0000000000000000000000000000000084541617835561173e565b9099908913611af55760028060018c0154600184015490039b015491015490039b6116aa565b9860026001608051015460018c01549003600183015490039a81806080510154910154900391015490039b6116aa565b6004608051018960020b5f5280602052898960405f20611b7e81546fffffffffffffffffffffffffffffffff611b6181831695600f0b8661456e565b16931594858515141595611dee575b508d600f0b9060801d613d3a565b60801b82179055602087015285528760020b5f5260205260405f208054906fffffffffffffffffffffffffffffffff8216611bbc8b600f0b8261456e565b901592836fffffffffffffffffffffffffffffffff831615141593611dc1575b8b600f0b9060801d600f0b03916f7fffffffffffffffffffffffffffffff83137fffffffffffffffffffffffffffffffff80000000000000000000000000000000841217611d9457826fffffffffffffffffffffffffffffffff935060801b83831617905516606086015260408501525f88600f0b1215611ca1575b8351611c85575b60408401511561165a57611c8060808c015160020b8860056080510161410c565b61165a565b611c9c60808c015160020b8a60056080510161410c565b611c5f565b60808b015160020b6fffffffffffffffffffffffffffffffff600181602088015116925f817ffffffffffffffffffffffffffffffffffffffffffffffffffffffffffff276180712817ffffffffffffffffffffffffffffffffffffffffffffffffffffffffffff27618050390620d89e8050301810416809111611d68576fffffffffffffffffffffffffffffffff6060860151161115611c5857867fb8e3c385000000000000000000000000000000000000000000000000000000005f5260045260245ffd5b897fb8e3c385000000000000000000000000000000000000000000000000000000005f5260045260245ffd5b7f4e487b71000000000000000000000000000000000000000000000000000000005f52601160045260245ffd5b6080515460a01c60020b8b13611bdc57600160805101546001840155600260805101546002840155611bdc565b6080515460a01c60020b1215611e05575b8e611b70565b600160805101546001840155600260805101546002840155611dff565b857f1ad777f8000000000000000000000000000000000000000000000000000000005f5260045260245ffd5b877fd5e2f7ab000000000000000000000000000000000000000000000000000000005f5260045260245ffd5b60448887604051917fc4433ed500000000000000000000000000000000000000000000000000000000835260048301526024820152fd5b7f4e487b71000000000000000000000000000000000000000000000000000000005f52604160045260245ffd5b5f604085015113808091611fd6575b15611f6b5750506040517f259982e5000000000000000000000000000000000000000000000000000000006020820152611f62916112aa82611f368887898c33602487016136cb565b037fffffffffffffffffffffffffffffffffffffffffffffffffffffffffffffffe08101845283612e2e565b505b8580611587565b159081611fc8575b50611f7f575b50611f64565b6040517f21d0ee70000000000000000000000000000000000000000000000000000000006020820152611fc1916112aa82611f368887898c33602487016136cb565b5085611f79565b610200915016151587611f73565b5061080082161515611eed565b346103305760607ffffffffffffffffffffffffffffffffffffffffffffffffffffffffffffffffc3601126103305761201a612d3f565b73ffffffffffffffffffffffffffffffffffffffff612037612d62565b91165f52600560205273ffffffffffffffffffffffffffffffffffffffff60405f2091165f5260205260405f206044355f52602052602060405f2054604051908152f35b346103305760407ffffffffffffffffffffffffffffffffffffffffffffffffffffffffffffffffc360112610330576120b2612d3f565b602435908115158092036103305773ffffffffffffffffffffffffffffffffffffffff90335f52600360205260405f208282165f5260205260405f207fffffffffffffffffffffffffffffffffffffffffffffffffffffffffffffff0081541660ff851617905560405192835216907fceb576d9f15e4e200fdb5096d64d5dfd667e16def20c1eefd14256d8e3faa26760203392a3602060405160018152f35b346103305760c07ffffffffffffffffffffffffffffffffffffffffffffffffffffffffffffffffc3601126103305761218a36612e81565b612192612e6f565b906280000062ffffff60408301511614801590612246575b61221e5760a0906121ba8361368e565b205f52600660205260405f20906121d082613576565b81547fffffff000000ffffffffffffffffffffffffffffffffffffffffffffffffffff1660d09190911b7cffffff000000000000000000000000000000000000000000000000000016179055005b7f30d21641000000000000000000000000000000000000000000000000000000005f5260045ffd5b5073ffffffffffffffffffffffffffffffffffffffff6080820151163314156121aa565b346103305760207ffffffffffffffffffffffffffffffffffffffffffffffffffffffffffffffffc3601126103305760043567ffffffffffffffff8111610330576122b9903690600401612f4d565b7fc090fc4683624cfc3884e9d8de5eca132f2d0ec062aff75d43c0465d5ceeab235c6124cd57612345915f9160017fc090fc4683624cfc3884e9d8de5eca132f2d0ec062aff75d43c0465d5ceeab235d60405193849283927f91dd734600000000000000000000000000000000000000000000000000000000845260206004850152602484019161306c565b038183335af19081156124c2575f9161241a575b507f7d4b3164c6e45b97e7d87b7125a44c5828d005af88f9d751cfd78729c5d99a0b5c6123f25760406020915f7fc090fc4683624cfc3884e9d8de5eca132f2d0ec062aff75d43c0465d5ceeab235d7fffffffffffffffffffffffffffffffffffffffffffffffffffffffffffffffe0601f835194859381855280519182918282880152018686015e5f85828601015201168101030190f35b7f5212cba1000000000000000000000000000000000000000000000000000000005f5260045ffd5b90503d805f833e61242b8183612e2e565b8101906020818303126103305780519067ffffffffffffffff8211610330570181601f820112156103305780519067ffffffffffffffff8211611eb1576040519261249e60207fffffffffffffffffffffffffffffffffffffffffffffffffffffffffffffffe0601f8601160185612e2e565b8284526020838301011161033057815f9260208093018386015e8301015281612359565b6040513d5f823e3d90fd5b7f5090d6c6000000000000000000000000000000000000000000000000000000005f5260045ffd5b346103305773ffffffffffffffffffffffffffffffffffffffff61251836612d85565b91929092335f52600560205260405f208282165f5260205260405f20845f526020528260405f205560405192835216907fb3fd5071835887567a0671151121894ddccc2842f1d10bedad13e0d17cace9a760203392a4602060405160018152f35b60207ffffffffffffffffffffffffffffffffffffffffffffffffffffffffffffffffc360112610330576125ab612d3f565b7fc090fc4683624cfc3884e9d8de5eca132f2d0ec062aff75d43c0465d5ceeab235c156104d7576107a260209161342d565b346103305760407ffffffffffffffffffffffffffffffffffffffffffffffffffffffffffffffffc360112610330576024356004356040519160408360208152826020820152019060051b8301916001602060408501935b835481520191019084838210156109cc57506020600191612635565b346103305760207ffffffffffffffffffffffffffffffffffffffffffffffffffffffffffffffffc3601126103305773ffffffffffffffffffffffffffffffffffffffff61269d612d3f565b6126ab825f54163314613007565b16807fffffffffffffffffffffffff000000000000000000000000000000000000000060025416176002557fb4bd8ef53df690b9943d3318996006dbb82a25f54719d8c8035b516a2a5b8acc5f80a2005b34610330576101007ffffffffffffffffffffffffffffffffffffffffffffffffffffffffffffffffc3601126103305761273536612e81565b60c4359060a43560e43567ffffffffffffffff81116103305761275c903690600401612f4d565b9190937fc090fc4683624cfc3884e9d8de5eca132f2d0ec062aff75d43c0465d5ceeab235c156104d75761278e61350f565b60a0842094855f52600660205260405f20946127a986613576565b60808101805173ffffffffffffffffffffffffffffffffffffffff811690813303612943575b50506fffffffffffffffffffffffffffffffff60038801541697881561291b576020986127fb876130aa565b5f03612806876130aa565b5f036fffffffffffffffffffffffffffffffff169060801b179887612907575b866128f2575b5050612839338985613652565b60405190868252858a8301527f29ef05caaff9404b7cb6d1c0e9bbae9eaa7ab2541feba1a9c4248594c08156cb60403393a3519273ffffffffffffffffffffffffffffffffffffffff841693843303612897575b8888604051908152f35b6010166128a5575b8061288d565b6128e6956112aa93611f36926040519788957fe1b4af69000000000000000000000000000000000000000000000000000000008d88015233602488016135bc565b5082808080808061289f565b600201908660801b048154019055898061282c565b60018101828960801b048154019055612826565b7fa74f97ab000000000000000000000000000000000000000000000000000000005f5260045ffd5b602016612951575b806127cf565b6040517fb6a8b0fa000000000000000000000000000000000000000000000000000000006020820152612994916112aa82611f368b898b8d8b33602488016135bc565b508861294b565b346103305760207ffffffffffffffffffffffffffffffffffffffffffffffffffffffffffffffffc36011261033057600435545f5260205ff35b34610330576129e336612d85565b907fc090fc4683624cfc3884e9d8de5eca132f2d0ec062aff75d43c0465d5ceeab235c156104d7577f1b3d7edb2e9c0b0e7c525b20aaaef0f5940d2ed71663c7d39266ecafac7288596103ed73ffffffffffffffffffffffffffffffffffffffff805f941695612a62612a55876130aa565b8603600f0b3390896130f0565b16938484526004602052604084208685526020526040842061025f828254612ffa565b5f7ffffffffffffffffffffffffffffffffffffffffffffffffffffffffffffffffc360112610330577fc090fc4683624cfc3884e9d8de5eca132f2d0ec062aff75d43c0465d5ceeab235c156104d75760206107a23361342d565b346103305760607ffffffffffffffffffffffffffffffffffffffffffffffffffffffffffffffffc36011261033057612b17612d3f565b612b1f612d62565b604435907fc090fc4683624cfc3884e9d8de5eca132f2d0ec062aff75d43c0465d5ceeab235c156104d757610e2f92612b67612b5a846130aa565b5f03600f0b3390836130f0565b6131f8565b346103305773ffffffffffffffffffffffffffffffffffffffff612b8f36612d85565b91929092335f52600460205260405f20845f5260205260405f20612bb4848254612fed565b90551690815f52600460205260405f20835f5260205260405f20612bd9828254612ffa565b9055604080513380825260208201939093527f1b3d7edb2e9c0b0e7c525b20aaaef0f5940d2ed71663c7d39266ecafac7288599181908101610279565b346103305760207ffffffffffffffffffffffffffffffffffffffffffffffffffffffffffffffffc360112610330576004357fffffffff00000000000000000000000000000000000000000000000000000000811680910361033057807f01ffc9a70000000000000000000000000000000000000000000000000000000060209214908115612cab575b506040519015158152f35b7f0f632fb30000000000000000000000000000000000000000000000000000000091501482612ca0565b346103305760407ffffffffffffffffffffffffffffffffffffffffffffffffffffffffffffffffc3601126103305760209073ffffffffffffffffffffffffffffffffffffffff612d24612d3f565b165f526004825260405f206024355f52825260405f20548152f35b6004359073ffffffffffffffffffffffffffffffffffffffff8216820361033057565b6024359073ffffffffffffffffffffffffffffffffffffffff8216820361033057565b7ffffffffffffffffffffffffffffffffffffffffffffffffffffffffffffffffc60609101126103305760043573ffffffffffffffffffffffffffffffffffffffff8116810361033057906024359060443590565b6080810190811067ffffffffffffffff821117611eb157604052565b6060810190811067ffffffffffffffff821117611eb157604052565b60a0810190811067ffffffffffffffff821117611eb157604052565b90601f7fffffffffffffffffffffffffffffffffffffffffffffffffffffffffffffffe0910116810190811067ffffffffffffffff821117611eb157604052565b60a4359062ffffff8216820361033057565b7ffffffffffffffffffffffffffffffffffffffffffffffffffffffffffffffffc60a09101126103305760405190612eb882612e12565b8160043573ffffffffffffffffffffffffffffffffffffffff8116810361033057815260243573ffffffffffffffffffffffffffffffffffffffff8116810361033057602082015260443562ffffff811681036103305760408201526064358060020b81036103305760608201526084359073ffffffffffffffffffffffffffffffffffffffff821682036103305760800152565b9181601f840112156103305782359167ffffffffffffffff8311610330576020838186019501011161033057565b9060207ffffffffffffffffffffffffffffffffffffffffffffffffffffffffffffffffc8301126103305760043567ffffffffffffffff811161033057826023820112156103305780600401359267ffffffffffffffff84116103305760248460051b83010111610330576024019190565b91908203918211611d9457565b91908201809211611d9457565b1561300e57565b60646040517f08c379a000000000000000000000000000000000000000000000000000000000815260206004820152600c60248201527f554e415554484f52495a454400000000000000000000000000000000000000006044820152fd5b601f82602094937fffffffffffffffffffffffffffffffffffffffffffffffffffffffffffffffe093818652868601375f8582860101520116010190565b6f800000000000000000000000000000008110156130c857600f0b90565b7f93dafdf1000000000000000000000000000000000000000000000000000000005f5260045ffd5b9190600f0b9182156131f357613126919073ffffffffffffffffffffffffffffffffffffffff8092165f521660205260405f2090565b613132815c9283613b29565b80915d6131a357507fffffffffffffffffffffffffffffffffffffffffffffffffffffffffffffffff7f7d4b3164c6e45b97e7d87b7125a44c5828d005af88f9d751cfd78729c5d99a0b5c017f7d4b3164c6e45b97e7d87b7125a44c5828d005af88f9d751cfd78729c5d99a0b5d5b565b156131aa57565b60017f7d4b3164c6e45b97e7d87b7125a44c5828d005af88f9d751cfd78729c5d99a0b5c017f7d4b3164c6e45b97e7d87b7125a44c5828d005af88f9d751cfd78729c5d99a0b5d565b505050565b90919073ffffffffffffffffffffffffffffffffffffffff811690816132ea5750505f80808093855af11561322a5750565b7fffffffffffffffffffffffffffffffffffffffffffffffffffffffffffffffe0601f3d011673ffffffffffffffffffffffffffffffffffffffff604051927f90bfb8650000000000000000000000000000000000000000000000000000000084521660048301525f6024830152608060448301528060a00160648301523d60848301523d5f60a484013e7ff4b3b1bc0000000000000000000000000000000000000000000000000000000060c4828401600460a4820152015260e40190fd5b60205f60448194968260409573ffffffffffffffffffffffffffffffffffffffff988751998a947fa9059cbb00000000000000000000000000000000000000000000000000000000865216600485015260248401525af13d15601f3d116001855114161716928281528260208201520152156133635750565b7fffffffffffffffffffffffffffffffffffffffffffffffffffffffffffffffe0601f3d0116604051917f90bfb86500000000000000000000000000000000000000000000000000000000835260048301527fa9059cbb000000000000000000000000000000000000000000000000000000006024830152608060448301528060a00160648301523d60848301523d5f60a484013e7ff27f64e40000000000000000000000000000000000000000000000000000000060c4828401600460a4820152015260e40190fd5b7f27e098c505d44ec3574004bca052aabf76bd35004c182099d8c575fb238593b95c919073ffffffffffffffffffffffffffffffffffffffff8316613482576131a19034935b61347c856130aa565b906130f0565b346134e7576131a1906134be7f1e0745a7db1623981f0b2a5d4232364c00787266eb75ad546f190e6cebe9bd955c6134b986613a92565b612fed565b935f7f27e098c505d44ec3574004bca052aabf76bd35004c182099d8c575fb238593b95d613473565b7fb0ec849e000000000000000000000000000000000000000000000000000000005f5260045ffd5b73ffffffffffffffffffffffffffffffffffffffff7f000000000000000000000000000000000000000000000000000000000000000016300361354e57565b7f0d89438e000000000000000000000000000000000000000000000000000000005f5260045ffd5b5473ffffffffffffffffffffffffffffffffffffffff161561359457565b7f486aa307000000000000000000000000000000000000000000000000000000005f5260045ffd5b91926136376101209473ffffffffffffffffffffffffffffffffffffffff61364f999794168552602085019073ffffffffffffffffffffffffffffffffffffffff6080809282815116855282602082015116602086015262ffffff6040820151166040860152606081015160020b6060860152015116910152565b60c083015260e082015281610100820152019161306c565b90565b9073ffffffffffffffffffffffffffffffffffffffff60206131a1949361368185848351168660801d906130f0565b01511690600f0b906130f0565b62ffffff16620f424081116136a05750565b7f14002113000000000000000000000000000000000000000000000000000000005f5260045260245ffd5b9061364f95936137486101609473ffffffffffffffffffffffffffffffffffffffff61377794168552602085019073ffffffffffffffffffffffffffffffffffffffff6080809282815116855282602082015116602086015262ffffff6040820151166040860152606081015160020b6060860152015116910152565b8051600290810b60c08501526020820151900b60e0840152604081015161010084015260600151610120830152565b81610140820152019161306c565b9081600f0b9182036130c857565b926138419061381261364f99979473ffffffffffffffffffffffffffffffffffffffff6101a09895168752602087019073ffffffffffffffffffffffffffffffffffffffff6080809282815116855282602082015116602086015262ffffff6040820151166040860152606081015160020b6060860152015116910152565b8051600290810b60c08701526020820151900b60e0860152604081015161010086015260600151610120850152565b61014083015261016082015281610180820152019161306c565b939590919296945f9673ffffffffffffffffffffffffffffffffffffffff861633146139ac57885f6040870151135f1461393b5761040087166138a2575b50505050505050565b61392e9799985092613927969594926138ef9261391b956040519788967f9f063efc0000000000000000000000000000000000000000000000000000000060208901523360248901613793565b037fffffffffffffffffffffffffffffffffffffffffffffffffffffffffffffffe08101835282612e2e565b6002821615159161459f565b80926145bf565b915f808080808080613899565b95949392919061010086166139535750505050505050565b61392e979950869850916138ef916139a09493613927986040519788967f6c2bbe7e0000000000000000000000000000000000000000000000000000000060208901523360248901613793565b6001821615159161459f565b505f96505050505050565b608081161580613a69575b613a3f57604081161580613a5d575b613a3f5761040081161580613a51575b613a3f5761010081161580613a45575b613a3f5773ffffffffffffffffffffffffffffffffffffffff8116613a1f575062ffffff1662800000141590565b613fff161590811591613a30575090565b62800000915062ffffff161490565b50505f90565b506001811615156139f1565b506002811615156139e1565b506004811615156139d1565b506008811615156139c2565b6280000062ffffff821614613a8d5761364f8161368e565b505f90565b73ffffffffffffffffffffffffffffffffffffffff1680613ab257504790565b6020602491604051928380927f70a082310000000000000000000000000000000000000000000000000000000082523060048301525afa9081156124c2575f91613afa575090565b90506020813d602011613b21575b81613b1560209383612e2e565b81010312610330575190565b3d9150613b08565b9190915f8382019384129112908015821691151617611d9457565b6020830151955f9586959194913373ffffffffffffffffffffffffffffffffffffffff851614613d2d5760808416613b7e575b5050505050565b613c66926138ef613c6092613c4c946040519586947f575e24b4000000000000000000000000000000000000000000000000000000006020870152336024870152613c16604487018c73ffffffffffffffffffffffffffffffffffffffff6080809282815116855282602082015116602086015262ffffff6040820151166040860152606081015160020b6060860152015116910152565b8051151560e487015260208101516101048701526040015173ffffffffffffffffffffffffffffffffffffffff16610124860152565b61014061014485015261016484019161306c565b82613f25565b916060835103613d05576040015162ffffff166280000014613cf9575b600816613c94575b80808080613b77565b604001519250608083901d600f0b8015613c8b57613cb5905f861295613b29565b9315613cf1575f84135b613cc9575f613c8b565b7ffa0b71d6000000000000000000000000000000000000000000000000000000005f5260045ffd5b5f8412613cbf565b60608201519350613c83565b7f1e048e1d000000000000000000000000000000000000000000000000000000005f5260045ffd5b505f965086955050505050565b90600f0b90600f0b01907fffffffffffffffffffffffffffffffff8000000000000000000000000000000082126f7fffffffffffffffffffffffffffffff831317611d9457565b9196959394929473ffffffffffffffffffffffffffffffffffffffff83163314613f18578460801d94600f0b938860408516613e40575b50505050505f9481600f0b15801590613e34575b613dd8575b5050509190565b613e0f9395505f60208201511290511515145f14613e17576fffffffffffffffffffffffffffffffff169060801b175b80936145bf565b5f8080613dd1565b906fffffffffffffffffffffffffffffffff169060801b17613e08565b5082600f0b1515613dcc565b613efc613f08946138ef6118ed95613f0e999895613ee1613c16966040519788967fb47b2fb1000000000000000000000000000000000000000000000000000000006020890152336024890152604488019073ffffffffffffffffffffffffffffffffffffffff6080809282815116855282602082015116602086015262ffffff6040820151166040860152606081015160020b6060860152015116910152565b8c61014485015261016061016485015261018484019161306c565b6004821615159161459f565b90613d3a565b5f80808088613db8565b5050505050909150905f90565b9190918251925f8060208301958682865af115613fc3575050604051917fffffffffffffffffffffffffffffffffffffffffffffffffffffffffffffffe0603f3d011683016040523d83523d9060208401915f833e6020845110918215613f8f575b5050613d0557565b5190517fffffffff000000000000000000000000000000000000000000000000000000009182169116141590505f80613f87565b5183517fffffffff00000000000000000000000000000000000000000000000000000000811691600481106140d7575b50507fffffffff000000000000000000000000000000000000000000000000000000007fffffffffffffffffffffffffffffffffffffffffffffffffffffffffffffffe0601f3d01169173ffffffffffffffffffffffffffffffffffffffff604051947f90bfb865000000000000000000000000000000000000000000000000000000008652166004850152166024830152608060448301528060a00160648301523d60848301523d5f60a484013e7fa9e35b2f0000000000000000000000000000000000000000000000000000000060c4828401600460a4820152015260e40190fd5b7fffffffff000000000000000000000000000000000000000000000000000000009250829060040360031b1b16168280613ff3565b919060020b9060020b9081810761413a5705908160081d5f52602052600160ff60405f2092161b8154189055565b601c906044926040519163d4d8f3e683526020830152604082015201fd5b60020b908160ff1d82810118620d89e8811161449e5763ffffffff9192600182167001fffcb933bd6fad37aa2d162d1a59400102700100000000000000000000000000000000189160028116614482575b60048116614466575b6008811661444a575b6010811661442e575b60208116614412575b604081166143f6575b608081166143da575b61010081166143be575b61020081166143a2575b6104008116614386575b610800811661436a575b611000811661434e575b6120008116614332575b6140008116614316575b61800081166142fa575b6201000081166142de575b6202000081166142c3575b6204000081166142a8575b620800001661428f575b5f12614268575b0160201c90565b7fffffffffffffffffffffffffffffffffffffffffffffffffffffffffffffffff04614261565b6b048a170391f7dc42444e8fa290910260801c9061425a565b6d2216e584f5fa1ea926041bedfe9890920260801c91614250565b916e5d6af8dedb81196699c329225ee6040260801c91614245565b916f09aa508b5b7a84e1c677de54f3e99bc90260801c9161423a565b916f31be135f97d08fd981231505542fcfa60260801c9161422f565b916f70d869a156d2a1b890bb3df62baf32f70260801c91614225565b916fa9f746462d870fdf8a65dc1f90e061e50260801c9161421b565b916fd097f3bdfd2022b8845ad8f792aa58250260801c91614211565b916fe7159475a2c29b7443b29c7fa6e889d90260801c91614207565b916ff3392b0822b70005940c7a398e4b70f30260801c916141fd565b916ff987a7253ac413176f2b074cf7815e540260801c916141f3565b916ffcbe86c7900a88aedcffc83b479aa3a40260801c916141e9565b916ffe5dee046a99a2a811c461f1969c30530260801c916141df565b916fff2ea16466c96a3843ec78b326b528610260801c916141d6565b916fff973b41fa98c081472e6896dfb254c00260801c916141cd565b916fffcb9843d60f6159c9db58835c9266440260801c916141c4565b916fffe5caca7e10e4e61c3624eaa0941cd00260801c916141bb565b916ffff2e50f5f656932ef12357cf3c7fdcc0260801c916141b2565b916ffff97272373d413259a46990580e213a0260801c916141a9565b827f8b86327a000000000000000000000000000000000000000000000000000000005f5260045260245ffd5b905f83600f0b125f146144ff576144f5925f036fffffffffffffffffffffffffffffffff1691615a3d565b5f81126130c85790565b61451b926fffffffffffffffffffffffffffffffff16916159e2565b5f81126130c8575f0390565b905f83600f0b125f14614552576144f5925f036fffffffffffffffffffffffffffffffff1691615b34565b61451b926fffffffffffffffffffffffffffffffff1691615a7d565b906fffffffffffffffffffffffffffffffff90600f0b911601908160801c61459257565b6393dafdf15f526004601cfd5b906145a991613f25565b9015613a8d576040815103613d05576040015190565b6145e2906145d48360801d8260801d03613785565b92600f0b90600f0b03613785565b6fffffffffffffffffffffffffffffffff169060801b1790565b73fffd8963efd1fc6a506488495d951d516396168273ffffffffffffffffffffffffffffffffffffffff7ffffffffffffffffffffffffffffffffffffffffffffffffffffffffefffd895d830116116148e05777ffffffffffffffffffffffffffffffffffffffff000000008160201b168060ff61467983615bdb565b1691608083106148d457507fffffffffffffffffffffffffffffffffffffffffffffffffffffffffffffff8182011c5b800280607f1c8160ff1c1c800280607f1c8160ff1c1c800280607f1c8160ff1c1c800280607f1c8160ff1c1c800280607f1c8160ff1c1c800280607f1c8160ff1c1c80029081607f1c8260ff1c1c80029283607f1c8460ff1c1c80029485607f1c8660ff1c1c80029687607f1c8860ff1c1c80029889607f1c8a60ff1c1c80029a8b607f1c8c60ff1c1c80029c8d80607f1c9060ff1c1c800260cd1c6604000000000000169d60cc1c6608000000000000169c60cb1c6610000000000000169b60ca1c6620000000000000169a60c91c6640000000000000169960c81c6680000000000000169860c71c670100000000000000169760c61c670200000000000000169660c51c670400000000000000169560c41c670800000000000000169460c31c671000000000000000169360c21c672000000000000000169260c11c674000000000000000169160c01c67800000000000000016907fffffffffffffffffffffffffffffffffffffffffffffffffffffffffffffff800160401b1717171717171717171717171717693627a301d71055774c85027ffffffffffffffffffffffffffffffffffd709b7e5480fba5a50fed5e62ffc556810160801d60020b906fdb2df09e81959a81455e260799a0632f0160801d60020b918282145f146148915750905090565b73ffffffffffffffffffffffffffffffffffffffff1673ffffffffffffffffffffffffffffffffffffffff6148c584614158565b16116148cf575090565b905090565b905081607f031b6146a9565b73ffffffffffffffffffffffffffffffffffffffff907f61487524000000000000000000000000000000000000000000000000000000005f521660045260245ffd5b811561492c570490565b7f4e487b71000000000000000000000000000000000000000000000000000000005f52601260045260245ffd5b6040519290915f61496985612df6565b5f855260208501925f845260408601955f875280968654956040860151159586155f146156f557610fff8860b81c16945b8151925f948a73ffffffffffffffffffffffffffffffffffffffff16918288528b60a01c60020b90526fffffffffffffffffffffffffffffffff60038d0154169052608083015162400000811615155f146156e65762bfffff166149fd8161368e565b61ffff88166156cb575b8096620f424062ffffff8316101561569a575b8451156156845750508861562457606083019073ffffffffffffffffffffffffffffffffffffffff825116818110156155ed5750505173ffffffffffffffffffffffffffffffffffffffff166401000276a38111156155c257505b604051986101008a018a811067ffffffffffffffff821117611eb1576040525f8a525f60208b01525f60408b01525f60608b01525f60808b01525f60a08b01525f60c08b015288155f146155b45760018b0154949390945b60e08b01525b8015801561557a575b6154205788868d8c8e73ffffffffffffffffffffffffffffffffffffffff8351168252602083015160020b602089015160020b90815f8183071291050386155f14615275576fffffffffffffffffffffffffffffffff937ffffffffffffffffffffffffffffffffffffffffffffffffffffffffffff2761860409460019484600560ff60609716938260020b60081d890b5f5201602052875f207fffffffffffffffffffffffffffffffffffffffffffffffffffffffffffffffff8460ff031c9054169283151593845f146152635790614bb760ff92615bdb565b90031660020b900360020b0260020b5b905b15158684015260020b8060208401521315615238575b620d89e8602082015160020b121561522a575b73ffffffffffffffffffffffffffffffffffffffff614c17602083015160020b614158565b16918291015273ffffffffffffffffffffffffffffffffffffffff8551169673ffffffffffffffffffffffffffffffffffffffff60608c0151169283911516818310189118021892015116928d73ffffffffffffffffffffffffffffffffffffffff8316821015915f87125f1461507f5762ffffff8516620f424003614c9f81895f03615785565b94841561506e57614cb1888483615a7d565b955b868110614fb257509660a093929173ffffffffffffffffffffffffffffffffffffffff98978891620f424062ffffff8316145f14614f9e575050865b955b15614f905791614d0092615a3d565b925b60c0820152015260808d0152168c525f8351135f14614f605760a08a0151905f82126130c8570392614d3d60808b015160c08c015190612ffa565b5f81126130c8578103908113600116611d9457935b61ffff8716614f18575b6fffffffffffffffffffffffffffffffff60408d01511680614efe575b5073ffffffffffffffffffffffffffffffffffffffff8c511673ffffffffffffffffffffffffffffffffffffffff60608c01511681145f14614ec2575060408a0151614e10575b88614e03577fffffffffffffffffffffffffffffffffffffffffffffffffffffffffffffffff60208b015160020b0160020b5b60020b60208d01525b9392614ad3565b60208a015160020b614df3565b88614e96576fffffffffffffffffffffffffffffffff614e7d8d8d8d600460e08201519260206002820154935b015160020b60020b5f520160205260405f2091600183019081549003905560028201908154900390555460801d908c15614e88575b60400151831661456e565b1660408d0152614dc0565b5f91909103600f0b90614e72565b6fffffffffffffffffffffffffffffffff614e7d8d8d8d6004600183015492602060e084015193614e3d565b73ffffffffffffffffffffffffffffffffffffffff8b51168103614ee7575b50614dfc565b614ef0906145fc565b60020b60208d01525f614ee1565b60c08b015160801b0460e08b01510160e08b01525f614d79565b9662ffffff861661ffff881603614f435760c08a0151905b8160c08c01510360c08c01520196614d5c565b620f424060808b015161ffff89169060c08d015101020490614f30565b60808a015160c08b015101905f82126130c857019260a08a01515f81126130c857614f8a91613b29565b93614d52565b614f9992615b34565b614d00565b62ffffff614fad921689615c68565b614cef565b9650505092505082918415811517615061578e60a09173ffffffffffffffffffffffffffffffffffffffff96845f14614ffc57614ff0878284615d07565b80978a015f0395614cf1565b87871161503a576150356150306150286fffffffffffffffffffffffffffffffff84168a60601b614922565b8a8516612ffa565b615d9b565b614ff0565b61503561503061505c6fffffffffffffffffffffffffffffffff84168a61588a565b615028565b634f2461b85f526004601cfd5b6150798882856159e2565b95614cb3565b9193509190831561521957615095858284615a3d565b915b8287106150f7579073ffffffffffffffffffffffffffffffffffffffff9560a09280965b156150e857916150ca92615a7d565b925b6150e362ffffff8d16620f42408190039086615c68565b614d02565b6150f1926159e2565b926150cc565b50915050838315821517615061578d83156151ef575073ffffffffffffffffffffffffffffffffffffffff851161519c578460601b6fffffffffffffffffffffffffffffffff851680820615159104015b73ffffffffffffffffffffffffffffffffffffffff8316928184111561518f578f939573ffffffffffffffffffffffffffffffffffffffff60a093819803165b80966150bb565b634323a5555f526004601cfd5b6fffffffffffffffffffffffffffffffff84166151c7816c0100000000000000000000000088615943565b90801561492c576c010000000000000000000000008709156151485760010180615148575f80fd5b9180856152148873ffffffffffffffffffffffffffffffffffffffff9860a095615c91565b615188565b615224858383615b34565b91615097565b620d89e86020820152614bf2565b7ffffffffffffffffffffffffffffffffffffffffffffffffffffffffffff276186020820152614bdf565b5060020b900360020b0260020b614bc7565b60019194939650600592955001938460020b60081d60010b5f520160205260405f207fffffffffffffffffffffffffffffffffffffffffffffffffffffffffffffffff600160ff86161b0119905416908d8b831592831597885f146153c15750505050610330578f9160018f8f96907ffffffffffffffffffffffffffffffffffffffffffffffffffffffffffff276186060928f989560409660ff896fffffffffffffffffffffffffffffffff9a5f03166101e07f804040554300526644320000502061067405302602000010750620017611707760fc7fb6db6db6ddddddddd34d34d349249249210842108c6318c639ce739cffffffff840260f81c161b60f71c167e1f0d1e100c1d070f090b19131c1706010e11080a1a141802121b1503160405601f85851693831c63d76453e004161a17031660020b9060020b0160020b0260020b5b90614bc9565b90956fffffffffffffffffffffffffffffffff955060409450600193987ffffffffffffffffffffffffffffffffffffffffffffffffffffffffffff27618918960ff6060969b811681031660020b9060020b0160020b0260020b6153bb565b949891955099969298919598602088015160a01b76ffffff0000000000000000000000000000000000000000167fffffffffffffffffff000000000000000000000000000000000000000000000073ffffffffffffffffffffffffffffffffffffffff8a51169216171782556fffffffffffffffffffffffffffffffff6003830154166fffffffffffffffffffffffffffffffff604089015116809103615535575b5082156155265760e060029101519101555b825190155f82121461551057506154ee6154f69293613785565b925103613785565b6fffffffffffffffffffffffffffffffff169060801b1793565b6154f69250906155209103613785565b91613785565b60e060019101519101556154d4565b6fffffffffffffffffffffffffffffffff167fffffffffffffffffffffffffffffffff000000000000000000000000000000006003840154161760038301555f6154c2565b5073ffffffffffffffffffffffffffffffffffffffff8c511673ffffffffffffffffffffffffffffffffffffffff60608501511614614adc565b60028b015494939094614acd565b7f9e4d7cc7000000000000000000000000000000000000000000000000000000005f5260045260245ffd5b60449250604051917f7c9c6e8f00000000000000000000000000000000000000000000000000000000835260048301526024820152fd5b606083019073ffffffffffffffffffffffffffffffffffffffff825116818111156155ed5750505173ffffffffffffffffffffffffffffffffffffffff1673fffd8963efd1fc6a506488495d951d5263988d268110156155c25750614a75565b9a509a50509950505050505050505f925f929190565b5f85511315614a1a577f96206246000000000000000000000000000000000000000000000000000000005f5260045ffd5b62ffffff610fff89169116620f424081830204910103614a07565b508960d01c62ffffff166149fd565b610fff8860c41c169461499a565b90808202917fffffffffffffffffffffffffffffffffffffffffffffffffffffffffffffffff828209918380841093039280840393847001000000000000000000000000000000001115610330571461577c57700100000000000000000000000000000000910990828211900360801b910360801c1790565b50505060801c90565b818102907fffffffffffffffffffffffffffffffffffffffffffffffffffffffffffffffff83820990828083109203918083039283620f424011156103305714615804577fde8f6cefed634549b62c77574f722e1ac57e23f24d8fd5cb790fb65668c2613993620f4240910990828211900360fa1b910360061c170290565b5050620f424091500490565b90808202917fffffffffffffffffffffffffffffffffffffffffffffffffffffffffffffffff828209918380841093039280840393846c0100000000000000000000000011156103305714615881576c01000000000000000000000000910990828211900360a01b910360601c1790565b50505060601c90565b908160601b907fffffffffffffffffffffffffffffffffffffffffffffffffffffffffffffffff6c01000000000000000000000000840992828085109403938085039485841115610330571461593c576c0100000000000000000000000082910981805f03168092046002816003021880820260020302808202600203028082026002030280820260020302808202600203028091026002030293600183805f03040190848311900302920304170290565b5091500490565b91818302917fffffffffffffffffffffffffffffffffffffffffffffffffffffffffffffffff8185099383808610950394808603958685111561033057146159da579082910981805f03168092046002816003021880820260020302808202600203028082026002030280820260020302808202600203028091026002030293600183805f03040190848311900302920304170290565b505091500490565b6fffffffffffffffffffffffffffffffff6c010000000000000000000000009173ffffffffffffffffffffffffffffffffffffffff80600195169116038060ff1d90810118931692615a348185615810565b93091515160190565b6fffffffffffffffffffffffffffffffff9073ffffffffffffffffffffffffffffffffffffffff8061364f9594169116038060ff1d908101189116615810565b9073ffffffffffffffffffffffffffffffffffffffff811673ffffffffffffffffffffffffffffffffffffffff831611615b2e575b73ffffffffffffffffffffffffffffffffffffffff8216928315615b22577bffffffffffffffffffffffffffffffff00000000000000000000000073ffffffffffffffffffffffffffffffffffffffff615b16948185169403169160601b16615c68565b90808206151591040190565b62bfc9215f526004601cfd5b90615ab2565b73ffffffffffffffffffffffffffffffffffffffff821673ffffffffffffffffffffffffffffffffffffffff821611615bd5575b73ffffffffffffffffffffffffffffffffffffffff8116918215615b225761364f937bffffffffffffffffffffffffffffffff00000000000000000000000073ffffffffffffffffffffffffffffffffffffffff615bd0948185169403169160601b16615943565b614922565b90615b68565b8015610330577f07060605060205000602030205040001060502050303040105050304000000006f8421084210842108cc6318c6db6d54be826fffffffffffffffffffffffffffffffff1060071b83811c67ffffffffffffffff1060061b1783811c63ffffffff1060051b1783811c61ffff1060041b1783811c60ff1060031b1792831c1c601f161a1790565b929190615c76828286615943565b93821561492c5709615c8457565b9060010190811561033057565b91908115615d02577bffffffffffffffffffffffffffffffff00000000000000000000000073ffffffffffffffffffffffffffffffffffffffff9160601b169216918282029183838311918404141615615cf55761364f9261503092820391615c68565b63f5c787f15f526004601cfd5b505090565b90918015615d955773ffffffffffffffffffffffffffffffffffffffff7bffffffffffffffffffffffffffffffff000000000000000000000000819460601b16921680820281615d578483614922565b14615d7d575b5090615d6c615d719284614922565b612ffa565b80820615159104011690565b8301838110615d5d579150615d9192615c68565b1690565b50905090565b9073ffffffffffffffffffffffffffffffffffffffff82169182036130c85756fea2646970667358221220e6469a98e59dc2a32abab02c5d9f53f45df5b4d99bac03ea727f043d7a2445ca64736f6c634300081a0033","opcodes":"PUSH1 0xA0 CALLVALUE PUSH1 0xA0 JUMPI PUSH1 0x1F PUSH2 0x5EAB CODESIZE DUP2 SWAP1 SUB SWAP2 DUP3 ADD PUSH1 0x1F NOT AND DUP4 ADD SWAP2 PUSH1 0x1 PUSH1 0x1 PUSH1 0x40 SHL SUB DUP4 GT DUP5 DUP5 LT OR PUSH1 0xA4 JUMPI DUP1 DUP5 SWAP3 PUSH1 0x20 SWAP5 PUSH1 0x40 MSTORE DUP4 CODECOPY DUP2 ADD SUB SLT PUSH1 0xA0 JUMPI MLOAD PUSH1 0x1 PUSH1 0x1 PUSH1 0xA0 SHL SUB DUP2 AND SWAP1 DUP2 SWAP1 SUB PUSH1 0xA0 JUMPI PUSH0 DUP1 SLOAD PUSH1 0x1 PUSH1 0x1 PUSH1 0xA0 SHL SUB NOT AND DUP3 OR DUP2 SSTORE PUSH1 0x40 MLOAD SWAP2 SWAP1 PUSH32 0x8BE0079C531659141344CD1FD0A4F28419497F9722A3DAAFE3B4186F6B6457E0 DUP2 DUP1 LOG3 ADDRESS PUSH1 0x80 MSTORE PUSH2 0x5DF2 SWAP1 DUP2 PUSH2 0xB9 DUP3 CODECOPY PUSH1 0x80 MLOAD DUP2 PUSH2 0x3526 ADD MSTORE RETURN JUMPDEST PUSH0 DUP1 REVERT JUMPDEST PUSH4 0x4E487B71 PUSH1 0xE0 SHL PUSH0 MSTORE PUSH1 0x41 PUSH1 0x4 MSTORE PUSH1 0x24 PUSH0 REVERT INVALID PUSH1 0xA0 DUP1 PUSH1 0x40 MSTORE PUSH1 0x4 CALLDATASIZE LT ISZERO PUSH2 0x12 JUMPI PUSH0 DUP1 REVERT JUMPDEST PUSH0 CALLDATALOAD PUSH1 0xE0 SHR SWAP1 DUP2 PUSH3 0xFDD58E EQ PUSH2 0x2CD5 JUMPI POP DUP1 PUSH4 0x1FFC9A7 EQ PUSH2 0x2C16 JUMPI DUP1 PUSH4 0x95BCDB6 EQ PUSH2 0x2B6C JUMPI DUP1 PUSH4 0xB0D9C09 EQ PUSH2 0x2AE0 JUMPI DUP1 PUSH4 0x11DA60B4 EQ PUSH2 0x2A85 JUMPI DUP1 PUSH4 0x156E29F6 EQ PUSH2 0x29D5 JUMPI DUP1 PUSH4 0x1E2EAEAF EQ PUSH2 0x299B JUMPI DUP1 PUSH4 0x234266D7 EQ PUSH2 0x26FC JUMPI DUP1 PUSH4 0x2D771389 EQ PUSH2 0x2651 JUMPI DUP1 PUSH4 0x35FD631A EQ PUSH2 0x25DD JUMPI DUP1 PUSH4 0x3DD45ADB EQ PUSH2 0x2579 JUMPI DUP1 PUSH4 0x426A8493 EQ PUSH2 0x24F5 JUMPI DUP1 PUSH4 0x48C89491 EQ PUSH2 0x226A JUMPI DUP1 PUSH4 0x52759651 EQ PUSH2 0x2152 JUMPI DUP1 PUSH4 0x558A7297 EQ PUSH2 0x207B JUMPI DUP1 PUSH4 0x598AF9E7 EQ PUSH2 0x1FE3 JUMPI DUP1 PUSH4 0x5A6BCFDA EQ PUSH2 0x144F JUMPI DUP1 PUSH4 0x6276CBBE EQ PUSH2 0xF96 JUMPI DUP1 PUSH4 0x7E87CE7D EQ PUSH2 0xE59 JUMPI DUP1 PUSH4 0x80F0B44C EQ PUSH2 0xD87 JUMPI DUP1 PUSH4 0x8161B874 EQ PUSH2 0xC31 JUMPI DUP1 PUSH4 0x8DA5CB5B EQ PUSH2 0xBE1 JUMPI DUP1 PUSH4 0x97E8CD4E EQ PUSH2 0xB7E JUMPI DUP1 PUSH4 0x9BF6645F EQ PUSH2 0xB31 JUMPI DUP1 PUSH4 0xA5841194 EQ PUSH2 0xA66 JUMPI DUP1 PUSH4 0xB6363CF2 EQ PUSH2 0x9D5 JUMPI DUP1 PUSH4 0xDBD035FF EQ PUSH2 0x97F JUMPI DUP1 PUSH4 0xF02DE3B2 EQ PUSH2 0x92E JUMPI DUP1 PUSH4 0xF135BAAA EQ PUSH2 0x8F4 JUMPI DUP1 PUSH4 0xF2FDE38B EQ PUSH2 0x848 JUMPI DUP1 PUSH4 0xF3CD914C EQ PUSH2 0x4FF JUMPI DUP1 PUSH4 0xF5298ACA EQ PUSH2 0x334 JUMPI PUSH4 0xFE99049A EQ PUSH2 0x186 JUMPI PUSH0 DUP1 REVERT JUMPDEST CALLVALUE PUSH2 0x330 JUMPI PUSH1 0x80 PUSH32 0xFFFFFFFFFFFFFFFFFFFFFFFFFFFFFFFFFFFFFFFFFFFFFFFFFFFFFFFFFFFFFFFC CALLDATASIZE ADD SLT PUSH2 0x330 JUMPI PUSH2 0x1BD PUSH2 0x2D3F JUMP JUMPDEST PUSH2 0x1C5 PUSH2 0x2D62 JUMP JUMPDEST SWAP1 PUSH1 0x44 CALLDATALOAD SWAP2 PUSH32 0x1B3D7EDB2E9C0B0E7C525B20AAAEF0F5940D2ED71663C7D39266ECAFAC728859 PUSH2 0x279 PUSH20 0xFFFFFFFFFFFFFFFFFFFFFFFFFFFFFFFFFFFFFFFF DUP1 PUSH1 0x64 CALLDATALOAD SWAP6 AND SWAP4 DUP5 CALLER EQ ISZERO DUP1 PUSH2 0x30D JUMPI JUMPDEST PUSH2 0x287 JUMPI JUMPDEST DUP5 PUSH0 MSTORE PUSH1 0x4 PUSH1 0x20 MSTORE PUSH1 0x40 PUSH0 KECCAK256 DUP8 PUSH0 MSTORE PUSH1 0x20 MSTORE PUSH1 0x40 PUSH0 KECCAK256 PUSH2 0x23A DUP8 DUP3 SLOAD PUSH2 0x2FED JUMP JUMPDEST SWAP1 SSTORE AND SWAP4 DUP5 PUSH0 MSTORE PUSH1 0x4 PUSH1 0x20 MSTORE PUSH1 0x40 PUSH0 KECCAK256 DUP7 PUSH0 MSTORE PUSH1 0x20 MSTORE PUSH1 0x40 PUSH0 KECCAK256 PUSH2 0x25F DUP3 DUP3 SLOAD PUSH2 0x2FFA JUMP JUMPDEST SWAP1 SSTORE PUSH1 0x40 DUP1 MLOAD CALLER DUP2 MSTORE PUSH1 0x20 DUP2 ADD SWAP3 SWAP1 SWAP3 MSTORE SWAP1 SWAP2 DUP3 SWAP2 DUP3 ADD SWAP1 JUMP JUMPDEST SUB SWAP1 LOG4 PUSH1 0x20 PUSH1 0x40 MLOAD PUSH1 0x1 DUP2 MSTORE RETURN JUMPDEST DUP5 PUSH0 MSTORE PUSH1 0x5 PUSH1 0x20 MSTORE PUSH1 0x40 PUSH0 KECCAK256 DUP3 CALLER AND PUSH0 MSTORE PUSH1 0x20 MSTORE PUSH1 0x40 PUSH0 KECCAK256 DUP8 PUSH0 MSTORE PUSH1 0x20 MSTORE PUSH1 0x40 PUSH0 KECCAK256 SLOAD DUP7 PUSH32 0xFFFFFFFFFFFFFFFFFFFFFFFFFFFFFFFFFFFFFFFFFFFFFFFFFFFFFFFFFFFFFFFF DUP3 SUB PUSH2 0x2DA JUMPI JUMPDEST POP POP PUSH2 0x219 JUMP JUMPDEST PUSH2 0x2E3 SWAP2 PUSH2 0x2FED JUMP JUMPDEST DUP6 PUSH0 MSTORE PUSH1 0x5 PUSH1 0x20 MSTORE PUSH1 0x40 PUSH0 KECCAK256 DUP4 CALLER AND PUSH0 MSTORE PUSH1 0x20 MSTORE PUSH1 0x40 PUSH0 KECCAK256 DUP9 PUSH0 MSTORE PUSH1 0x20 MSTORE PUSH1 0x40 PUSH0 KECCAK256 SSTORE PUSH0 DUP7 PUSH2 0x2D3 JUMP JUMPDEST POP DUP5 PUSH0 MSTORE PUSH1 0x3 PUSH1 0x20 MSTORE PUSH1 0x40 PUSH0 KECCAK256 DUP3 CALLER AND PUSH0 MSTORE PUSH1 0x20 MSTORE PUSH1 0xFF PUSH1 0x40 PUSH0 KECCAK256 SLOAD AND ISZERO PUSH2 0x214 JUMP JUMPDEST PUSH0 DUP1 REVERT JUMPDEST CALLVALUE PUSH2 0x330 JUMPI PUSH2 0x342 CALLDATASIZE PUSH2 0x2D85 JUMP JUMPDEST PUSH32 0xC090FC4683624CFC3884E9D8DE5ECA132F2D0EC062AFF75D43C0465D5CEEAB23 TLOAD ISZERO PUSH2 0x4D7 JUMPI PUSH32 0x1B3D7EDB2E9C0B0E7C525B20AAAEF0F5940D2ED71663C7D39266ECAFAC728859 PUSH2 0x3ED PUSH20 0xFFFFFFFFFFFFFFFFFFFFFFFFFFFFFFFFFFFFFFFF DUP1 PUSH0 SWAP6 AND SWAP6 PUSH2 0x3BB PUSH2 0x3B3 DUP7 PUSH2 0x30AA JUMP JUMPDEST CALLER SWAP1 DUP10 PUSH2 0x30F0 JUMP JUMPDEST AND SWAP3 CALLER DUP5 EQ ISZERO DUP1 PUSH2 0x4A0 JUMPI JUMPDEST PUSH2 0x3F2 JUMPI JUMPDEST DUP4 DUP6 MSTORE PUSH1 0x4 PUSH1 0x20 MSTORE PUSH1 0x40 DUP6 KECCAK256 DUP7 DUP7 MSTORE PUSH1 0x20 MSTORE PUSH1 0x40 DUP6 KECCAK256 PUSH2 0x25F DUP3 DUP3 SLOAD PUSH2 0x2FED JUMP JUMPDEST SUB SWAP1 LOG4 STOP JUMPDEST DUP4 DUP6 MSTORE PUSH1 0x5 PUSH1 0x20 MSTORE PUSH1 0x40 DUP6 KECCAK256 PUSH20 0xFFFFFFFFFFFFFFFFFFFFFFFFFFFFFFFFFFFFFFFF CALLER AND DUP7 MSTORE PUSH1 0x20 MSTORE PUSH1 0x40 DUP6 KECCAK256 DUP7 DUP7 MSTORE PUSH1 0x20 MSTORE PUSH1 0x40 DUP6 KECCAK256 SLOAD DUP2 PUSH32 0xFFFFFFFFFFFFFFFFFFFFFFFFFFFFFFFFFFFFFFFFFFFFFFFFFFFFFFFFFFFFFFFF DUP3 SUB PUSH2 0x459 JUMPI JUMPDEST POP POP PUSH2 0x3CC JUMP JUMPDEST PUSH2 0x462 SWAP2 PUSH2 0x2FED JUMP JUMPDEST DUP5 DUP7 MSTORE PUSH1 0x5 PUSH1 0x20 MSTORE PUSH1 0x40 DUP7 KECCAK256 PUSH20 0xFFFFFFFFFFFFFFFFFFFFFFFFFFFFFFFFFFFFFFFF CALLER AND DUP8 MSTORE PUSH1 0x20 MSTORE PUSH1 0x40 DUP7 KECCAK256 DUP8 DUP8 MSTORE PUSH1 0x20 MSTORE PUSH1 0x40 DUP7 KECCAK256 SSTORE DUP7 DUP2 PUSH2 0x452 JUMP JUMPDEST POP DUP4 DUP6 MSTORE PUSH1 0x3 PUSH1 0x20 MSTORE PUSH1 0x40 DUP6 KECCAK256 PUSH20 0xFFFFFFFFFFFFFFFFFFFFFFFFFFFFFFFFFFFFFFFF CALLER AND DUP7 MSTORE PUSH1 0x20 MSTORE PUSH1 0xFF PUSH1 0x40 DUP7 KECCAK256 SLOAD AND ISZERO PUSH2 0x3C7 JUMP JUMPDEST PUSH32 0x54E3CA0D00000000000000000000000000000000000000000000000000000000 PUSH0 MSTORE PUSH1 0x4 PUSH0 REVERT JUMPDEST CALLVALUE PUSH2 0x330 JUMPI PUSH2 0x120 PUSH32 0xFFFFFFFFFFFFFFFFFFFFFFFFFFFFFFFFFFFFFFFFFFFFFFFFFFFFFFFFFFFFFFFC CALLDATASIZE ADD SLT PUSH2 0x330 JUMPI PUSH2 0x538 CALLDATASIZE PUSH2 0x2E81 JUMP JUMPDEST PUSH1 0x60 PUSH32 0xFFFFFFFFFFFFFFFFFFFFFFFFFFFFFFFFFFFFFFFFFFFFFFFFFFFFFFFFFFFFFF5C CALLDATASIZE ADD SLT PUSH2 0x330 JUMPI PUSH1 0x40 MLOAD SWAP1 PUSH2 0x56F DUP3 PUSH2 0x2DF6 JUMP JUMPDEST PUSH1 0xA4 CALLDATALOAD DUP1 ISZERO ISZERO DUP2 SUB PUSH2 0x330 JUMPI DUP3 MSTORE PUSH1 0x20 DUP3 ADD SWAP1 PUSH1 0xC4 CALLDATALOAD DUP3 MSTORE PUSH1 0xE4 CALLDATALOAD SWAP1 PUSH20 0xFFFFFFFFFFFFFFFFFFFFFFFFFFFFFFFFFFFFFFFF DUP3 AND DUP3 SUB PUSH2 0x330 JUMPI PUSH1 0x40 DUP5 ADD SWAP2 DUP3 MSTORE PUSH2 0x104 CALLDATALOAD PUSH8 0xFFFFFFFFFFFFFFFF DUP2 GT PUSH2 0x330 JUMPI PUSH2 0x5D0 SWAP1 CALLDATASIZE SWAP1 PUSH1 0x4 ADD PUSH2 0x2F4D JUMP JUMPDEST SWAP3 SWAP1 SWAP4 PUSH32 0xC090FC4683624CFC3884E9D8DE5ECA132F2D0EC062AFF75D43C0465D5CEEAB23 TLOAD ISZERO PUSH2 0x4D7 JUMPI PUSH2 0x602 PUSH2 0x350F JUMP JUMPDEST MLOAD ISZERO PUSH2 0x820 JUMPI PUSH1 0xA0 DUP3 KECCAK256 SWAP3 DUP4 PUSH0 MSTORE PUSH1 0x6 PUSH1 0x20 MSTORE PUSH1 0x40 PUSH0 KECCAK256 SWAP1 PUSH2 0x623 DUP3 PUSH2 0x3576 JUMP JUMPDEST PUSH1 0x80 DUP5 ADD SWAP6 DUP5 DUP3 DUP3 DUP11 DUP11 MLOAD PUSH20 0xFFFFFFFFFFFFFFFFFFFFFFFFFFFFFFFFFFFFFFFF AND SWAP4 PUSH2 0x64E SWAP5 PUSH2 0x3B44 JUMP JUMPDEST SWAP1 SWAP5 SWAP2 SWAP6 PUSH1 0x60 DUP9 ADD MLOAD PUSH1 0x2 SIGNEXTEND SWAP1 DUP12 MLOAD ISZERO ISZERO SWAP1 MLOAD PUSH20 0xFFFFFFFFFFFFFFFFFFFFFFFFFFFFFFFFFFFFFFFF AND SWAP2 PUSH1 0x40 MLOAD SWAP9 PUSH2 0x685 DUP11 PUSH2 0x2E12 JUMP JUMPDEST DUP10 MSTORE PUSH1 0x20 DUP10 ADD MSTORE PUSH1 0x40 DUP9 ADD MSTORE PUSH1 0x60 DUP8 ADD MSTORE PUSH3 0xFFFFFF AND PUSH1 0x80 DUP7 ADD MSTORE DUP9 MLOAD ISZERO ISZERO PUSH0 EQ SWAP9 PUSH3 0xFFFFFF PUSH2 0x7A2 SWAP9 PUSH2 0x6DB PUSH2 0x78F SWAP9 PUSH1 0x20 SWAP14 PUSH2 0x800 JUMPI PUSH20 0xFFFFFFFFFFFFFFFFFFFFFFFFFFFFFFFFFFFFFFFF DUP12 MLOAD AND SWAP6 PUSH2 0x4959 JUMP JUMPDEST SWAP5 SWAP3 SWAP7 DUP3 SWAP2 SWAP3 PUSH2 0x7D3 JUMPI JUMPDEST POP POP PUSH20 0xFFFFFFFFFFFFFFFFFFFFFFFFFFFFFFFFFFFFFFFF DUP5 MLOAD AND SWAP4 DUP15 PUSH16 0xFFFFFFFFFFFFFFFFFFFFFFFFFFFFFFFF PUSH1 0x40 DUP4 ADD MLOAD AND SWAP2 ADD MLOAD PUSH1 0x2 SIGNEXTEND SWAP1 PUSH1 0x40 MLOAD SWAP6 DUP9 PUSH1 0x80 SAR PUSH1 0xF SIGNEXTEND DUP8 MSTORE DUP9 PUSH1 0xF SIGNEXTEND PUSH1 0x20 DUP9 ADD MSTORE PUSH1 0x40 DUP8 ADD MSTORE PUSH1 0x60 DUP7 ADD MSTORE PUSH1 0x80 DUP6 ADD MSTORE AND PUSH1 0xA0 DUP4 ADD MSTORE PUSH32 0x40E9CECB9F5F1F1C5B9C97DEC2917B7EE92E57BA5563708DACA94DD84AD7112F PUSH1 0xC0 CALLER SWAP4 LOG3 DUP7 PUSH20 0xFFFFFFFFFFFFFFFFFFFFFFFFFFFFFFFFFFFFFFFF DUP11 MLOAD AND PUSH2 0x3D81 JUMP JUMPDEST DUP1 SWAP5 SWAP2 SWAP5 PUSH2 0x7AA JUMPI JUMPDEST POP POP DUP3 CALLER SWAP2 PUSH2 0x3652 JUMP JUMPDEST PUSH1 0x40 MLOAD SWAP1 DUP2 MSTORE RETURN JUMPDEST PUSH20 0xFFFFFFFFFFFFFFFFFFFFFFFFFFFFFFFFFFFFFFFF PUSH2 0x7CC SWAP3 MLOAD AND SWAP1 DUP4 PUSH2 0x3652 JUMP JUMPDEST DUP5 DUP1 PUSH2 0x798 JUMP JUMPDEST PUSH20 0xFFFFFFFFFFFFFFFFFFFFFFFFFFFFFFFFFFFFFFFF AND PUSH0 MSTORE PUSH1 0x1 DUP16 MSTORE PUSH1 0x40 PUSH0 KECCAK256 SWAP1 DUP2 SLOAD ADD SWAP1 SSTORE DUP15 DUP1 PUSH2 0x6E6 JUMP JUMPDEST PUSH20 0xFFFFFFFFFFFFFFFFFFFFFFFFFFFFFFFFFFFFFFFF DUP15 DUP13 ADD MLOAD AND SWAP6 PUSH2 0x4959 JUMP JUMPDEST PUSH32 0xBE8B850700000000000000000000000000000000000000000000000000000000 PUSH0 MSTORE PUSH1 0x4 PUSH0 REVERT JUMPDEST CALLVALUE PUSH2 0x330 JUMPI PUSH1 0x20 PUSH32 0xFFFFFFFFFFFFFFFFFFFFFFFFFFFFFFFFFFFFFFFFFFFFFFFFFFFFFFFFFFFFFFFC CALLDATASIZE ADD SLT PUSH2 0x330 JUMPI PUSH32 0xFFFFFFFFFFFFFFFFFFFFFFFF0000000000000000000000000000000000000000 PUSH2 0x8A0 PUSH2 0x2D3F JUMP JUMPDEST PUSH20 0xFFFFFFFFFFFFFFFFFFFFFFFFFFFFFFFFFFFFFFFF PUSH0 SLOAD SWAP2 PUSH2 0x8C5 DUP3 DUP5 AND CALLER EQ PUSH2 0x3007 JUMP JUMPDEST AND SWAP2 DUP3 SWAP2 AND OR PUSH0 SSTORE CALLER PUSH32 0x8BE0079C531659141344CD1FD0A4F28419497F9722A3DAAFE3B4186F6B6457E0 PUSH0 DUP1 LOG3 STOP JUMPDEST CALLVALUE PUSH2 0x330 JUMPI PUSH1 0x20 PUSH32 0xFFFFFFFFFFFFFFFFFFFFFFFFFFFFFFFFFFFFFFFFFFFFFFFFFFFFFFFFFFFFFFFC CALLDATASIZE ADD SLT PUSH2 0x330 JUMPI PUSH1 0x4 CALLDATALOAD TLOAD PUSH0 MSTORE PUSH1 0x20 PUSH0 RETURN JUMPDEST CALLVALUE PUSH2 0x330 JUMPI PUSH0 PUSH32 0xFFFFFFFFFFFFFFFFFFFFFFFFFFFFFFFFFFFFFFFFFFFFFFFFFFFFFFFFFFFFFFFC CALLDATASIZE ADD SLT PUSH2 0x330 JUMPI PUSH1 0x20 PUSH20 0xFFFFFFFFFFFFFFFFFFFFFFFFFFFFFFFFFFFFFFFF PUSH1 0x2 SLOAD AND PUSH1 0x40 MLOAD SWAP1 DUP2 MSTORE RETURN JUMPDEST CALLVALUE PUSH2 0x330 JUMPI PUSH2 0x98D CALLDATASIZE PUSH2 0x2F7B JUMP JUMPDEST PUSH1 0x40 MLOAD SWAP2 PUSH1 0x40 DUP4 PUSH1 0x20 DUP2 MSTORE DUP4 PUSH1 0x20 DUP3 ADD MSTORE ADD SWAP2 PUSH1 0x5 SHL DUP4 ADD SWAP2 PUSH1 0x20 DUP1 PUSH1 0x40 DUP6 ADD SWAP4 SWAP3 JUMPDEST DUP4 CALLDATALOAD SLOAD DUP2 MSTORE ADD SWAP2 ADD SWAP1 DUP5 DUP4 DUP3 LT ISZERO PUSH2 0x9CC JUMPI POP PUSH1 0x20 DUP1 SWAP2 PUSH2 0x9B0 JUMP JUMPDEST PUSH1 0x40 DUP2 DUP7 SUB ADD SWAP1 RETURN JUMPDEST CALLVALUE PUSH2 0x330 JUMPI PUSH1 0x40 PUSH32 0xFFFFFFFFFFFFFFFFFFFFFFFFFFFFFFFFFFFFFFFFFFFFFFFFFFFFFFFFFFFFFFFC CALLDATASIZE ADD SLT PUSH2 0x330 JUMPI PUSH2 0xA0C PUSH2 0x2D3F JUMP JUMPDEST PUSH20 0xFFFFFFFFFFFFFFFFFFFFFFFFFFFFFFFFFFFFFFFF PUSH2 0xA29 PUSH2 0x2D62 JUMP JUMPDEST SWAP2 AND PUSH0 MSTORE PUSH1 0x3 PUSH1 0x20 MSTORE PUSH20 0xFFFFFFFFFFFFFFFFFFFFFFFFFFFFFFFFFFFFFFFF PUSH1 0x40 PUSH0 KECCAK256 SWAP2 AND PUSH0 MSTORE PUSH1 0x20 MSTORE PUSH1 0x20 PUSH1 0xFF PUSH1 0x40 PUSH0 KECCAK256 SLOAD AND PUSH1 0x40 MLOAD SWAP1 ISZERO ISZERO DUP2 MSTORE RETURN JUMPDEST CALLVALUE PUSH2 0x330 JUMPI PUSH1 0x20 PUSH32 0xFFFFFFFFFFFFFFFFFFFFFFFFFFFFFFFFFFFFFFFFFFFFFFFFFFFFFFFFFFFFFFFC CALLDATASIZE ADD SLT PUSH2 0x330 JUMPI PUSH2 0xA9D PUSH2 0x2D3F JUMP JUMPDEST PUSH20 0xFFFFFFFFFFFFFFFFFFFFFFFFFFFFFFFFFFFFFFFF DUP2 AND SWAP1 DUP2 PUSH2 0xAE1 JUMPI POP POP PUSH0 PUSH32 0x27E098C505D44EC3574004BCA052AABF76BD35004C182099D8C575FB238593B9 TSTORE STOP JUMPDEST PUSH2 0xAEA SWAP1 PUSH2 0x3A92 JUMP JUMPDEST SWAP1 PUSH32 0x27E098C505D44EC3574004BCA052AABF76BD35004C182099D8C575FB238593B9 TSTORE PUSH32 0x1E0745A7DB1623981F0B2A5D4232364C00787266EB75AD546F190E6CEBE9BD95 TSTORE STOP JUMPDEST CALLVALUE PUSH2 0x330 JUMPI PUSH2 0xB3F CALLDATASIZE PUSH2 0x2F7B JUMP JUMPDEST PUSH1 0x40 MLOAD SWAP2 PUSH1 0x40 DUP4 PUSH1 0x20 DUP2 MSTORE DUP4 PUSH1 0x20 DUP3 ADD MSTORE ADD SWAP2 PUSH1 0x5 SHL DUP4 ADD SWAP2 PUSH1 0x20 DUP1 PUSH1 0x40 DUP6 ADD SWAP4 SWAP3 JUMPDEST DUP4 CALLDATALOAD TLOAD DUP2 MSTORE ADD SWAP2 ADD SWAP1 DUP5 DUP4 DUP3 LT ISZERO PUSH2 0x9CC JUMPI POP PUSH1 0x20 DUP1 SWAP2 PUSH2 0xB62 JUMP JUMPDEST CALLVALUE PUSH2 0x330 JUMPI PUSH1 0x20 PUSH32 0xFFFFFFFFFFFFFFFFFFFFFFFFFFFFFFFFFFFFFFFFFFFFFFFFFFFFFFFFFFFFFFFC CALLDATASIZE ADD SLT PUSH2 0x330 JUMPI PUSH20 0xFFFFFFFFFFFFFFFFFFFFFFFFFFFFFFFFFFFFFFFF PUSH2 0xBCA PUSH2 0x2D3F JUMP JUMPDEST AND PUSH0 MSTORE PUSH1 0x1 PUSH1 0x20 MSTORE PUSH1 0x20 PUSH1 0x40 PUSH0 KECCAK256 SLOAD PUSH1 0x40 MLOAD SWAP1 DUP2 MSTORE RETURN JUMPDEST CALLVALUE PUSH2 0x330 JUMPI PUSH0 PUSH32 0xFFFFFFFFFFFFFFFFFFFFFFFFFFFFFFFFFFFFFFFFFFFFFFFFFFFFFFFFFFFFFFFC CALLDATASIZE ADD SLT PUSH2 0x330 JUMPI PUSH1 0x20 PUSH20 0xFFFFFFFFFFFFFFFFFFFFFFFFFFFFFFFFFFFFFFFF PUSH0 SLOAD AND PUSH1 0x40 MLOAD SWAP1 DUP2 MSTORE RETURN JUMPDEST CALLVALUE PUSH2 0x330 JUMPI PUSH1 0x60 PUSH32 0xFFFFFFFFFFFFFFFFFFFFFFFFFFFFFFFFFFFFFFFFFFFFFFFFFFFFFFFFFFFFFFFC CALLDATASIZE ADD SLT PUSH2 0x330 JUMPI PUSH2 0xC68 PUSH2 0x2D3F JUMP JUMPDEST PUSH2 0xC70 PUSH2 0x2D62 JUMP JUMPDEST PUSH1 0x44 CALLDATALOAD PUSH20 0xFFFFFFFFFFFFFFFFFFFFFFFFFFFFFFFFFFFFFFFF PUSH1 0x2 SLOAD AND CALLER SUB PUSH2 0xD5F JUMPI PUSH20 0xFFFFFFFFFFFFFFFFFFFFFFFFFFFFFFFFFFFFFFFF DUP3 AND DUP1 ISZERO ISZERO DUP1 PUSH2 0xD1F JUMPI JUMPDEST PUSH2 0xCF7 JUMPI PUSH1 0x20 SWAP4 PUSH2 0x7A2 SWAP3 DUP1 PUSH2 0xCEF JUMPI POP DUP2 PUSH0 MSTORE PUSH1 0x1 DUP6 MSTORE PUSH1 0x40 PUSH0 KECCAK256 SLOAD SWAP4 DUP5 SWAP3 JUMPDEST PUSH0 MSTORE PUSH1 0x1 DUP7 MSTORE PUSH1 0x40 PUSH0 KECCAK256 PUSH2 0xCE8 DUP5 DUP3 SLOAD PUSH2 0x2FED JUMP JUMPDEST SWAP1 SSTORE PUSH2 0x31F8 JUMP JUMPDEST SWAP4 DUP5 SWAP3 PUSH2 0xCD3 JUMP JUMPDEST PUSH32 0xC79E594800000000000000000000000000000000000000000000000000000000 PUSH0 MSTORE PUSH1 0x4 PUSH0 REVERT JUMPDEST POP DUP1 PUSH20 0xFFFFFFFFFFFFFFFFFFFFFFFFFFFFFFFFFFFFFFFF PUSH32 0x27E098C505D44EC3574004BCA052AABF76BD35004C182099D8C575FB238593B9 TLOAD AND EQ PUSH2 0xCB2 JUMP JUMPDEST PUSH32 0x48F5C3ED00000000000000000000000000000000000000000000000000000000 PUSH0 MSTORE PUSH1 0x4 PUSH0 REVERT JUMPDEST CALLVALUE PUSH2 0x330 JUMPI PUSH1 0x40 PUSH32 0xFFFFFFFFFFFFFFFFFFFFFFFFFFFFFFFFFFFFFFFFFFFFFFFFFFFFFFFFFFFFFFFC CALLDATASIZE ADD SLT PUSH2 0x330 JUMPI PUSH2 0xDBE PUSH2 0x2D3F JUMP JUMPDEST PUSH32 0xC090FC4683624CFC3884E9D8DE5ECA132F2D0EC062AFF75D43C0465D5CEEAB23 TLOAD ISZERO PUSH2 0x4D7 JUMPI CALLER PUSH0 SWAP1 DUP2 MSTORE PUSH20 0xFFFFFFFFFFFFFFFFFFFFFFFFFFFFFFFFFFFFFFFF DUP3 AND PUSH1 0x20 MSTORE PUSH1 0x40 SWAP1 KECCAK256 TLOAD PUSH2 0xE14 PUSH1 0x24 CALLDATALOAD PUSH2 0x30AA JUMP JUMPDEST SWAP1 DUP2 PUSH1 0xF SIGNEXTEND SUB PUSH2 0xE31 JUMPI PUSH2 0xE2F SWAP2 CALLER SWAP2 PUSH0 SUB PUSH1 0xF SIGNEXTEND SWAP1 PUSH2 0x30F0 JUMP JUMPDEST STOP JUMPDEST PUSH32 0xBDA73ABF00000000000000000000000000000000000000000000000000000000 PUSH0 MSTORE PUSH1 0x4 PUSH0 REVERT JUMPDEST CALLVALUE PUSH2 0x330 JUMPI PUSH1 0xC0 PUSH32 0xFFFFFFFFFFFFFFFFFFFFFFFFFFFFFFFFFFFFFFFFFFFFFFFFFFFFFFFFFFFFFFFC CALLDATASIZE ADD SLT PUSH2 0x330 JUMPI PUSH2 0xE91 CALLDATASIZE PUSH2 0x2E81 JUMP JUMPDEST PUSH2 0xE99 PUSH2 0x2E6F JUMP JUMPDEST SWAP1 PUSH20 0xFFFFFFFFFFFFFFFFFFFFFFFFFFFFFFFFFFFFFFFF PUSH1 0x2 SLOAD AND CALLER SUB PUSH2 0xD5F JUMPI PUSH3 0x3E9000 PUSH3 0xFFF000 DUP4 AND LT PUSH2 0x3E9 PUSH2 0xFFF DUP5 AND LT AND ISZERO PUSH2 0xF65 JUMPI PUSH1 0x20 PUSH1 0xA0 PUSH32 0xE9C42593E71F84403B84352CD168D693E2C9FCD1FDBCC3FEB21D92B43E6696F9 SWAP3 KECCAK256 SWAP3 DUP4 PUSH0 MSTORE PUSH1 0x6 DUP3 MSTORE PUSH1 0x40 PUSH0 KECCAK256 PUSH2 0xF0F DUP2 PUSH2 0x3576 JUMP JUMPDEST DUP1 SLOAD PUSH26 0xFFFFFF0000000000000000000000000000000000000000000000 DUP4 PUSH1 0xB8 SHL AND SWAP1 PUSH32 0xFFFFFFFFFFFF000000FFFFFFFFFFFFFFFFFFFFFFFFFFFFFFFFFFFFFFFFFFFFFF AND OR SWAP1 SSTORE PUSH3 0xFFFFFF PUSH1 0x40 MLOAD SWAP2 AND DUP2 MSTORE LOG2 STOP JUMPDEST PUSH3 0xFFFFFF DUP3 PUSH32 0xA7ABE2F700000000000000000000000000000000000000000000000000000000 PUSH0 MSTORE AND PUSH1 0x4 MSTORE PUSH1 0x24 PUSH0 REVERT JUMPDEST CALLVALUE PUSH2 0x330 JUMPI PUSH1 0xC0 PUSH32 0xFFFFFFFFFFFFFFFFFFFFFFFFFFFFFFFFFFFFFFFFFFFFFFFFFFFFFFFFFFFFFFFC CALLDATASIZE ADD SLT PUSH2 0x330 JUMPI PUSH2 0xFCE CALLDATASIZE PUSH2 0x2E81 JUMP JUMPDEST PUSH1 0xA4 CALLDATALOAD SWAP1 PUSH20 0xFFFFFFFFFFFFFFFFFFFFFFFFFFFFFFFFFFFFFFFF DUP3 AND DUP1 DUP4 SUB PUSH2 0x330 JUMPI PUSH2 0xFF8 PUSH2 0x350F JUMP JUMPDEST PUSH1 0x60 DUP3 ADD SWAP2 DUP3 MLOAD PUSH1 0x2 SIGNEXTEND PUSH2 0x7FFF DUP2 SGT PUSH2 0x1424 JUMPI POP DUP3 MLOAD PUSH1 0x2 SIGNEXTEND PUSH1 0x1 DUP2 SLT PUSH2 0x13F9 JUMPI POP PUSH20 0xFFFFFFFFFFFFFFFFFFFFFFFFFFFFFFFFFFFFFFFF DUP2 MLOAD AND PUSH1 0x20 DUP3 ADD SWAP1 PUSH20 0xFFFFFFFFFFFFFFFFFFFFFFFFFFFFFFFFFFFFFFFF DUP3 MLOAD AND DUP1 DUP3 LT ISZERO PUSH2 0x13C2 JUMPI POP POP PUSH1 0x80 DUP3 ADD SWAP1 PUSH20 0xFFFFFFFFFFFFFFFFFFFFFFFFFFFFFFFFFFFFFFFF DUP3 MLOAD AND SWAP1 PUSH1 0x40 DUP5 ADD SWAP2 PUSH2 0x108C PUSH3 0xFFFFFF DUP5 MLOAD AND DUP3 PUSH2 0x39B7 JUMP JUMPDEST ISZERO PUSH2 0x1397 JUMPI POP PUSH2 0x10A1 PUSH3 0xFFFFFF DUP4 MLOAD AND PUSH2 0x3A75 JUMP JUMPDEST SWAP7 DUP4 MLOAD PUSH20 0xFFFFFFFFFFFFFFFFFFFFFFFFFFFFFFFFFFFFFFFF DUP2 AND SWAP1 DUP2 CALLER SUB PUSH2 0x12E0 JUMPI JUMPDEST POP POP PUSH1 0xA0 DUP6 KECCAK256 SWAP1 DUP2 PUSH0 MSTORE PUSH1 0x6 PUSH1 0x20 MSTORE PUSH1 0x40 PUSH0 KECCAK256 SWAP1 DUP2 SLOAD PUSH20 0xFFFFFFFFFFFFFFFFFFFFFFFFFFFFFFFFFFFFFFFF AND PUSH2 0x12B8 JUMPI PUSH1 0x20 SWAP10 PUSH32 0xDD466E674EA557F56295E2D0218A125EA4B4F0F6F3307B95F85E6110838D6438 SWAP3 PUSH29 0xFFFFFF0000000000000000000000000000000000000000000000000000 PUSH2 0x1142 PUSH1 0xA0 SWAP5 PUSH2 0x45FC JUMP JUMPDEST SWAP3 PUSH1 0xD0 SHL AND DUP11 PUSH23 0xFFFFFF0000000000000000000000000000000000000000 DUP5 DUP7 SHL AND OR OR SWAP1 SSTORE PUSH3 0xFFFFFF PUSH20 0xFFFFFFFFFFFFFFFFFFFFFFFFFFFFFFFFFFFFFFFF DUP1 DUP11 MLOAD AND SWAP7 MLOAD AND SWAP7 MLOAD AND SWAP10 MLOAD PUSH1 0x2 SIGNEXTEND PUSH20 0xFFFFFFFFFFFFFFFFFFFFFFFFFFFFFFFFFFFFFFFF DUP9 MLOAD AND SWAP1 PUSH1 0x40 MLOAD SWAP12 DUP13 MSTORE DUP13 DUP13 ADD MSTORE PUSH1 0x40 DUP12 ADD MSTORE DUP9 PUSH1 0x60 DUP12 ADD MSTORE PUSH1 0x2 SIGNEXTEND SWAP9 DUP10 PUSH1 0x80 DUP3 ADD MSTORE LOG4 MLOAD PUSH20 0xFFFFFFFFFFFFFFFFFFFFFFFFFFFFFFFFFFFFFFFF DUP2 AND SWAP1 DUP2 CALLER SUB PUSH2 0x11F4 JUMPI JUMPDEST DUP6 DUP6 PUSH1 0x40 MLOAD SWAP1 DUP2 MSTORE RETURN JUMPDEST PUSH2 0x1000 AND PUSH2 0x1203 JUMPI JUMPDEST DUP1 PUSH2 0x11EA JUMP JUMPDEST PUSH2 0x12AF SWAP3 PUSH2 0x128D PUSH1 0x40 MLOAD SWAP4 PUSH32 0x6FE7E6EB00000000000000000000000000000000000000000000000000000000 DUP9 DUP7 ADD MSTORE CALLER PUSH1 0x24 DUP7 ADD MSTORE PUSH1 0x44 DUP6 ADD SWAP1 PUSH20 0xFFFFFFFFFFFFFFFFFFFFFFFFFFFFFFFFFFFFFFFF PUSH1 0x80 DUP1 SWAP3 DUP3 DUP2 MLOAD AND DUP6 MSTORE DUP3 PUSH1 0x20 DUP3 ADD MLOAD AND PUSH1 0x20 DUP7 ADD MSTORE PUSH3 0xFFFFFF PUSH1 0x40 DUP3 ADD MLOAD AND PUSH1 0x40 DUP7 ADD MSTORE PUSH1 0x60 DUP2 ADD MLOAD PUSH1 0x2 SIGNEXTEND PUSH1 0x60 DUP7 ADD MSTORE ADD MLOAD AND SWAP2 ADD MSTORE JUMP JUMPDEST PUSH1 0xE4 DUP4 ADD MSTORE DUP4 PUSH2 0x104 DUP4 ADD MSTORE PUSH2 0x104 DUP3 MSTORE PUSH2 0x12AA PUSH2 0x124 DUP4 PUSH2 0x2E2E JUMP JUMPDEST PUSH2 0x3F25 JUMP JUMPDEST POP DUP3 DUP1 DUP1 PUSH2 0x11FD JUMP JUMPDEST PUSH32 0x7983C05100000000000000000000000000000000000000000000000000000000 PUSH0 MSTORE PUSH1 0x4 PUSH0 REVERT JUMPDEST PUSH2 0x2000 AND PUSH2 0x12EF JUMPI JUMPDEST DUP1 PUSH2 0x10C4 JUMP JUMPDEST PUSH2 0x1390 SWAP1 PUSH1 0x40 MLOAD SWAP1 PUSH32 0xDC98354E00000000000000000000000000000000000000000000000000000000 PUSH1 0x20 DUP4 ADD MSTORE CALLER PUSH1 0x24 DUP4 ADD MSTORE PUSH2 0x137A PUSH1 0x44 DUP4 ADD DUP10 PUSH20 0xFFFFFFFFFFFFFFFFFFFFFFFFFFFFFFFFFFFFFFFF PUSH1 0x80 DUP1 SWAP3 DUP3 DUP2 MLOAD AND DUP6 MSTORE DUP3 PUSH1 0x20 DUP3 ADD MLOAD AND PUSH1 0x20 DUP7 ADD MSTORE PUSH3 0xFFFFFF PUSH1 0x40 DUP3 ADD MLOAD AND PUSH1 0x40 DUP7 ADD MSTORE PUSH1 0x60 DUP2 ADD MLOAD PUSH1 0x2 SIGNEXTEND PUSH1 0x60 DUP7 ADD MSTORE ADD MLOAD AND SWAP2 ADD MSTORE JUMP JUMPDEST DUP9 PUSH1 0xE4 DUP4 ADD MSTORE PUSH1 0xE4 DUP3 MSTORE PUSH2 0x12AA PUSH2 0x104 DUP4 PUSH2 0x2E2E JUMP JUMPDEST POP DUP9 PUSH2 0x12E9 JUMP JUMPDEST PUSH32 0xE65AF6A000000000000000000000000000000000000000000000000000000000 PUSH0 MSTORE PUSH1 0x4 MSTORE PUSH1 0x24 PUSH0 REVERT JUMPDEST PUSH1 0x44 SWAP3 POP PUSH1 0x40 MLOAD SWAP2 PUSH32 0x6E6C983000000000000000000000000000000000000000000000000000000000 DUP4 MSTORE PUSH1 0x4 DUP4 ADD MSTORE PUSH1 0x24 DUP3 ADD MSTORE REVERT JUMPDEST PUSH32 0xE9E9058800000000000000000000000000000000000000000000000000000000 PUSH0 MSTORE PUSH1 0x4 MSTORE PUSH1 0x24 PUSH0 REVERT JUMPDEST PUSH32 0xB70024F800000000000000000000000000000000000000000000000000000000 PUSH0 MSTORE PUSH1 0x4 MSTORE PUSH1 0x24 PUSH0 REVERT JUMPDEST CALLVALUE PUSH2 0x330 JUMPI PUSH2 0x140 PUSH32 0xFFFFFFFFFFFFFFFFFFFFFFFFFFFFFFFFFFFFFFFFFFFFFFFFFFFFFFFFFFFFFFFC CALLDATASIZE ADD SLT PUSH2 0x330 JUMPI PUSH2 0x1488 CALLDATASIZE PUSH2 0x2E81 JUMP JUMPDEST PUSH1 0x80 PUSH32 0xFFFFFFFFFFFFFFFFFFFFFFFFFFFFFFFFFFFFFFFFFFFFFFFFFFFFFFFFFFFFFF5C CALLDATASIZE ADD SLT PUSH2 0x330 JUMPI PUSH1 0x40 MLOAD SWAP1 PUSH2 0x14BF DUP3 PUSH2 0x2DDA JUMP JUMPDEST PUSH1 0xA4 CALLDATALOAD DUP1 PUSH1 0x2 SIGNEXTEND DUP2 SUB PUSH2 0x330 JUMPI DUP3 MSTORE PUSH1 0xC4 CALLDATALOAD DUP1 PUSH1 0x2 SIGNEXTEND DUP2 SUB PUSH2 0x330 JUMPI PUSH1 0x20 DUP4 ADD MSTORE PUSH1 0xE4 CALLDATALOAD PUSH1 0x40 DUP4 ADD MSTORE PUSH2 0x104 CALLDATALOAD PUSH1 0x60 DUP4 ADD MSTORE PUSH2 0x124 CALLDATALOAD PUSH8 0xFFFFFFFFFFFFFFFF DUP2 GT PUSH2 0x330 JUMPI PUSH2 0x1512 SWAP1 CALLDATASIZE SWAP1 PUSH1 0x4 ADD PUSH2 0x2F4D JUMP JUMPDEST SWAP1 SWAP3 PUSH32 0xC090FC4683624CFC3884E9D8DE5ECA132F2D0EC062AFF75D43C0465D5CEEAB23 TLOAD ISZERO PUSH2 0x4D7 JUMPI PUSH2 0x1543 PUSH2 0x350F JUMP JUMPDEST PUSH1 0xA0 DUP4 KECCAK256 SWAP4 DUP5 PUSH0 MSTORE PUSH1 0x6 PUSH1 0x20 MSTORE PUSH1 0x40 PUSH0 KECCAK256 PUSH1 0x80 MSTORE PUSH2 0x1562 PUSH1 0x80 MLOAD PUSH2 0x3576 JUMP JUMPDEST PUSH1 0x80 DUP5 ADD MLOAD PUSH20 0xFFFFFFFFFFFFFFFFFFFFFFFFFFFFFFFFFFFFFFFF DUP2 AND SWAP1 DUP2 CALLER SUB PUSH2 0x1EDE JUMPI JUMPDEST POP POP DUP2 MLOAD PUSH1 0x2 SIGNEXTEND SWAP3 PUSH1 0x20 DUP4 ADD MLOAD PUSH1 0x2 SIGNEXTEND SWAP2 PUSH2 0x15A5 PUSH1 0x40 DUP6 ADD MLOAD PUSH2 0x3785 JUMP JUMPDEST SWAP4 PUSH1 0x60 DUP8 ADD MLOAD PUSH1 0x2 SIGNEXTEND SWAP8 PUSH1 0x60 DUP3 ADD MLOAD PUSH1 0x40 MLOAD SWAP10 PUSH1 0xC0 DUP12 ADD DUP12 DUP2 LT PUSH8 0xFFFFFFFFFFFFFFFF DUP3 GT OR PUSH2 0x1EB1 JUMPI PUSH1 0x40 MSTORE CALLER DUP12 MSTORE DUP9 PUSH1 0x20 DUP13 ADD MSTORE DUP7 PUSH1 0x40 DUP13 ADD MSTORE DUP8 PUSH1 0xF SIGNEXTEND PUSH1 0x60 DUP13 ADD MSTORE PUSH1 0x80 DUP12 ADD MSTORE PUSH1 0xA0 DUP11 ADD MSTORE PUSH0 SWAP2 DUP6 DUP9 SLT ISZERO PUSH2 0x1E7A JUMPI PUSH32 0xFFFFFFFFFFFFFFFFFFFFFFFFFFFFFFFFFFFFFFFFFFFFFFFFFFFFFFFFFFF27618 DUP9 SLT PUSH2 0x1E4E JUMPI PUSH3 0xD89E8 DUP7 SGT PUSH2 0x1E22 JUMPI PUSH1 0x40 MLOAD SWAP3 PUSH2 0x163C DUP5 PUSH2 0x2DDA JUMP JUMPDEST PUSH0 DUP5 MSTORE PUSH0 PUSH1 0x20 DUP6 ADD MSTORE PUSH0 PUSH1 0x40 DUP6 ADD MSTORE PUSH0 PUSH1 0x60 DUP6 ADD MSTORE DUP8 PUSH1 0xF SIGNEXTEND PUSH2 0x1B25 JUMPI JUMPDEST PUSH1 0x4 PUSH1 0x80 MLOAD ADD SWAP8 DUP10 PUSH1 0x2 SIGNEXTEND PUSH0 MSTORE DUP9 PUSH1 0x20 MSTORE PUSH1 0x40 PUSH0 KECCAK256 SWAP9 DUP9 PUSH1 0x2 SIGNEXTEND PUSH0 MSTORE PUSH1 0x20 MSTORE PUSH1 0x40 PUSH0 KECCAK256 PUSH1 0x80 MLOAD SLOAD PUSH1 0xA0 SHR PUSH1 0x2 SIGNEXTEND DUP12 DUP2 SLT PUSH0 EQ PUSH2 0x1ACF JUMPI POP PUSH1 0x2 DUP1 PUSH1 0x1 DUP13 ADD SLOAD PUSH1 0x1 DUP5 ADD SLOAD SWAP1 SUB SWAP12 ADD SLOAD SWAP2 ADD SLOAD SWAP1 SUB SWAP12 JUMPDEST PUSH1 0xA0 PUSH20 0xFFFFFFFFFFFFFFFFFFFFFFFFFFFFFFFFFFFFFFFF DUP3 MLOAD AND SWAP2 ADD MLOAD SWAP1 PUSH1 0x40 MLOAD SWAP2 PUSH1 0x26 DUP4 ADD MSTORE DUP10 PUSH1 0x6 DUP4 ADD MSTORE DUP12 PUSH1 0x3 DUP4 ADD MSTORE DUP2 MSTORE PUSH0 PUSH1 0x3A PUSH1 0xC DUP4 ADD KECCAK256 SWAP2 DUP2 PUSH1 0x40 DUP3 ADD MSTORE DUP2 PUSH1 0x20 DUP3 ADD MSTORE MSTORE PUSH0 MSTORE PUSH1 0x6 PUSH1 0x80 MLOAD ADD PUSH1 0x20 MSTORE PUSH1 0x40 PUSH0 KECCAK256 SWAP8 PUSH16 0xFFFFFFFFFFFFFFFFFFFFFFFFFFFFFFFF DUP10 SLOAD AND SWAP10 DUP3 PUSH1 0xF SIGNEXTEND ISZERO PUSH0 EQ PUSH2 0x1A72 JUMPI DUP11 ISZERO PUSH2 0x1A4A JUMPI PUSH2 0x176F PUSH2 0x1769 PUSH1 0x40 SWAP16 SWAP12 PUSH2 0x184E SWAP13 PUSH2 0x1860 SWAP15 JUMPDEST PUSH1 0x1 DUP4 ADD SWAP6 PUSH2 0x1761 PUSH1 0x2 PUSH2 0x1755 DUP5 DUP11 SLOAD DUP6 SUB PUSH2 0x5703 JUMP JUMPDEST SWAP6 ADD SWAP3 DUP4 SLOAD DUP6 SUB PUSH2 0x5703 JUMP JUMPDEST SWAP7 SSTORE SSTORE PUSH2 0x30AA JUMP JUMPDEST SWAP2 PUSH2 0x30AA JUMP JUMPDEST PUSH16 0xFFFFFFFFFFFFFFFFFFFFFFFFFFFFFFFF AND SWAP1 PUSH1 0x80 SHL OR SWAP11 DUP12 SWAP7 PUSH0 DUP5 PUSH1 0xF SIGNEXTEND SLT PUSH2 0x19DC JUMPI JUMPDEST POP DUP3 PUSH1 0xF SIGNEXTEND PUSH2 0x1898 JUMPI JUMPDEST POP POP POP PUSH2 0x17C4 PUSH2 0x17B5 DUP6 PUSH1 0x80 SAR DUP4 PUSH1 0x80 SAR ADD PUSH2 0x3785 JUMP JUMPDEST SWAP2 DUP6 PUSH1 0xF SIGNEXTEND SWAP1 PUSH1 0xF SIGNEXTEND ADD PUSH2 0x3785 JUMP JUMPDEST PUSH16 0xFFFFFFFFFFFFFFFFFFFFFFFFFFFFFFFF AND SWAP1 PUSH1 0x80 SHL OR SWAP2 DUP2 MLOAD PUSH1 0x2 SIGNEXTEND SWAP1 PUSH1 0x20 DUP4 ADD MLOAD PUSH1 0x2 SIGNEXTEND DUP13 DUP5 ADD MLOAD PUSH1 0x60 DUP6 ADD MLOAD SWAP2 DUP15 MLOAD SWAP5 DUP6 MSTORE PUSH1 0x20 DUP6 ADD MSTORE DUP14 DUP5 ADD MSTORE PUSH1 0x60 DUP4 ADD MSTORE PUSH32 0xF208F4912782FD25C7F114CA3723A2D5DD6F3BCC3AC8DB5AF63BAA85F711D5EC PUSH1 0x80 CALLER SWAP4 LOG3 DUP9 PUSH20 0xFFFFFFFFFFFFFFFFFFFFFFFFFFFFFFFFFFFFFFFF PUSH1 0x80 DUP3 ADD MLOAD AND PUSH2 0x385B JUMP JUMPDEST DUP1 SWAP5 SWAP2 SWAP5 PUSH2 0x186C JUMPI JUMPDEST POP DUP4 CALLER SWAP2 PUSH2 0x3652 JUMP JUMPDEST DUP3 MLOAD SWAP2 DUP3 MSTORE PUSH1 0x20 DUP3 ADD MSTORE RETURN JUMPDEST PUSH2 0x1892 SWAP1 PUSH20 0xFFFFFFFFFFFFFFFFFFFFFFFFFFFFFFFFFFFFFFFF PUSH1 0x80 DUP5 ADD MLOAD AND SWAP1 DUP4 PUSH2 0x3652 JUMP JUMPDEST DUP6 PUSH2 0x1857 JUMP JUMPDEST PUSH1 0x80 MLOAD SLOAD SWAP3 SWAP4 POP SWAP1 SWAP2 PUSH20 0xFFFFFFFFFFFFFFFFFFFFFFFFFFFFFFFFFFFFFFFF DUP2 AND SWAP1 PUSH1 0xA0 SHR PUSH1 0x2 SIGNEXTEND DUP3 DUP2 SLT ISZERO PUSH2 0x18FE JUMPI POP POP SWAP1 PUSH2 0x18F2 SWAP3 PUSH2 0x18E7 PUSH2 0x18DD PUSH2 0x18ED SWAP5 PUSH2 0x4158 JUMP JUMPDEST SWAP2 PUSH1 0xF SIGNEXTEND SWAP3 PUSH2 0x4158 JUMP JUMPDEST SWAP1 PUSH2 0x4527 JUMP JUMPDEST PUSH2 0x3785 JUMP JUMPDEST PUSH1 0x80 SHL JUMPDEST DUP12 DUP1 DUP1 PUSH2 0x179E JUMP JUMPDEST SWAP3 DUP1 SWAP2 SWAP4 SLT PUSH0 EQ PUSH2 0x19A9 JUMPI PUSH2 0x193D SWAP2 PUSH2 0x192A PUSH2 0x18ED PUSH2 0x18ED SWAP4 PUSH2 0x1924 DUP9 PUSH1 0xF SIGNEXTEND SWAP2 PUSH2 0x4158 JUMP JUMPDEST DUP8 PUSH2 0x4527 JUMP JUMPDEST SWAP4 PUSH2 0x1938 DUP7 PUSH1 0xF SIGNEXTEND SWAP3 PUSH2 0x4158 JUMP JUMPDEST PUSH2 0x44CA JUMP JUMPDEST PUSH16 0xFFFFFFFFFFFFFFFFFFFFFFFFFFFFFFFF AND SWAP1 PUSH1 0x80 SHL OR SWAP1 PUSH16 0xFFFFFFFFFFFFFFFFFFFFFFFFFFFFFFFF PUSH2 0x197C PUSH1 0x3 PUSH1 0x80 MLOAD ADD SWAP3 PUSH1 0xF SIGNEXTEND DUP3 DUP5 SLOAD AND PUSH2 0x456E JUMP JUMPDEST AND PUSH32 0xFFFFFFFFFFFFFFFFFFFFFFFFFFFFFFFF00000000000000000000000000000000 DUP3 SLOAD AND OR SWAP1 SSTORE PUSH2 0x18F6 JUMP JUMPDEST SWAP1 PUSH2 0x18ED SWAP3 POP SWAP3 PUSH2 0x19BF PUSH2 0x18DD PUSH2 0x19C5 SWAP6 PUSH2 0x4158 JUMP JUMPDEST SWAP1 PUSH2 0x44CA JUMP JUMPDEST PUSH16 0xFFFFFFFFFFFFFFFFFFFFFFFFFFFFFFFF AND PUSH2 0x18F6 JUMP JUMPDEST DUP1 DUP16 SWAP2 MLOAD PUSH2 0x1A1E JUMPI JUMPDEST ADD MLOAD PUSH2 0x19F2 JUMPI JUMPDEST DUP15 PUSH2 0x1794 JUMP JUMPDEST PUSH2 0x1A19 DUP3 PUSH1 0x80 MLOAD PUSH1 0x4 SWAP2 PUSH1 0x2 SIGNEXTEND PUSH0 MSTORE ADD PUSH1 0x20 MSTORE PUSH0 PUSH1 0x2 PUSH1 0x40 DUP3 KECCAK256 DUP3 DUP2 SSTORE DUP3 PUSH1 0x1 DUP3 ADD SSTORE ADD SSTORE JUMP JUMPDEST PUSH2 0x19EC JUMP JUMPDEST PUSH2 0x1A45 DUP4 PUSH1 0x80 MLOAD PUSH1 0x4 SWAP2 PUSH1 0x2 SIGNEXTEND PUSH0 MSTORE ADD PUSH1 0x20 MSTORE PUSH0 PUSH1 0x2 PUSH1 0x40 DUP3 KECCAK256 DUP3 DUP2 SSTORE DUP3 PUSH1 0x1 DUP3 ADD SSTORE ADD SSTORE JUMP JUMPDEST PUSH2 0x19E5 JUMP JUMPDEST PUSH32 0xAEFEB92400000000000000000000000000000000000000000000000000000000 PUSH0 MSTORE PUSH1 0x4 PUSH0 REVERT JUMPDEST PUSH2 0x176F PUSH2 0x1769 PUSH1 0x40 SWAP16 SWAP12 PUSH2 0x184E SWAP13 PUSH2 0x1860 SWAP15 PUSH16 0xFFFFFFFFFFFFFFFFFFFFFFFFFFFFFFFF PUSH2 0x1AA2 DUP10 PUSH1 0xF SIGNEXTEND DUP4 PUSH2 0x456E JUMP JUMPDEST AND PUSH32 0xFFFFFFFFFFFFFFFFFFFFFFFFFFFFFFFF00000000000000000000000000000000 DUP5 SLOAD AND OR DUP4 SSTORE PUSH2 0x173E JUMP JUMPDEST SWAP1 SWAP10 SWAP1 DUP10 SGT PUSH2 0x1AF5 JUMPI PUSH1 0x2 DUP1 PUSH1 0x1 DUP13 ADD SLOAD PUSH1 0x1 DUP5 ADD SLOAD SWAP1 SUB SWAP12 ADD SLOAD SWAP2 ADD SLOAD SWAP1 SUB SWAP12 PUSH2 0x16AA JUMP JUMPDEST SWAP9 PUSH1 0x2 PUSH1 0x1 PUSH1 0x80 MLOAD ADD SLOAD PUSH1 0x1 DUP13 ADD SLOAD SWAP1 SUB PUSH1 0x1 DUP4 ADD SLOAD SWAP1 SUB SWAP11 DUP2 DUP1 PUSH1 0x80 MLOAD ADD SLOAD SWAP2 ADD SLOAD SWAP1 SUB SWAP2 ADD SLOAD SWAP1 SUB SWAP12 PUSH2 0x16AA JUMP JUMPDEST PUSH1 0x4 PUSH1 0x80 MLOAD ADD DUP10 PUSH1 0x2 SIGNEXTEND PUSH0 MSTORE DUP1 PUSH1 0x20 MSTORE DUP10 DUP10 PUSH1 0x40 PUSH0 KECCAK256 PUSH2 0x1B7E DUP2 SLOAD PUSH16 0xFFFFFFFFFFFFFFFFFFFFFFFFFFFFFFFF PUSH2 0x1B61 DUP2 DUP4 AND SWAP6 PUSH1 0xF SIGNEXTEND DUP7 PUSH2 0x456E JUMP JUMPDEST AND SWAP4 ISZERO SWAP5 DUP6 DUP6 ISZERO EQ ISZERO SWAP6 PUSH2 0x1DEE JUMPI JUMPDEST POP DUP14 PUSH1 0xF SIGNEXTEND SWAP1 PUSH1 0x80 SAR PUSH2 0x3D3A JUMP JUMPDEST PUSH1 0x80 SHL DUP3 OR SWAP1 SSTORE PUSH1 0x20 DUP8 ADD MSTORE DUP6 MSTORE DUP8 PUSH1 0x2 SIGNEXTEND PUSH0 MSTORE PUSH1 0x20 MSTORE PUSH1 0x40 PUSH0 KECCAK256 DUP1 SLOAD SWAP1 PUSH16 0xFFFFFFFFFFFFFFFFFFFFFFFFFFFFFFFF DUP3 AND PUSH2 0x1BBC DUP12 PUSH1 0xF SIGNEXTEND DUP3 PUSH2 0x456E JUMP JUMPDEST SWAP1 ISZERO SWAP3 DUP4 PUSH16 0xFFFFFFFFFFFFFFFFFFFFFFFFFFFFFFFF DUP4 AND ISZERO EQ ISZERO SWAP4 PUSH2 0x1DC1 JUMPI JUMPDEST DUP12 PUSH1 0xF SIGNEXTEND SWAP1 PUSH1 0x80 SAR PUSH1 0xF SIGNEXTEND SUB SWAP2 PUSH16 0x7FFFFFFFFFFFFFFFFFFFFFFFFFFFFFFF DUP4 SGT PUSH32 0xFFFFFFFFFFFFFFFFFFFFFFFFFFFFFFFF80000000000000000000000000000000 DUP5 SLT OR PUSH2 0x1D94 JUMPI DUP3 PUSH16 0xFFFFFFFFFFFFFFFFFFFFFFFFFFFFFFFF SWAP4 POP PUSH1 0x80 SHL DUP4 DUP4 AND OR SWAP1 SSTORE AND PUSH1 0x60 DUP7 ADD MSTORE PUSH1 0x40 DUP6 ADD MSTORE PUSH0 DUP9 PUSH1 0xF SIGNEXTEND SLT ISZERO PUSH2 0x1CA1 JUMPI JUMPDEST DUP4 MLOAD PUSH2 0x1C85 JUMPI JUMPDEST PUSH1 0x40 DUP5 ADD MLOAD ISZERO PUSH2 0x165A JUMPI PUSH2 0x1C80 PUSH1 0x80 DUP13 ADD MLOAD PUSH1 0x2 SIGNEXTEND DUP9 PUSH1 0x5 PUSH1 0x80 MLOAD ADD PUSH2 0x410C JUMP JUMPDEST PUSH2 0x165A JUMP JUMPDEST PUSH2 0x1C9C PUSH1 0x80 DUP13 ADD MLOAD PUSH1 0x2 SIGNEXTEND DUP11 PUSH1 0x5 PUSH1 0x80 MLOAD ADD PUSH2 0x410C JUMP JUMPDEST PUSH2 0x1C5F JUMP JUMPDEST PUSH1 0x80 DUP12 ADD MLOAD PUSH1 0x2 SIGNEXTEND PUSH16 0xFFFFFFFFFFFFFFFFFFFFFFFFFFFFFFFF PUSH1 0x1 DUP2 PUSH1 0x20 DUP9 ADD MLOAD AND SWAP3 PUSH0 DUP2 PUSH32 0xFFFFFFFFFFFFFFFFFFFFFFFFFFFFFFFFFFFFFFFFFFFFFFFFFFFFFFFFFFF27618 SMOD SLT DUP2 PUSH32 0xFFFFFFFFFFFFFFFFFFFFFFFFFFFFFFFFFFFFFFFFFFFFFFFFFFFFFFFFFFF27618 SDIV SUB SWAP1 PUSH3 0xD89E8 SDIV SUB ADD DUP2 DIV AND DUP1 SWAP2 GT PUSH2 0x1D68 JUMPI PUSH16 0xFFFFFFFFFFFFFFFFFFFFFFFFFFFFFFFF PUSH1 0x60 DUP7 ADD MLOAD AND GT ISZERO PUSH2 0x1C58 JUMPI DUP7 PUSH32 0xB8E3C38500000000000000000000000000000000000000000000000000000000 PUSH0 MSTORE PUSH1 0x4 MSTORE PUSH1 0x24 PUSH0 REVERT JUMPDEST DUP10 PUSH32 0xB8E3C38500000000000000000000000000000000000000000000000000000000 PUSH0 MSTORE PUSH1 0x4 MSTORE PUSH1 0x24 PUSH0 REVERT JUMPDEST PUSH32 0x4E487B7100000000000000000000000000000000000000000000000000000000 PUSH0 MSTORE PUSH1 0x11 PUSH1 0x4 MSTORE PUSH1 0x24 PUSH0 REVERT JUMPDEST PUSH1 0x80 MLOAD SLOAD PUSH1 0xA0 SHR PUSH1 0x2 SIGNEXTEND DUP12 SGT PUSH2 0x1BDC JUMPI PUSH1 0x1 PUSH1 0x80 MLOAD ADD SLOAD PUSH1 0x1 DUP5 ADD SSTORE PUSH1 0x2 PUSH1 0x80 MLOAD ADD SLOAD PUSH1 0x2 DUP5 ADD SSTORE PUSH2 0x1BDC JUMP JUMPDEST PUSH1 0x80 MLOAD SLOAD PUSH1 0xA0 SHR PUSH1 0x2 SIGNEXTEND SLT ISZERO PUSH2 0x1E05 JUMPI JUMPDEST DUP15 PUSH2 0x1B70 JUMP JUMPDEST PUSH1 0x1 PUSH1 0x80 MLOAD ADD SLOAD PUSH1 0x1 DUP5 ADD SSTORE PUSH1 0x2 PUSH1 0x80 MLOAD ADD SLOAD PUSH1 0x2 DUP5 ADD SSTORE PUSH2 0x1DFF JUMP JUMPDEST DUP6 PUSH32 0x1AD777F800000000000000000000000000000000000000000000000000000000 PUSH0 MSTORE PUSH1 0x4 MSTORE PUSH1 0x24 PUSH0 REVERT JUMPDEST DUP8 PUSH32 0xD5E2F7AB00000000000000000000000000000000000000000000000000000000 PUSH0 MSTORE PUSH1 0x4 MSTORE PUSH1 0x24 PUSH0 REVERT JUMPDEST PUSH1 0x44 DUP9 DUP8 PUSH1 0x40 MLOAD SWAP2 PUSH32 0xC4433ED500000000000000000000000000000000000000000000000000000000 DUP4 MSTORE PUSH1 0x4 DUP4 ADD MSTORE PUSH1 0x24 DUP3 ADD MSTORE REVERT JUMPDEST PUSH32 0x4E487B7100000000000000000000000000000000000000000000000000000000 PUSH0 MSTORE PUSH1 0x41 PUSH1 0x4 MSTORE PUSH1 0x24 PUSH0 REVERT JUMPDEST PUSH0 PUSH1 0x40 DUP6 ADD MLOAD SGT DUP1 DUP1 SWAP2 PUSH2 0x1FD6 JUMPI JUMPDEST ISZERO PUSH2 0x1F6B JUMPI POP POP PUSH1 0x40 MLOAD PUSH32 0x259982E500000000000000000000000000000000000000000000000000000000 PUSH1 0x20 DUP3 ADD MSTORE PUSH2 0x1F62 SWAP2 PUSH2 0x12AA DUP3 PUSH2 0x1F36 DUP9 DUP8 DUP10 DUP13 CALLER PUSH1 0x24 DUP8 ADD PUSH2 0x36CB JUMP JUMPDEST SUB PUSH32 0xFFFFFFFFFFFFFFFFFFFFFFFFFFFFFFFFFFFFFFFFFFFFFFFFFFFFFFFFFFFFFFE0 DUP2 ADD DUP5 MSTORE DUP4 PUSH2 0x2E2E JUMP JUMPDEST POP JUMPDEST DUP6 DUP1 PUSH2 0x1587 JUMP JUMPDEST ISZERO SWAP1 DUP2 PUSH2 0x1FC8 JUMPI JUMPDEST POP PUSH2 0x1F7F JUMPI JUMPDEST POP PUSH2 0x1F64 JUMP JUMPDEST PUSH1 0x40 MLOAD PUSH32 0x21D0EE7000000000000000000000000000000000000000000000000000000000 PUSH1 0x20 DUP3 ADD MSTORE PUSH2 0x1FC1 SWAP2 PUSH2 0x12AA DUP3 PUSH2 0x1F36 DUP9 DUP8 DUP10 DUP13 CALLER PUSH1 0x24 DUP8 ADD PUSH2 0x36CB JUMP JUMPDEST POP DUP6 PUSH2 0x1F79 JUMP JUMPDEST PUSH2 0x200 SWAP2 POP AND ISZERO ISZERO DUP8 PUSH2 0x1F73 JUMP JUMPDEST POP PUSH2 0x800 DUP3 AND ISZERO ISZERO PUSH2 0x1EED JUMP JUMPDEST CALLVALUE PUSH2 0x330 JUMPI PUSH1 0x60 PUSH32 0xFFFFFFFFFFFFFFFFFFFFFFFFFFFFFFFFFFFFFFFFFFFFFFFFFFFFFFFFFFFFFFFC CALLDATASIZE ADD SLT PUSH2 0x330 JUMPI PUSH2 0x201A PUSH2 0x2D3F JUMP JUMPDEST PUSH20 0xFFFFFFFFFFFFFFFFFFFFFFFFFFFFFFFFFFFFFFFF PUSH2 0x2037 PUSH2 0x2D62 JUMP JUMPDEST SWAP2 AND PUSH0 MSTORE PUSH1 0x5 PUSH1 0x20 MSTORE PUSH20 0xFFFFFFFFFFFFFFFFFFFFFFFFFFFFFFFFFFFFFFFF PUSH1 0x40 PUSH0 KECCAK256 SWAP2 AND PUSH0 MSTORE PUSH1 0x20 MSTORE PUSH1 0x40 PUSH0 KECCAK256 PUSH1 0x44 CALLDATALOAD PUSH0 MSTORE PUSH1 0x20 MSTORE PUSH1 0x20 PUSH1 0x40 PUSH0 KECCAK256 SLOAD PUSH1 0x40 MLOAD SWAP1 DUP2 MSTORE RETURN JUMPDEST CALLVALUE PUSH2 0x330 JUMPI PUSH1 0x40 PUSH32 0xFFFFFFFFFFFFFFFFFFFFFFFFFFFFFFFFFFFFFFFFFFFFFFFFFFFFFFFFFFFFFFFC CALLDATASIZE ADD SLT PUSH2 0x330 JUMPI PUSH2 0x20B2 PUSH2 0x2D3F JUMP JUMPDEST PUSH1 0x24 CALLDATALOAD SWAP1 DUP2 ISZERO ISZERO DUP1 SWAP3 SUB PUSH2 0x330 JUMPI PUSH20 0xFFFFFFFFFFFFFFFFFFFFFFFFFFFFFFFFFFFFFFFF SWAP1 CALLER PUSH0 MSTORE PUSH1 0x3 PUSH1 0x20 MSTORE PUSH1 0x40 PUSH0 KECCAK256 DUP3 DUP3 AND PUSH0 MSTORE PUSH1 0x20 MSTORE PUSH1 0x40 PUSH0 KECCAK256 PUSH32 0xFFFFFFFFFFFFFFFFFFFFFFFFFFFFFFFFFFFFFFFFFFFFFFFFFFFFFFFFFFFFFF00 DUP2 SLOAD AND PUSH1 0xFF DUP6 AND OR SWAP1 SSTORE PUSH1 0x40 MLOAD SWAP3 DUP4 MSTORE AND SWAP1 PUSH32 0xCEB576D9F15E4E200FDB5096D64D5DFD667E16DEF20C1EEFD14256D8E3FAA267 PUSH1 0x20 CALLER SWAP3 LOG3 PUSH1 0x20 PUSH1 0x40 MLOAD PUSH1 0x1 DUP2 MSTORE RETURN JUMPDEST CALLVALUE PUSH2 0x330 JUMPI PUSH1 0xC0 PUSH32 0xFFFFFFFFFFFFFFFFFFFFFFFFFFFFFFFFFFFFFFFFFFFFFFFFFFFFFFFFFFFFFFFC CALLDATASIZE ADD SLT PUSH2 0x330 JUMPI PUSH2 0x218A CALLDATASIZE PUSH2 0x2E81 JUMP JUMPDEST PUSH2 0x2192 PUSH2 0x2E6F JUMP JUMPDEST SWAP1 PUSH3 0x800000 PUSH3 0xFFFFFF PUSH1 0x40 DUP4 ADD MLOAD AND EQ DUP1 ISZERO SWAP1 PUSH2 0x2246 JUMPI JUMPDEST PUSH2 0x221E JUMPI PUSH1 0xA0 SWAP1 PUSH2 0x21BA DUP4 PUSH2 0x368E JUMP JUMPDEST KECCAK256 PUSH0 MSTORE PUSH1 0x6 PUSH1 0x20 MSTORE PUSH1 0x40 PUSH0 KECCAK256 SWAP1 PUSH2 0x21D0 DUP3 PUSH2 0x3576 JUMP JUMPDEST DUP2 SLOAD PUSH32 0xFFFFFF000000FFFFFFFFFFFFFFFFFFFFFFFFFFFFFFFFFFFFFFFFFFFFFFFFFFFF AND PUSH1 0xD0 SWAP2 SWAP1 SWAP2 SHL PUSH29 0xFFFFFF0000000000000000000000000000000000000000000000000000 AND OR SWAP1 SSTORE STOP JUMPDEST PUSH32 0x30D2164100000000000000000000000000000000000000000000000000000000 PUSH0 MSTORE PUSH1 0x4 PUSH0 REVERT JUMPDEST POP PUSH20 0xFFFFFFFFFFFFFFFFFFFFFFFFFFFFFFFFFFFFFFFF PUSH1 0x80 DUP3 ADD MLOAD AND CALLER EQ ISZERO PUSH2 0x21AA JUMP JUMPDEST CALLVALUE PUSH2 0x330 JUMPI PUSH1 0x20 PUSH32 0xFFFFFFFFFFFFFFFFFFFFFFFFFFFFFFFFFFFFFFFFFFFFFFFFFFFFFFFFFFFFFFFC CALLDATASIZE ADD SLT PUSH2 0x330 JUMPI PUSH1 0x4 CALLDATALOAD PUSH8 0xFFFFFFFFFFFFFFFF DUP2 GT PUSH2 0x330 JUMPI PUSH2 0x22B9 SWAP1 CALLDATASIZE SWAP1 PUSH1 0x4 ADD PUSH2 0x2F4D JUMP JUMPDEST PUSH32 0xC090FC4683624CFC3884E9D8DE5ECA132F2D0EC062AFF75D43C0465D5CEEAB23 TLOAD PUSH2 0x24CD JUMPI PUSH2 0x2345 SWAP2 PUSH0 SWAP2 PUSH1 0x1 PUSH32 0xC090FC4683624CFC3884E9D8DE5ECA132F2D0EC062AFF75D43C0465D5CEEAB23 TSTORE PUSH1 0x40 MLOAD SWAP4 DUP5 SWAP3 DUP4 SWAP3 PUSH32 0x91DD734600000000000000000000000000000000000000000000000000000000 DUP5 MSTORE PUSH1 0x20 PUSH1 0x4 DUP6 ADD MSTORE PUSH1 0x24 DUP5 ADD SWAP2 PUSH2 0x306C JUMP JUMPDEST SUB DUP2 DUP4 CALLER GAS CALL SWAP1 DUP2 ISZERO PUSH2 0x24C2 JUMPI PUSH0 SWAP2 PUSH2 0x241A JUMPI JUMPDEST POP PUSH32 0x7D4B3164C6E45B97E7D87B7125A44C5828D005AF88F9D751CFD78729C5D99A0B TLOAD PUSH2 0x23F2 JUMPI PUSH1 0x40 PUSH1 0x20 SWAP2 PUSH0 PUSH32 0xC090FC4683624CFC3884E9D8DE5ECA132F2D0EC062AFF75D43C0465D5CEEAB23 TSTORE PUSH32 0xFFFFFFFFFFFFFFFFFFFFFFFFFFFFFFFFFFFFFFFFFFFFFFFFFFFFFFFFFFFFFFE0 PUSH1 0x1F DUP4 MLOAD SWAP5 DUP6 SWAP4 DUP2 DUP6 MSTORE DUP1 MLOAD SWAP2 DUP3 SWAP2 DUP3 DUP3 DUP9 ADD MSTORE ADD DUP7 DUP7 ADD MCOPY PUSH0 DUP6 DUP3 DUP7 ADD ADD MSTORE ADD AND DUP2 ADD SUB ADD SWAP1 RETURN JUMPDEST PUSH32 0x5212CBA100000000000000000000000000000000000000000000000000000000 PUSH0 MSTORE PUSH1 0x4 PUSH0 REVERT JUMPDEST SWAP1 POP RETURNDATASIZE DUP1 PUSH0 DUP4 RETURNDATACOPY PUSH2 0x242B DUP2 DUP4 PUSH2 0x2E2E JUMP JUMPDEST DUP2 ADD SWAP1 PUSH1 0x20 DUP2 DUP4 SUB SLT PUSH2 0x330 JUMPI DUP1 MLOAD SWAP1 PUSH8 0xFFFFFFFFFFFFFFFF DUP3 GT PUSH2 0x330 JUMPI ADD DUP2 PUSH1 0x1F DUP3 ADD SLT ISZERO PUSH2 0x330 JUMPI DUP1 MLOAD SWAP1 PUSH8 0xFFFFFFFFFFFFFFFF DUP3 GT PUSH2 0x1EB1 JUMPI PUSH1 0x40 MLOAD SWAP3 PUSH2 0x249E PUSH1 0x20 PUSH32 0xFFFFFFFFFFFFFFFFFFFFFFFFFFFFFFFFFFFFFFFFFFFFFFFFFFFFFFFFFFFFFFE0 PUSH1 0x1F DUP7 ADD AND ADD DUP6 PUSH2 0x2E2E JUMP JUMPDEST DUP3 DUP5 MSTORE PUSH1 0x20 DUP4 DUP4 ADD ADD GT PUSH2 0x330 JUMPI DUP2 PUSH0 SWAP3 PUSH1 0x20 DUP1 SWAP4 ADD DUP4 DUP7 ADD MCOPY DUP4 ADD ADD MSTORE DUP2 PUSH2 0x2359 JUMP JUMPDEST PUSH1 0x40 MLOAD RETURNDATASIZE PUSH0 DUP3 RETURNDATACOPY RETURNDATASIZE SWAP1 REVERT JUMPDEST PUSH32 0x5090D6C600000000000000000000000000000000000000000000000000000000 PUSH0 MSTORE PUSH1 0x4 PUSH0 REVERT JUMPDEST CALLVALUE PUSH2 0x330 JUMPI PUSH20 0xFFFFFFFFFFFFFFFFFFFFFFFFFFFFFFFFFFFFFFFF PUSH2 0x2518 CALLDATASIZE PUSH2 0x2D85 JUMP JUMPDEST SWAP2 SWAP3 SWAP1 SWAP3 CALLER PUSH0 MSTORE PUSH1 0x5 PUSH1 0x20 MSTORE PUSH1 0x40 PUSH0 KECCAK256 DUP3 DUP3 AND PUSH0 MSTORE PUSH1 0x20 MSTORE PUSH1 0x40 PUSH0 KECCAK256 DUP5 PUSH0 MSTORE PUSH1 0x20 MSTORE DUP3 PUSH1 0x40 PUSH0 KECCAK256 SSTORE PUSH1 0x40 MLOAD SWAP3 DUP4 MSTORE AND SWAP1 PUSH32 0xB3FD5071835887567A0671151121894DDCCC2842F1D10BEDAD13E0D17CACE9A7 PUSH1 0x20 CALLER SWAP3 LOG4 PUSH1 0x20 PUSH1 0x40 MLOAD PUSH1 0x1 DUP2 MSTORE RETURN JUMPDEST PUSH1 0x20 PUSH32 0xFFFFFFFFFFFFFFFFFFFFFFFFFFFFFFFFFFFFFFFFFFFFFFFFFFFFFFFFFFFFFFFC CALLDATASIZE ADD SLT PUSH2 0x330 JUMPI PUSH2 0x25AB PUSH2 0x2D3F JUMP JUMPDEST PUSH32 0xC090FC4683624CFC3884E9D8DE5ECA132F2D0EC062AFF75D43C0465D5CEEAB23 TLOAD ISZERO PUSH2 0x4D7 JUMPI PUSH2 0x7A2 PUSH1 0x20 SWAP2 PUSH2 0x342D JUMP JUMPDEST CALLVALUE PUSH2 0x330 JUMPI PUSH1 0x40 PUSH32 0xFFFFFFFFFFFFFFFFFFFFFFFFFFFFFFFFFFFFFFFFFFFFFFFFFFFFFFFFFFFFFFFC CALLDATASIZE ADD SLT PUSH2 0x330 JUMPI PUSH1 0x24 CALLDATALOAD PUSH1 0x4 CALLDATALOAD PUSH1 0x40 MLOAD SWAP2 PUSH1 0x40 DUP4 PUSH1 0x20 DUP2 MSTORE DUP3 PUSH1 0x20 DUP3 ADD MSTORE ADD SWAP1 PUSH1 0x5 SHL DUP4 ADD SWAP2 PUSH1 0x1 PUSH1 0x20 PUSH1 0x40 DUP6 ADD SWAP4 JUMPDEST DUP4 SLOAD DUP2 MSTORE ADD SWAP2 ADD SWAP1 DUP5 DUP4 DUP3 LT ISZERO PUSH2 0x9CC JUMPI POP PUSH1 0x20 PUSH1 0x1 SWAP2 PUSH2 0x2635 JUMP JUMPDEST CALLVALUE PUSH2 0x330 JUMPI PUSH1 0x20 PUSH32 0xFFFFFFFFFFFFFFFFFFFFFFFFFFFFFFFFFFFFFFFFFFFFFFFFFFFFFFFFFFFFFFFC CALLDATASIZE ADD SLT PUSH2 0x330 JUMPI PUSH20 0xFFFFFFFFFFFFFFFFFFFFFFFFFFFFFFFFFFFFFFFF PUSH2 0x269D PUSH2 0x2D3F JUMP JUMPDEST PUSH2 0x26AB DUP3 PUSH0 SLOAD AND CALLER EQ PUSH2 0x3007 JUMP JUMPDEST AND DUP1 PUSH32 0xFFFFFFFFFFFFFFFFFFFFFFFF0000000000000000000000000000000000000000 PUSH1 0x2 SLOAD AND OR PUSH1 0x2 SSTORE PUSH32 0xB4BD8EF53DF690B9943D3318996006DBB82A25F54719D8C8035B516A2A5B8ACC PUSH0 DUP1 LOG2 STOP JUMPDEST CALLVALUE PUSH2 0x330 JUMPI PUSH2 0x100 PUSH32 0xFFFFFFFFFFFFFFFFFFFFFFFFFFFFFFFFFFFFFFFFFFFFFFFFFFFFFFFFFFFFFFFC CALLDATASIZE ADD SLT PUSH2 0x330 JUMPI PUSH2 0x2735 CALLDATASIZE PUSH2 0x2E81 JUMP JUMPDEST PUSH1 0xC4 CALLDATALOAD SWAP1 PUSH1 0xA4 CALLDATALOAD PUSH1 0xE4 CALLDATALOAD PUSH8 0xFFFFFFFFFFFFFFFF DUP2 GT PUSH2 0x330 JUMPI PUSH2 0x275C SWAP1 CALLDATASIZE SWAP1 PUSH1 0x4 ADD PUSH2 0x2F4D JUMP JUMPDEST SWAP2 SWAP1 SWAP4 PUSH32 0xC090FC4683624CFC3884E9D8DE5ECA132F2D0EC062AFF75D43C0465D5CEEAB23 TLOAD ISZERO PUSH2 0x4D7 JUMPI PUSH2 0x278E PUSH2 0x350F JUMP JUMPDEST PUSH1 0xA0 DUP5 KECCAK256 SWAP5 DUP6 PUSH0 MSTORE PUSH1 0x6 PUSH1 0x20 MSTORE PUSH1 0x40 PUSH0 KECCAK256 SWAP5 PUSH2 0x27A9 DUP7 PUSH2 0x3576 JUMP JUMPDEST PUSH1 0x80 DUP2 ADD DUP1 MLOAD PUSH20 0xFFFFFFFFFFFFFFFFFFFFFFFFFFFFFFFFFFFFFFFF DUP2 AND SWAP1 DUP2 CALLER SUB PUSH2 0x2943 JUMPI JUMPDEST POP POP PUSH16 0xFFFFFFFFFFFFFFFFFFFFFFFFFFFFFFFF PUSH1 0x3 DUP9 ADD SLOAD AND SWAP8 DUP9 ISZERO PUSH2 0x291B JUMPI PUSH1 0x20 SWAP9 PUSH2 0x27FB DUP8 PUSH2 0x30AA JUMP JUMPDEST PUSH0 SUB PUSH2 0x2806 DUP8 PUSH2 0x30AA JUMP JUMPDEST PUSH0 SUB PUSH16 0xFFFFFFFFFFFFFFFFFFFFFFFFFFFFFFFF AND SWAP1 PUSH1 0x80 SHL OR SWAP9 DUP8 PUSH2 0x2907 JUMPI JUMPDEST DUP7 PUSH2 0x28F2 JUMPI JUMPDEST POP POP PUSH2 0x2839 CALLER DUP10 DUP6 PUSH2 0x3652 JUMP JUMPDEST PUSH1 0x40 MLOAD SWAP1 DUP7 DUP3 MSTORE DUP6 DUP11 DUP4 ADD MSTORE PUSH32 0x29EF05CAAFF9404B7CB6D1C0E9BBAE9EAA7AB2541FEBA1A9C4248594C08156CB PUSH1 0x40 CALLER SWAP4 LOG3 MLOAD SWAP3 PUSH20 0xFFFFFFFFFFFFFFFFFFFFFFFFFFFFFFFFFFFFFFFF DUP5 AND SWAP4 DUP5 CALLER SUB PUSH2 0x2897 JUMPI JUMPDEST DUP9 DUP9 PUSH1 0x40 MLOAD SWAP1 DUP2 MSTORE RETURN JUMPDEST PUSH1 0x10 AND PUSH2 0x28A5 JUMPI JUMPDEST DUP1 PUSH2 0x288D JUMP JUMPDEST PUSH2 0x28E6 SWAP6 PUSH2 0x12AA SWAP4 PUSH2 0x1F36 SWAP3 PUSH1 0x40 MLOAD SWAP8 DUP9 SWAP6 PUSH32 0xE1B4AF6900000000000000000000000000000000000000000000000000000000 DUP14 DUP9 ADD MSTORE CALLER PUSH1 0x24 DUP9 ADD PUSH2 0x35BC JUMP JUMPDEST POP DUP3 DUP1 DUP1 DUP1 DUP1 DUP1 PUSH2 0x289F JUMP JUMPDEST PUSH1 0x2 ADD SWAP1 DUP7 PUSH1 0x80 SHL DIV DUP2 SLOAD ADD SWAP1 SSTORE DUP10 DUP1 PUSH2 0x282C JUMP JUMPDEST PUSH1 0x1 DUP2 ADD DUP3 DUP10 PUSH1 0x80 SHL DIV DUP2 SLOAD ADD SWAP1 SSTORE PUSH2 0x2826 JUMP JUMPDEST PUSH32 0xA74F97AB00000000000000000000000000000000000000000000000000000000 PUSH0 MSTORE PUSH1 0x4 PUSH0 REVERT JUMPDEST PUSH1 0x20 AND PUSH2 0x2951 JUMPI JUMPDEST DUP1 PUSH2 0x27CF JUMP JUMPDEST PUSH1 0x40 MLOAD PUSH32 0xB6A8B0FA00000000000000000000000000000000000000000000000000000000 PUSH1 0x20 DUP3 ADD MSTORE PUSH2 0x2994 SWAP2 PUSH2 0x12AA DUP3 PUSH2 0x1F36 DUP12 DUP10 DUP12 DUP14 DUP12 CALLER PUSH1 0x24 DUP9 ADD PUSH2 0x35BC JUMP JUMPDEST POP DUP9 PUSH2 0x294B JUMP JUMPDEST CALLVALUE PUSH2 0x330 JUMPI PUSH1 0x20 PUSH32 0xFFFFFFFFFFFFFFFFFFFFFFFFFFFFFFFFFFFFFFFFFFFFFFFFFFFFFFFFFFFFFFFC CALLDATASIZE ADD SLT PUSH2 0x330 JUMPI PUSH1 0x4 CALLDATALOAD SLOAD PUSH0 MSTORE PUSH1 0x20 PUSH0 RETURN JUMPDEST CALLVALUE PUSH2 0x330 JUMPI PUSH2 0x29E3 CALLDATASIZE PUSH2 0x2D85 JUMP JUMPDEST SWAP1 PUSH32 0xC090FC4683624CFC3884E9D8DE5ECA132F2D0EC062AFF75D43C0465D5CEEAB23 TLOAD ISZERO PUSH2 0x4D7 JUMPI PUSH32 0x1B3D7EDB2E9C0B0E7C525B20AAAEF0F5940D2ED71663C7D39266ECAFAC728859 PUSH2 0x3ED PUSH20 0xFFFFFFFFFFFFFFFFFFFFFFFFFFFFFFFFFFFFFFFF DUP1 PUSH0 SWAP5 AND SWAP6 PUSH2 0x2A62 PUSH2 0x2A55 DUP8 PUSH2 0x30AA JUMP JUMPDEST DUP7 SUB PUSH1 0xF SIGNEXTEND CALLER SWAP1 DUP10 PUSH2 0x30F0 JUMP JUMPDEST AND SWAP4 DUP5 DUP5 MSTORE PUSH1 0x4 PUSH1 0x20 MSTORE PUSH1 0x40 DUP5 KECCAK256 DUP7 DUP6 MSTORE PUSH1 0x20 MSTORE PUSH1 0x40 DUP5 KECCAK256 PUSH2 0x25F DUP3 DUP3 SLOAD PUSH2 0x2FFA JUMP JUMPDEST PUSH0 PUSH32 0xFFFFFFFFFFFFFFFFFFFFFFFFFFFFFFFFFFFFFFFFFFFFFFFFFFFFFFFFFFFFFFFC CALLDATASIZE ADD SLT PUSH2 0x330 JUMPI PUSH32 0xC090FC4683624CFC3884E9D8DE5ECA132F2D0EC062AFF75D43C0465D5CEEAB23 TLOAD ISZERO PUSH2 0x4D7 JUMPI PUSH1 0x20 PUSH2 0x7A2 CALLER PUSH2 0x342D JUMP JUMPDEST CALLVALUE PUSH2 0x330 JUMPI PUSH1 0x60 PUSH32 0xFFFFFFFFFFFFFFFFFFFFFFFFFFFFFFFFFFFFFFFFFFFFFFFFFFFFFFFFFFFFFFFC CALLDATASIZE ADD SLT PUSH2 0x330 JUMPI PUSH2 0x2B17 PUSH2 0x2D3F JUMP JUMPDEST PUSH2 0x2B1F PUSH2 0x2D62 JUMP JUMPDEST PUSH1 0x44 CALLDATALOAD SWAP1 PUSH32 0xC090FC4683624CFC3884E9D8DE5ECA132F2D0EC062AFF75D43C0465D5CEEAB23 TLOAD ISZERO PUSH2 0x4D7 JUMPI PUSH2 0xE2F SWAP3 PUSH2 0x2B67 PUSH2 0x2B5A DUP5 PUSH2 0x30AA JUMP JUMPDEST PUSH0 SUB PUSH1 0xF SIGNEXTEND CALLER SWAP1 DUP4 PUSH2 0x30F0 JUMP JUMPDEST PUSH2 0x31F8 JUMP JUMPDEST CALLVALUE PUSH2 0x330 JUMPI PUSH20 0xFFFFFFFFFFFFFFFFFFFFFFFFFFFFFFFFFFFFFFFF PUSH2 0x2B8F CALLDATASIZE PUSH2 0x2D85 JUMP JUMPDEST SWAP2 SWAP3 SWAP1 SWAP3 CALLER PUSH0 MSTORE PUSH1 0x4 PUSH1 0x20 MSTORE PUSH1 0x40 PUSH0 KECCAK256 DUP5 PUSH0 MSTORE PUSH1 0x20 MSTORE PUSH1 0x40 PUSH0 KECCAK256 PUSH2 0x2BB4 DUP5 DUP3 SLOAD PUSH2 0x2FED JUMP JUMPDEST SWAP1 SSTORE AND SWAP1 DUP2 PUSH0 MSTORE PUSH1 0x4 PUSH1 0x20 MSTORE PUSH1 0x40 PUSH0 KECCAK256 DUP4 PUSH0 MSTORE PUSH1 0x20 MSTORE PUSH1 0x40 PUSH0 KECCAK256 PUSH2 0x2BD9 DUP3 DUP3 SLOAD PUSH2 0x2FFA JUMP JUMPDEST SWAP1 SSTORE PUSH1 0x40 DUP1 MLOAD CALLER DUP1 DUP3 MSTORE PUSH1 0x20 DUP3 ADD SWAP4 SWAP1 SWAP4 MSTORE PUSH32 0x1B3D7EDB2E9C0B0E7C525B20AAAEF0F5940D2ED71663C7D39266ECAFAC728859 SWAP2 DUP2 SWAP1 DUP2 ADD PUSH2 0x279 JUMP JUMPDEST CALLVALUE PUSH2 0x330 JUMPI PUSH1 0x20 PUSH32 0xFFFFFFFFFFFFFFFFFFFFFFFFFFFFFFFFFFFFFFFFFFFFFFFFFFFFFFFFFFFFFFFC CALLDATASIZE ADD SLT PUSH2 0x330 JUMPI PUSH1 0x4 CALLDATALOAD PUSH32 0xFFFFFFFF00000000000000000000000000000000000000000000000000000000 DUP2 AND DUP1 SWAP2 SUB PUSH2 0x330 JUMPI DUP1 PUSH32 0x1FFC9A700000000000000000000000000000000000000000000000000000000 PUSH1 0x20 SWAP3 EQ SWAP1 DUP2 ISZERO PUSH2 0x2CAB JUMPI JUMPDEST POP PUSH1 0x40 MLOAD SWAP1 ISZERO ISZERO DUP2 MSTORE RETURN JUMPDEST PUSH32 0xF632FB300000000000000000000000000000000000000000000000000000000 SWAP2 POP EQ DUP3 PUSH2 0x2CA0 JUMP JUMPDEST CALLVALUE PUSH2 0x330 JUMPI PUSH1 0x40 PUSH32 0xFFFFFFFFFFFFFFFFFFFFFFFFFFFFFFFFFFFFFFFFFFFFFFFFFFFFFFFFFFFFFFFC CALLDATASIZE ADD SLT PUSH2 0x330 JUMPI PUSH1 0x20 SWAP1 PUSH20 0xFFFFFFFFFFFFFFFFFFFFFFFFFFFFFFFFFFFFFFFF PUSH2 0x2D24 PUSH2 0x2D3F JUMP JUMPDEST AND PUSH0 MSTORE PUSH1 0x4 DUP3 MSTORE PUSH1 0x40 PUSH0 KECCAK256 PUSH1 0x24 CALLDATALOAD PUSH0 MSTORE DUP3 MSTORE PUSH1 0x40 PUSH0 KECCAK256 SLOAD DUP2 MSTORE RETURN JUMPDEST PUSH1 0x4 CALLDATALOAD SWAP1 PUSH20 0xFFFFFFFFFFFFFFFFFFFFFFFFFFFFFFFFFFFFFFFF DUP3 AND DUP3 SUB PUSH2 0x330 JUMPI JUMP JUMPDEST PUSH1 0x24 CALLDATALOAD SWAP1 PUSH20 0xFFFFFFFFFFFFFFFFFFFFFFFFFFFFFFFFFFFFFFFF DUP3 AND DUP3 SUB PUSH2 0x330 JUMPI JUMP JUMPDEST PUSH32 0xFFFFFFFFFFFFFFFFFFFFFFFFFFFFFFFFFFFFFFFFFFFFFFFFFFFFFFFFFFFFFFFC PUSH1 0x60 SWAP2 ADD SLT PUSH2 0x330 JUMPI PUSH1 0x4 CALLDATALOAD PUSH20 0xFFFFFFFFFFFFFFFFFFFFFFFFFFFFFFFFFFFFFFFF DUP2 AND DUP2 SUB PUSH2 0x330 JUMPI SWAP1 PUSH1 0x24 CALLDATALOAD SWAP1 PUSH1 0x44 CALLDATALOAD SWAP1 JUMP JUMPDEST PUSH1 0x80 DUP2 ADD SWAP1 DUP2 LT PUSH8 0xFFFFFFFFFFFFFFFF DUP3 GT OR PUSH2 0x1EB1 JUMPI PUSH1 0x40 MSTORE JUMP JUMPDEST PUSH1 0x60 DUP2 ADD SWAP1 DUP2 LT PUSH8 0xFFFFFFFFFFFFFFFF DUP3 GT OR PUSH2 0x1EB1 JUMPI PUSH1 0x40 MSTORE JUMP JUMPDEST PUSH1 0xA0 DUP2 ADD SWAP1 DUP2 LT PUSH8 0xFFFFFFFFFFFFFFFF DUP3 GT OR PUSH2 0x1EB1 JUMPI PUSH1 0x40 MSTORE JUMP JUMPDEST SWAP1 PUSH1 0x1F PUSH32 0xFFFFFFFFFFFFFFFFFFFFFFFFFFFFFFFFFFFFFFFFFFFFFFFFFFFFFFFFFFFFFFE0 SWAP2 ADD AND DUP2 ADD SWAP1 DUP2 LT PUSH8 0xFFFFFFFFFFFFFFFF DUP3 GT OR PUSH2 0x1EB1 JUMPI PUSH1 0x40 MSTORE JUMP JUMPDEST PUSH1 0xA4 CALLDATALOAD SWAP1 PUSH3 0xFFFFFF DUP3 AND DUP3 SUB PUSH2 0x330 JUMPI JUMP JUMPDEST PUSH32 0xFFFFFFFFFFFFFFFFFFFFFFFFFFFFFFFFFFFFFFFFFFFFFFFFFFFFFFFFFFFFFFFC PUSH1 0xA0 SWAP2 ADD SLT PUSH2 0x330 JUMPI PUSH1 0x40 MLOAD SWAP1 PUSH2 0x2EB8 DUP3 PUSH2 0x2E12 JUMP JUMPDEST DUP2 PUSH1 0x4 CALLDATALOAD PUSH20 0xFFFFFFFFFFFFFFFFFFFFFFFFFFFFFFFFFFFFFFFF DUP2 AND DUP2 SUB PUSH2 0x330 JUMPI DUP2 MSTORE PUSH1 0x24 CALLDATALOAD PUSH20 0xFFFFFFFFFFFFFFFFFFFFFFFFFFFFFFFFFFFFFFFF DUP2 AND DUP2 SUB PUSH2 0x330 JUMPI PUSH1 0x20 DUP3 ADD MSTORE PUSH1 0x44 CALLDATALOAD PUSH3 0xFFFFFF DUP2 AND DUP2 SUB PUSH2 0x330 JUMPI PUSH1 0x40 DUP3 ADD MSTORE PUSH1 0x64 CALLDATALOAD DUP1 PUSH1 0x2 SIGNEXTEND DUP2 SUB PUSH2 0x330 JUMPI PUSH1 0x60 DUP3 ADD MSTORE PUSH1 0x84 CALLDATALOAD SWAP1 PUSH20 0xFFFFFFFFFFFFFFFFFFFFFFFFFFFFFFFFFFFFFFFF DUP3 AND DUP3 SUB PUSH2 0x330 JUMPI PUSH1 0x80 ADD MSTORE JUMP JUMPDEST SWAP2 DUP2 PUSH1 0x1F DUP5 ADD SLT ISZERO PUSH2 0x330 JUMPI DUP3 CALLDATALOAD SWAP2 PUSH8 0xFFFFFFFFFFFFFFFF DUP4 GT PUSH2 0x330 JUMPI PUSH1 0x20 DUP4 DUP2 DUP7 ADD SWAP6 ADD ADD GT PUSH2 0x330 JUMPI JUMP JUMPDEST SWAP1 PUSH1 0x20 PUSH32 0xFFFFFFFFFFFFFFFFFFFFFFFFFFFFFFFFFFFFFFFFFFFFFFFFFFFFFFFFFFFFFFFC DUP4 ADD SLT PUSH2 0x330 JUMPI PUSH1 0x4 CALLDATALOAD PUSH8 0xFFFFFFFFFFFFFFFF DUP2 GT PUSH2 0x330 JUMPI DUP3 PUSH1 0x23 DUP3 ADD SLT ISZERO PUSH2 0x330 JUMPI DUP1 PUSH1 0x4 ADD CALLDATALOAD SWAP3 PUSH8 0xFFFFFFFFFFFFFFFF DUP5 GT PUSH2 0x330 JUMPI PUSH1 0x24 DUP5 PUSH1 0x5 SHL DUP4 ADD ADD GT PUSH2 0x330 JUMPI PUSH1 0x24 ADD SWAP2 SWAP1 JUMP JUMPDEST SWAP2 SWAP1 DUP3 SUB SWAP2 DUP3 GT PUSH2 0x1D94 JUMPI JUMP JUMPDEST SWAP2 SWAP1 DUP3 ADD DUP1 SWAP3 GT PUSH2 0x1D94 JUMPI JUMP JUMPDEST ISZERO PUSH2 0x300E JUMPI JUMP JUMPDEST PUSH1 0x64 PUSH1 0x40 MLOAD PUSH32 0x8C379A000000000000000000000000000000000000000000000000000000000 DUP2 MSTORE PUSH1 0x20 PUSH1 0x4 DUP3 ADD MSTORE PUSH1 0xC PUSH1 0x24 DUP3 ADD MSTORE PUSH32 0x554E415554484F52495A45440000000000000000000000000000000000000000 PUSH1 0x44 DUP3 ADD MSTORE REVERT JUMPDEST PUSH1 0x1F DUP3 PUSH1 0x20 SWAP5 SWAP4 PUSH32 0xFFFFFFFFFFFFFFFFFFFFFFFFFFFFFFFFFFFFFFFFFFFFFFFFFFFFFFFFFFFFFFE0 SWAP4 DUP2 DUP7 MSTORE DUP7 DUP7 ADD CALLDATACOPY PUSH0 DUP6 DUP3 DUP7 ADD ADD MSTORE ADD AND ADD ADD SWAP1 JUMP JUMPDEST PUSH16 0x80000000000000000000000000000000 DUP2 LT ISZERO PUSH2 0x30C8 JUMPI PUSH1 0xF SIGNEXTEND SWAP1 JUMP JUMPDEST PUSH32 0x93DAFDF100000000000000000000000000000000000000000000000000000000 PUSH0 MSTORE PUSH1 0x4 PUSH0 REVERT JUMPDEST SWAP2 SWAP1 PUSH1 0xF SIGNEXTEND SWAP2 DUP3 ISZERO PUSH2 0x31F3 JUMPI PUSH2 0x3126 SWAP2 SWAP1 PUSH20 0xFFFFFFFFFFFFFFFFFFFFFFFFFFFFFFFFFFFFFFFF DUP1 SWAP3 AND PUSH0 MSTORE AND PUSH1 0x20 MSTORE PUSH1 0x40 PUSH0 KECCAK256 SWAP1 JUMP JUMPDEST PUSH2 0x3132 DUP2 TLOAD SWAP3 DUP4 PUSH2 0x3B29 JUMP JUMPDEST DUP1 SWAP2 TSTORE PUSH2 0x31A3 JUMPI POP PUSH32 0xFFFFFFFFFFFFFFFFFFFFFFFFFFFFFFFFFFFFFFFFFFFFFFFFFFFFFFFFFFFFFFFF PUSH32 0x7D4B3164C6E45B97E7D87B7125A44C5828D005AF88F9D751CFD78729C5D99A0B TLOAD ADD PUSH32 0x7D4B3164C6E45B97E7D87B7125A44C5828D005AF88F9D751CFD78729C5D99A0B TSTORE JUMPDEST JUMP JUMPDEST ISZERO PUSH2 0x31AA JUMPI JUMP JUMPDEST PUSH1 0x1 PUSH32 0x7D4B3164C6E45B97E7D87B7125A44C5828D005AF88F9D751CFD78729C5D99A0B TLOAD ADD PUSH32 0x7D4B3164C6E45B97E7D87B7125A44C5828D005AF88F9D751CFD78729C5D99A0B TSTORE JUMP JUMPDEST POP POP POP JUMP JUMPDEST SWAP1 SWAP2 SWAP1 PUSH20 0xFFFFFFFFFFFFFFFFFFFFFFFFFFFFFFFFFFFFFFFF DUP2 AND SWAP1 DUP2 PUSH2 0x32EA JUMPI POP POP PUSH0 DUP1 DUP1 DUP1 SWAP4 DUP6 GAS CALL ISZERO PUSH2 0x322A JUMPI POP JUMP JUMPDEST PUSH32 0xFFFFFFFFFFFFFFFFFFFFFFFFFFFFFFFFFFFFFFFFFFFFFFFFFFFFFFFFFFFFFFE0 PUSH1 0x1F RETURNDATASIZE ADD AND PUSH20 0xFFFFFFFFFFFFFFFFFFFFFFFFFFFFFFFFFFFFFFFF PUSH1 0x40 MLOAD SWAP3 PUSH32 0x90BFB86500000000000000000000000000000000000000000000000000000000 DUP5 MSTORE AND PUSH1 0x4 DUP4 ADD MSTORE PUSH0 PUSH1 0x24 DUP4 ADD MSTORE PUSH1 0x80 PUSH1 0x44 DUP4 ADD MSTORE DUP1 PUSH1 0xA0 ADD PUSH1 0x64 DUP4 ADD MSTORE RETURNDATASIZE PUSH1 0x84 DUP4 ADD MSTORE RETURNDATASIZE PUSH0 PUSH1 0xA4 DUP5 ADD RETURNDATACOPY PUSH32 0xF4B3B1BC00000000000000000000000000000000000000000000000000000000 PUSH1 0xC4 DUP3 DUP5 ADD PUSH1 0x4 PUSH1 0xA4 DUP3 ADD MSTORE ADD MSTORE PUSH1 0xE4 ADD SWAP1 REVERT JUMPDEST PUSH1 0x20 PUSH0 PUSH1 0x44 DUP2 SWAP5 SWAP7 DUP3 PUSH1 0x40 SWAP6 PUSH20 0xFFFFFFFFFFFFFFFFFFFFFFFFFFFFFFFFFFFFFFFF SWAP9 DUP8 MLOAD SWAP10 DUP11 SWAP5 PUSH32 0xA9059CBB00000000000000000000000000000000000000000000000000000000 DUP7 MSTORE AND PUSH1 0x4 DUP6 ADD MSTORE PUSH1 0x24 DUP5 ADD MSTORE GAS CALL RETURNDATASIZE ISZERO PUSH1 0x1F RETURNDATASIZE GT PUSH1 0x1 DUP6 MLOAD EQ AND OR AND SWAP3 DUP3 DUP2 MSTORE DUP3 PUSH1 0x20 DUP3 ADD MSTORE ADD MSTORE ISZERO PUSH2 0x3363 JUMPI POP JUMP JUMPDEST PUSH32 0xFFFFFFFFFFFFFFFFFFFFFFFFFFFFFFFFFFFFFFFFFFFFFFFFFFFFFFFFFFFFFFE0 PUSH1 0x1F RETURNDATASIZE ADD AND PUSH1 0x40 MLOAD SWAP2 PUSH32 0x90BFB86500000000000000000000000000000000000000000000000000000000 DUP4 MSTORE PUSH1 0x4 DUP4 ADD MSTORE PUSH32 0xA9059CBB00000000000000000000000000000000000000000000000000000000 PUSH1 0x24 DUP4 ADD MSTORE PUSH1 0x80 PUSH1 0x44 DUP4 ADD MSTORE DUP1 PUSH1 0xA0 ADD PUSH1 0x64 DUP4 ADD MSTORE RETURNDATASIZE PUSH1 0x84 DUP4 ADD MSTORE RETURNDATASIZE PUSH0 PUSH1 0xA4 DUP5 ADD RETURNDATACOPY PUSH32 0xF27F64E400000000000000000000000000000000000000000000000000000000 PUSH1 0xC4 DUP3 DUP5 ADD PUSH1 0x4 PUSH1 0xA4 DUP3 ADD MSTORE ADD MSTORE PUSH1 0xE4 ADD SWAP1 REVERT JUMPDEST PUSH32 0x27E098C505D44EC3574004BCA052AABF76BD35004C182099D8C575FB238593B9 TLOAD SWAP2 SWAP1 PUSH20 0xFFFFFFFFFFFFFFFFFFFFFFFFFFFFFFFFFFFFFFFF DUP4 AND PUSH2 0x3482 JUMPI PUSH2 0x31A1 SWAP1 CALLVALUE SWAP4 JUMPDEST PUSH2 0x347C DUP6 PUSH2 0x30AA JUMP JUMPDEST SWAP1 PUSH2 0x30F0 JUMP JUMPDEST CALLVALUE PUSH2 0x34E7 JUMPI PUSH2 0x31A1 SWAP1 PUSH2 0x34BE PUSH32 0x1E0745A7DB1623981F0B2A5D4232364C00787266EB75AD546F190E6CEBE9BD95 TLOAD PUSH2 0x34B9 DUP7 PUSH2 0x3A92 JUMP JUMPDEST PUSH2 0x2FED JUMP JUMPDEST SWAP4 PUSH0 PUSH32 0x27E098C505D44EC3574004BCA052AABF76BD35004C182099D8C575FB238593B9 TSTORE PUSH2 0x3473 JUMP JUMPDEST PUSH32 0xB0EC849E00000000000000000000000000000000000000000000000000000000 PUSH0 MSTORE PUSH1 0x4 PUSH0 REVERT JUMPDEST PUSH20 0xFFFFFFFFFFFFFFFFFFFFFFFFFFFFFFFFFFFFFFFF PUSH32 0x0 AND ADDRESS SUB PUSH2 0x354E JUMPI JUMP JUMPDEST PUSH32 0xD89438E00000000000000000000000000000000000000000000000000000000 PUSH0 MSTORE PUSH1 0x4 PUSH0 REVERT JUMPDEST SLOAD PUSH20 0xFFFFFFFFFFFFFFFFFFFFFFFFFFFFFFFFFFFFFFFF AND ISZERO PUSH2 0x3594 JUMPI JUMP JUMPDEST PUSH32 0x486AA30700000000000000000000000000000000000000000000000000000000 PUSH0 MSTORE PUSH1 0x4 PUSH0 REVERT JUMPDEST SWAP2 SWAP3 PUSH2 0x3637 PUSH2 0x120 SWAP5 PUSH20 0xFFFFFFFFFFFFFFFFFFFFFFFFFFFFFFFFFFFFFFFF PUSH2 0x364F SWAP10 SWAP8 SWAP5 AND DUP6 MSTORE PUSH1 0x20 DUP6 ADD SWAP1 PUSH20 0xFFFFFFFFFFFFFFFFFFFFFFFFFFFFFFFFFFFFFFFF PUSH1 0x80 DUP1 SWAP3 DUP3 DUP2 MLOAD AND DUP6 MSTORE DUP3 PUSH1 0x20 DUP3 ADD MLOAD AND PUSH1 0x20 DUP7 ADD MSTORE PUSH3 0xFFFFFF PUSH1 0x40 DUP3 ADD MLOAD AND PUSH1 0x40 DUP7 ADD MSTORE PUSH1 0x60 DUP2 ADD MLOAD PUSH1 0x2 SIGNEXTEND PUSH1 0x60 DUP7 ADD MSTORE ADD MLOAD AND SWAP2 ADD MSTORE JUMP JUMPDEST PUSH1 0xC0 DUP4 ADD MSTORE PUSH1 0xE0 DUP3 ADD MSTORE DUP2 PUSH2 0x100 DUP3 ADD MSTORE ADD SWAP2 PUSH2 0x306C JUMP JUMPDEST SWAP1 JUMP JUMPDEST SWAP1 PUSH20 0xFFFFFFFFFFFFFFFFFFFFFFFFFFFFFFFFFFFFFFFF PUSH1 0x20 PUSH2 0x31A1 SWAP5 SWAP4 PUSH2 0x3681 DUP6 DUP5 DUP4 MLOAD AND DUP7 PUSH1 0x80 SAR SWAP1 PUSH2 0x30F0 JUMP JUMPDEST ADD MLOAD AND SWAP1 PUSH1 0xF SIGNEXTEND SWAP1 PUSH2 0x30F0 JUMP JUMPDEST PUSH3 0xFFFFFF AND PUSH3 0xF4240 DUP2 GT PUSH2 0x36A0 JUMPI POP JUMP JUMPDEST PUSH32 0x1400211300000000000000000000000000000000000000000000000000000000 PUSH0 MSTORE PUSH1 0x4 MSTORE PUSH1 0x24 PUSH0 REVERT JUMPDEST SWAP1 PUSH2 0x364F SWAP6 SWAP4 PUSH2 0x3748 PUSH2 0x160 SWAP5 PUSH20 0xFFFFFFFFFFFFFFFFFFFFFFFFFFFFFFFFFFFFFFFF PUSH2 0x3777 SWAP5 AND DUP6 MSTORE PUSH1 0x20 DUP6 ADD SWAP1 PUSH20 0xFFFFFFFFFFFFFFFFFFFFFFFFFFFFFFFFFFFFFFFF PUSH1 0x80 DUP1 SWAP3 DUP3 DUP2 MLOAD AND DUP6 MSTORE DUP3 PUSH1 0x20 DUP3 ADD MLOAD AND PUSH1 0x20 DUP7 ADD MSTORE PUSH3 0xFFFFFF PUSH1 0x40 DUP3 ADD MLOAD AND PUSH1 0x40 DUP7 ADD MSTORE PUSH1 0x60 DUP2 ADD MLOAD PUSH1 0x2 SIGNEXTEND PUSH1 0x60 DUP7 ADD MSTORE ADD MLOAD AND SWAP2 ADD MSTORE JUMP JUMPDEST DUP1 MLOAD PUSH1 0x2 SWAP1 DUP2 SIGNEXTEND PUSH1 0xC0 DUP6 ADD MSTORE PUSH1 0x20 DUP3 ADD MLOAD SWAP1 SIGNEXTEND PUSH1 0xE0 DUP5 ADD MSTORE PUSH1 0x40 DUP2 ADD MLOAD PUSH2 0x100 DUP5 ADD MSTORE PUSH1 0x60 ADD MLOAD PUSH2 0x120 DUP4 ADD MSTORE JUMP JUMPDEST DUP2 PUSH2 0x140 DUP3 ADD MSTORE ADD SWAP2 PUSH2 0x306C JUMP JUMPDEST SWAP1 DUP2 PUSH1 0xF SIGNEXTEND SWAP2 DUP3 SUB PUSH2 0x30C8 JUMPI JUMP JUMPDEST SWAP3 PUSH2 0x3841 SWAP1 PUSH2 0x3812 PUSH2 0x364F SWAP10 SWAP8 SWAP5 PUSH20 0xFFFFFFFFFFFFFFFFFFFFFFFFFFFFFFFFFFFFFFFF PUSH2 0x1A0 SWAP9 SWAP6 AND DUP8 MSTORE PUSH1 0x20 DUP8 ADD SWAP1 PUSH20 0xFFFFFFFFFFFFFFFFFFFFFFFFFFFFFFFFFFFFFFFF PUSH1 0x80 DUP1 SWAP3 DUP3 DUP2 MLOAD AND DUP6 MSTORE DUP3 PUSH1 0x20 DUP3 ADD MLOAD AND PUSH1 0x20 DUP7 ADD MSTORE PUSH3 0xFFFFFF PUSH1 0x40 DUP3 ADD MLOAD AND PUSH1 0x40 DUP7 ADD MSTORE PUSH1 0x60 DUP2 ADD MLOAD PUSH1 0x2 SIGNEXTEND PUSH1 0x60 DUP7 ADD MSTORE ADD MLOAD AND SWAP2 ADD MSTORE JUMP JUMPDEST DUP1 MLOAD PUSH1 0x2 SWAP1 DUP2 SIGNEXTEND PUSH1 0xC0 DUP8 ADD MSTORE PUSH1 0x20 DUP3 ADD MLOAD SWAP1 SIGNEXTEND PUSH1 0xE0 DUP7 ADD MSTORE PUSH1 0x40 DUP2 ADD MLOAD PUSH2 0x100 DUP7 ADD MSTORE PUSH1 0x60 ADD MLOAD PUSH2 0x120 DUP6 ADD MSTORE JUMP JUMPDEST PUSH2 0x140 DUP4 ADD MSTORE PUSH2 0x160 DUP3 ADD MSTORE DUP2 PUSH2 0x180 DUP3 ADD MSTORE ADD SWAP2 PUSH2 0x306C JUMP JUMPDEST SWAP4 SWAP6 SWAP1 SWAP2 SWAP3 SWAP7 SWAP5 PUSH0 SWAP7 PUSH20 0xFFFFFFFFFFFFFFFFFFFFFFFFFFFFFFFFFFFFFFFF DUP7 AND CALLER EQ PUSH2 0x39AC JUMPI DUP9 PUSH0 PUSH1 0x40 DUP8 ADD MLOAD SGT PUSH0 EQ PUSH2 0x393B JUMPI PUSH2 0x400 DUP8 AND PUSH2 0x38A2 JUMPI JUMPDEST POP POP POP POP POP POP POP JUMP JUMPDEST PUSH2 0x392E SWAP8 SWAP10 SWAP9 POP SWAP3 PUSH2 0x3927 SWAP7 SWAP6 SWAP5 SWAP3 PUSH2 0x38EF SWAP3 PUSH2 0x391B SWAP6 PUSH1 0x40 MLOAD SWAP8 DUP9 SWAP7 PUSH32 0x9F063EFC00000000000000000000000000000000000000000000000000000000 PUSH1 0x20 DUP10 ADD MSTORE CALLER PUSH1 0x24 DUP10 ADD PUSH2 0x3793 JUMP JUMPDEST SUB PUSH32 0xFFFFFFFFFFFFFFFFFFFFFFFFFFFFFFFFFFFFFFFFFFFFFFFFFFFFFFFFFFFFFFE0 DUP2 ADD DUP4 MSTORE DUP3 PUSH2 0x2E2E JUMP JUMPDEST PUSH1 0x2 DUP3 AND ISZERO ISZERO SWAP2 PUSH2 0x459F JUMP JUMPDEST DUP1 SWAP3 PUSH2 0x45BF JUMP JUMPDEST SWAP2 PUSH0 DUP1 DUP1 DUP1 DUP1 DUP1 DUP1 PUSH2 0x3899 JUMP JUMPDEST SWAP6 SWAP5 SWAP4 SWAP3 SWAP2 SWAP1 PUSH2 0x100 DUP7 AND PUSH2 0x3953 JUMPI POP POP POP POP POP POP POP JUMP JUMPDEST PUSH2 0x392E SWAP8 SWAP10 POP DUP7 SWAP9 POP SWAP2 PUSH2 0x38EF SWAP2 PUSH2 0x39A0 SWAP5 SWAP4 PUSH2 0x3927 SWAP9 PUSH1 0x40 MLOAD SWAP8 DUP9 SWAP7 PUSH32 0x6C2BBE7E00000000000000000000000000000000000000000000000000000000 PUSH1 0x20 DUP10 ADD MSTORE CALLER PUSH1 0x24 DUP10 ADD PUSH2 0x3793 JUMP JUMPDEST PUSH1 0x1 DUP3 AND ISZERO ISZERO SWAP2 PUSH2 0x459F JUMP JUMPDEST POP PUSH0 SWAP7 POP POP POP POP POP POP JUMP JUMPDEST PUSH1 0x80 DUP2 AND ISZERO DUP1 PUSH2 0x3A69 JUMPI JUMPDEST PUSH2 0x3A3F JUMPI PUSH1 0x40 DUP2 AND ISZERO DUP1 PUSH2 0x3A5D JUMPI JUMPDEST PUSH2 0x3A3F JUMPI PUSH2 0x400 DUP2 AND ISZERO DUP1 PUSH2 0x3A51 JUMPI JUMPDEST PUSH2 0x3A3F JUMPI PUSH2 0x100 DUP2 AND ISZERO DUP1 PUSH2 0x3A45 JUMPI JUMPDEST PUSH2 0x3A3F JUMPI PUSH20 0xFFFFFFFFFFFFFFFFFFFFFFFFFFFFFFFFFFFFFFFF DUP2 AND PUSH2 0x3A1F JUMPI POP PUSH3 0xFFFFFF AND PUSH3 0x800000 EQ ISZERO SWAP1 JUMP JUMPDEST PUSH2 0x3FFF AND ISZERO SWAP1 DUP2 ISZERO SWAP2 PUSH2 0x3A30 JUMPI POP SWAP1 JUMP JUMPDEST PUSH3 0x800000 SWAP2 POP PUSH3 0xFFFFFF AND EQ SWAP1 JUMP JUMPDEST POP POP PUSH0 SWAP1 JUMP JUMPDEST POP PUSH1 0x1 DUP2 AND ISZERO ISZERO PUSH2 0x39F1 JUMP JUMPDEST POP PUSH1 0x2 DUP2 AND ISZERO ISZERO PUSH2 0x39E1 JUMP JUMPDEST POP PUSH1 0x4 DUP2 AND ISZERO ISZERO PUSH2 0x39D1 JUMP JUMPDEST POP PUSH1 0x8 DUP2 AND ISZERO ISZERO PUSH2 0x39C2 JUMP JUMPDEST PUSH3 0x800000 PUSH3 0xFFFFFF DUP3 AND EQ PUSH2 0x3A8D JUMPI PUSH2 0x364F DUP2 PUSH2 0x368E JUMP JUMPDEST POP PUSH0 SWAP1 JUMP JUMPDEST PUSH20 0xFFFFFFFFFFFFFFFFFFFFFFFFFFFFFFFFFFFFFFFF AND DUP1 PUSH2 0x3AB2 JUMPI POP SELFBALANCE SWAP1 JUMP JUMPDEST PUSH1 0x20 PUSH1 0x24 SWAP2 PUSH1 0x40 MLOAD SWAP3 DUP4 DUP1 SWAP3 PUSH32 0x70A0823100000000000000000000000000000000000000000000000000000000 DUP3 MSTORE ADDRESS PUSH1 0x4 DUP4 ADD MSTORE GAS STATICCALL SWAP1 DUP2 ISZERO PUSH2 0x24C2 JUMPI PUSH0 SWAP2 PUSH2 0x3AFA JUMPI POP SWAP1 JUMP JUMPDEST SWAP1 POP PUSH1 0x20 DUP2 RETURNDATASIZE PUSH1 0x20 GT PUSH2 0x3B21 JUMPI JUMPDEST DUP2 PUSH2 0x3B15 PUSH1 0x20 SWAP4 DUP4 PUSH2 0x2E2E JUMP JUMPDEST DUP2 ADD SUB SLT PUSH2 0x330 JUMPI MLOAD SWAP1 JUMP JUMPDEST RETURNDATASIZE SWAP2 POP PUSH2 0x3B08 JUMP JUMPDEST SWAP2 SWAP1 SWAP2 PUSH0 DUP4 DUP3 ADD SWAP4 DUP5 SLT SWAP2 SLT SWAP1 DUP1 ISZERO DUP3 AND SWAP2 ISZERO AND OR PUSH2 0x1D94 JUMPI JUMP JUMPDEST PUSH1 0x20 DUP4 ADD MLOAD SWAP6 PUSH0 SWAP6 DUP7 SWAP6 SWAP2 SWAP5 SWAP2 CALLER PUSH20 0xFFFFFFFFFFFFFFFFFFFFFFFFFFFFFFFFFFFFFFFF DUP6 AND EQ PUSH2 0x3D2D JUMPI PUSH1 0x80 DUP5 AND PUSH2 0x3B7E JUMPI JUMPDEST POP POP POP POP POP JUMP JUMPDEST PUSH2 0x3C66 SWAP3 PUSH2 0x38EF PUSH2 0x3C60 SWAP3 PUSH2 0x3C4C SWAP5 PUSH1 0x40 MLOAD SWAP6 DUP7 SWAP5 PUSH32 0x575E24B400000000000000000000000000000000000000000000000000000000 PUSH1 0x20 DUP8 ADD MSTORE CALLER PUSH1 0x24 DUP8 ADD MSTORE PUSH2 0x3C16 PUSH1 0x44 DUP8 ADD DUP13 PUSH20 0xFFFFFFFFFFFFFFFFFFFFFFFFFFFFFFFFFFFFFFFF PUSH1 0x80 DUP1 SWAP3 DUP3 DUP2 MLOAD AND DUP6 MSTORE DUP3 PUSH1 0x20 DUP3 ADD MLOAD AND PUSH1 0x20 DUP7 ADD MSTORE PUSH3 0xFFFFFF PUSH1 0x40 DUP3 ADD MLOAD AND PUSH1 0x40 DUP7 ADD MSTORE PUSH1 0x60 DUP2 ADD MLOAD PUSH1 0x2 SIGNEXTEND PUSH1 0x60 DUP7 ADD MSTORE ADD MLOAD AND SWAP2 ADD MSTORE JUMP JUMPDEST DUP1 MLOAD ISZERO ISZERO PUSH1 0xE4 DUP8 ADD MSTORE PUSH1 0x20 DUP2 ADD MLOAD PUSH2 0x104 DUP8 ADD MSTORE PUSH1 0x40 ADD MLOAD PUSH20 0xFFFFFFFFFFFFFFFFFFFFFFFFFFFFFFFFFFFFFFFF AND PUSH2 0x124 DUP7 ADD MSTORE JUMP JUMPDEST PUSH2 0x140 PUSH2 0x144 DUP6 ADD MSTORE PUSH2 0x164 DUP5 ADD SWAP2 PUSH2 0x306C JUMP JUMPDEST DUP3 PUSH2 0x3F25 JUMP JUMPDEST SWAP2 PUSH1 0x60 DUP4 MLOAD SUB PUSH2 0x3D05 JUMPI PUSH1 0x40 ADD MLOAD PUSH3 0xFFFFFF AND PUSH3 0x800000 EQ PUSH2 0x3CF9 JUMPI JUMPDEST PUSH1 0x8 AND PUSH2 0x3C94 JUMPI JUMPDEST DUP1 DUP1 DUP1 DUP1 PUSH2 0x3B77 JUMP JUMPDEST PUSH1 0x40 ADD MLOAD SWAP3 POP PUSH1 0x80 DUP4 SWAP1 SAR PUSH1 0xF SIGNEXTEND DUP1 ISZERO PUSH2 0x3C8B JUMPI PUSH2 0x3CB5 SWAP1 PUSH0 DUP7 SLT SWAP6 PUSH2 0x3B29 JUMP JUMPDEST SWAP4 ISZERO PUSH2 0x3CF1 JUMPI PUSH0 DUP5 SGT JUMPDEST PUSH2 0x3CC9 JUMPI PUSH0 PUSH2 0x3C8B JUMP JUMPDEST PUSH32 0xFA0B71D600000000000000000000000000000000000000000000000000000000 PUSH0 MSTORE PUSH1 0x4 PUSH0 REVERT JUMPDEST PUSH0 DUP5 SLT PUSH2 0x3CBF JUMP JUMPDEST PUSH1 0x60 DUP3 ADD MLOAD SWAP4 POP PUSH2 0x3C83 JUMP JUMPDEST PUSH32 0x1E048E1D00000000000000000000000000000000000000000000000000000000 PUSH0 MSTORE PUSH1 0x4 PUSH0 REVERT JUMPDEST POP PUSH0 SWAP7 POP DUP7 SWAP6 POP POP POP POP POP JUMP JUMPDEST SWAP1 PUSH1 0xF SIGNEXTEND SWAP1 PUSH1 0xF SIGNEXTEND ADD SWAP1 PUSH32 0xFFFFFFFFFFFFFFFFFFFFFFFFFFFFFFFF80000000000000000000000000000000 DUP3 SLT PUSH16 0x7FFFFFFFFFFFFFFFFFFFFFFFFFFFFFFF DUP4 SGT OR PUSH2 0x1D94 JUMPI JUMP JUMPDEST SWAP2 SWAP7 SWAP6 SWAP4 SWAP5 SWAP3 SWAP5 PUSH20 0xFFFFFFFFFFFFFFFFFFFFFFFFFFFFFFFFFFFFFFFF DUP4 AND CALLER EQ PUSH2 0x3F18 JUMPI DUP5 PUSH1 0x80 SAR SWAP5 PUSH1 0xF SIGNEXTEND SWAP4 DUP9 PUSH1 0x40 DUP6 AND PUSH2 0x3E40 JUMPI JUMPDEST POP POP POP POP POP PUSH0 SWAP5 DUP2 PUSH1 0xF SIGNEXTEND ISZERO DUP1 ISZERO SWAP1 PUSH2 0x3E34 JUMPI JUMPDEST PUSH2 0x3DD8 JUMPI JUMPDEST POP POP POP SWAP2 SWAP1 JUMP JUMPDEST PUSH2 0x3E0F SWAP4 SWAP6 POP PUSH0 PUSH1 0x20 DUP3 ADD MLOAD SLT SWAP1 MLOAD ISZERO ISZERO EQ PUSH0 EQ PUSH2 0x3E17 JUMPI PUSH16 0xFFFFFFFFFFFFFFFFFFFFFFFFFFFFFFFF AND SWAP1 PUSH1 0x80 SHL OR JUMPDEST DUP1 SWAP4 PUSH2 0x45BF JUMP JUMPDEST PUSH0 DUP1 DUP1 PUSH2 0x3DD1 JUMP JUMPDEST SWAP1 PUSH16 0xFFFFFFFFFFFFFFFFFFFFFFFFFFFFFFFF AND SWAP1 PUSH1 0x80 SHL OR PUSH2 0x3E08 JUMP JUMPDEST POP DUP3 PUSH1 0xF SIGNEXTEND ISZERO ISZERO PUSH2 0x3DCC JUMP JUMPDEST PUSH2 0x3EFC PUSH2 0x3F08 SWAP5 PUSH2 0x38EF PUSH2 0x18ED SWAP6 PUSH2 0x3F0E SWAP10 SWAP9 SWAP6 PUSH2 0x3EE1 PUSH2 0x3C16 SWAP7 PUSH1 0x40 MLOAD SWAP8 DUP9 SWAP7 PUSH32 0xB47B2FB100000000000000000000000000000000000000000000000000000000 PUSH1 0x20 DUP10 ADD MSTORE CALLER PUSH1 0x24 DUP10 ADD MSTORE PUSH1 0x44 DUP9 ADD SWAP1 PUSH20 0xFFFFFFFFFFFFFFFFFFFFFFFFFFFFFFFFFFFFFFFF PUSH1 0x80 DUP1 SWAP3 DUP3 DUP2 MLOAD AND DUP6 MSTORE DUP3 PUSH1 0x20 DUP3 ADD MLOAD AND PUSH1 0x20 DUP7 ADD MSTORE PUSH3 0xFFFFFF PUSH1 0x40 DUP3 ADD MLOAD AND PUSH1 0x40 DUP7 ADD MSTORE PUSH1 0x60 DUP2 ADD MLOAD PUSH1 0x2 SIGNEXTEND PUSH1 0x60 DUP7 ADD MSTORE ADD MLOAD AND SWAP2 ADD MSTORE JUMP JUMPDEST DUP13 PUSH2 0x144 DUP6 ADD MSTORE PUSH2 0x160 PUSH2 0x164 DUP6 ADD MSTORE PUSH2 0x184 DUP5 ADD SWAP2 PUSH2 0x306C JUMP JUMPDEST PUSH1 0x4 DUP3 AND ISZERO ISZERO SWAP2 PUSH2 0x459F JUMP JUMPDEST SWAP1 PUSH2 0x3D3A JUMP JUMPDEST PUSH0 DUP1 DUP1 DUP1 DUP9 PUSH2 0x3DB8 JUMP JUMPDEST POP POP POP POP POP SWAP1 SWAP2 POP SWAP1 PUSH0 SWAP1 JUMP JUMPDEST SWAP2 SWAP1 SWAP2 DUP3 MLOAD SWAP3 PUSH0 DUP1 PUSH1 0x20 DUP4 ADD SWAP6 DUP7 DUP3 DUP7 GAS CALL ISZERO PUSH2 0x3FC3 JUMPI POP POP PUSH1 0x40 MLOAD SWAP2 PUSH32 0xFFFFFFFFFFFFFFFFFFFFFFFFFFFFFFFFFFFFFFFFFFFFFFFFFFFFFFFFFFFFFFE0 PUSH1 0x3F RETURNDATASIZE ADD AND DUP4 ADD PUSH1 0x40 MSTORE RETURNDATASIZE DUP4 MSTORE RETURNDATASIZE SWAP1 PUSH1 0x20 DUP5 ADD SWAP2 PUSH0 DUP4 RETURNDATACOPY PUSH1 0x20 DUP5 MLOAD LT SWAP2 DUP3 ISZERO PUSH2 0x3F8F JUMPI JUMPDEST POP POP PUSH2 0x3D05 JUMPI JUMP JUMPDEST MLOAD SWAP1 MLOAD PUSH32 0xFFFFFFFF00000000000000000000000000000000000000000000000000000000 SWAP2 DUP3 AND SWAP2 AND EQ ISZERO SWAP1 POP PUSH0 DUP1 PUSH2 0x3F87 JUMP JUMPDEST MLOAD DUP4 MLOAD PUSH32 0xFFFFFFFF00000000000000000000000000000000000000000000000000000000 DUP2 AND SWAP2 PUSH1 0x4 DUP2 LT PUSH2 0x40D7 JUMPI JUMPDEST POP POP PUSH32 0xFFFFFFFF00000000000000000000000000000000000000000000000000000000 PUSH32 0xFFFFFFFFFFFFFFFFFFFFFFFFFFFFFFFFFFFFFFFFFFFFFFFFFFFFFFFFFFFFFFE0 PUSH1 0x1F RETURNDATASIZE ADD AND SWAP2 PUSH20 0xFFFFFFFFFFFFFFFFFFFFFFFFFFFFFFFFFFFFFFFF PUSH1 0x40 MLOAD SWAP5 PUSH32 0x90BFB86500000000000000000000000000000000000000000000000000000000 DUP7 MSTORE AND PUSH1 0x4 DUP6 ADD MSTORE AND PUSH1 0x24 DUP4 ADD MSTORE PUSH1 0x80 PUSH1 0x44 DUP4 ADD MSTORE DUP1 PUSH1 0xA0 ADD PUSH1 0x64 DUP4 ADD MSTORE RETURNDATASIZE PUSH1 0x84 DUP4 ADD MSTORE RETURNDATASIZE PUSH0 PUSH1 0xA4 DUP5 ADD RETURNDATACOPY PUSH32 0xA9E35B2F00000000000000000000000000000000000000000000000000000000 PUSH1 0xC4 DUP3 DUP5 ADD PUSH1 0x4 PUSH1 0xA4 DUP3 ADD MSTORE ADD MSTORE PUSH1 0xE4 ADD SWAP1 REVERT JUMPDEST PUSH32 0xFFFFFFFF00000000000000000000000000000000000000000000000000000000 SWAP3 POP DUP3 SWAP1 PUSH1 0x4 SUB PUSH1 0x3 SHL SHL AND AND DUP3 DUP1 PUSH2 0x3FF3 JUMP JUMPDEST SWAP2 SWAP1 PUSH1 0x2 SIGNEXTEND SWAP1 PUSH1 0x2 SIGNEXTEND SWAP1 DUP2 DUP2 SMOD PUSH2 0x413A JUMPI SDIV SWAP1 DUP2 PUSH1 0x8 SAR PUSH0 MSTORE PUSH1 0x20 MSTORE PUSH1 0x1 PUSH1 0xFF PUSH1 0x40 PUSH0 KECCAK256 SWAP3 AND SHL DUP2 SLOAD XOR SWAP1 SSTORE JUMP JUMPDEST PUSH1 0x1C SWAP1 PUSH1 0x44 SWAP3 PUSH1 0x40 MLOAD SWAP2 PUSH4 0xD4D8F3E6 DUP4 MSTORE PUSH1 0x20 DUP4 ADD MSTORE PUSH1 0x40 DUP3 ADD MSTORE ADD REVERT JUMPDEST PUSH1 0x2 SIGNEXTEND SWAP1 DUP2 PUSH1 0xFF SAR DUP3 DUP2 ADD XOR PUSH3 0xD89E8 DUP2 GT PUSH2 0x449E JUMPI PUSH4 0xFFFFFFFF SWAP2 SWAP3 PUSH1 0x1 DUP3 AND PUSH17 0x1FFFCB933BD6FAD37AA2D162D1A594001 MUL PUSH17 0x100000000000000000000000000000000 XOR SWAP2 PUSH1 0x2 DUP2 AND PUSH2 0x4482 JUMPI JUMPDEST PUSH1 0x4 DUP2 AND PUSH2 0x4466 JUMPI JUMPDEST PUSH1 0x8 DUP2 AND PUSH2 0x444A JUMPI JUMPDEST PUSH1 0x10 DUP2 AND PUSH2 0x442E JUMPI JUMPDEST PUSH1 0x20 DUP2 AND PUSH2 0x4412 JUMPI JUMPDEST PUSH1 0x40 DUP2 AND PUSH2 0x43F6 JUMPI JUMPDEST PUSH1 0x80 DUP2 AND PUSH2 0x43DA JUMPI JUMPDEST PUSH2 0x100 DUP2 AND PUSH2 0x43BE JUMPI JUMPDEST PUSH2 0x200 DUP2 AND PUSH2 0x43A2 JUMPI JUMPDEST PUSH2 0x400 DUP2 AND PUSH2 0x4386 JUMPI JUMPDEST PUSH2 0x800 DUP2 AND PUSH2 0x436A JUMPI JUMPDEST PUSH2 0x1000 DUP2 AND PUSH2 0x434E JUMPI JUMPDEST PUSH2 0x2000 DUP2 AND PUSH2 0x4332 JUMPI JUMPDEST PUSH2 0x4000 DUP2 AND PUSH2 0x4316 JUMPI JUMPDEST PUSH2 0x8000 DUP2 AND PUSH2 0x42FA JUMPI JUMPDEST PUSH3 0x10000 DUP2 AND PUSH2 0x42DE JUMPI JUMPDEST PUSH3 0x20000 DUP2 AND PUSH2 0x42C3 JUMPI JUMPDEST PUSH3 0x40000 DUP2 AND PUSH2 0x42A8 JUMPI JUMPDEST PUSH3 0x80000 AND PUSH2 0x428F JUMPI JUMPDEST PUSH0 SLT PUSH2 0x4268 JUMPI JUMPDEST ADD PUSH1 0x20 SHR SWAP1 JUMP JUMPDEST PUSH32 0xFFFFFFFFFFFFFFFFFFFFFFFFFFFFFFFFFFFFFFFFFFFFFFFFFFFFFFFFFFFFFFFF DIV PUSH2 0x4261 JUMP JUMPDEST PUSH12 0x48A170391F7DC42444E8FA2 SWAP1 SWAP2 MUL PUSH1 0x80 SHR SWAP1 PUSH2 0x425A JUMP JUMPDEST PUSH14 0x2216E584F5FA1EA926041BEDFE98 SWAP1 SWAP3 MUL PUSH1 0x80 SHR SWAP2 PUSH2 0x4250 JUMP JUMPDEST SWAP2 PUSH15 0x5D6AF8DEDB81196699C329225EE604 MUL PUSH1 0x80 SHR SWAP2 PUSH2 0x4245 JUMP JUMPDEST SWAP2 PUSH16 0x9AA508B5B7A84E1C677DE54F3E99BC9 MUL PUSH1 0x80 SHR SWAP2 PUSH2 0x423A JUMP JUMPDEST SWAP2 PUSH16 0x31BE135F97D08FD981231505542FCFA6 MUL PUSH1 0x80 SHR SWAP2 PUSH2 0x422F JUMP JUMPDEST SWAP2 PUSH16 0x70D869A156D2A1B890BB3DF62BAF32F7 MUL PUSH1 0x80 SHR SWAP2 PUSH2 0x4225 JUMP JUMPDEST SWAP2 PUSH16 0xA9F746462D870FDF8A65DC1F90E061E5 MUL PUSH1 0x80 SHR SWAP2 PUSH2 0x421B JUMP JUMPDEST SWAP2 PUSH16 0xD097F3BDFD2022B8845AD8F792AA5825 MUL PUSH1 0x80 SHR SWAP2 PUSH2 0x4211 JUMP JUMPDEST SWAP2 PUSH16 0xE7159475A2C29B7443B29C7FA6E889D9 MUL PUSH1 0x80 SHR SWAP2 PUSH2 0x4207 JUMP JUMPDEST SWAP2 PUSH16 0xF3392B0822B70005940C7A398E4B70F3 MUL PUSH1 0x80 SHR SWAP2 PUSH2 0x41FD JUMP JUMPDEST SWAP2 PUSH16 0xF987A7253AC413176F2B074CF7815E54 MUL PUSH1 0x80 SHR SWAP2 PUSH2 0x41F3 JUMP JUMPDEST SWAP2 PUSH16 0xFCBE86C7900A88AEDCFFC83B479AA3A4 MUL PUSH1 0x80 SHR SWAP2 PUSH2 0x41E9 JUMP JUMPDEST SWAP2 PUSH16 0xFE5DEE046A99A2A811C461F1969C3053 MUL PUSH1 0x80 SHR SWAP2 PUSH2 0x41DF JUMP JUMPDEST SWAP2 PUSH16 0xFF2EA16466C96A3843EC78B326B52861 MUL PUSH1 0x80 SHR SWAP2 PUSH2 0x41D6 JUMP JUMPDEST SWAP2 PUSH16 0xFF973B41FA98C081472E6896DFB254C0 MUL PUSH1 0x80 SHR SWAP2 PUSH2 0x41CD JUMP JUMPDEST SWAP2 PUSH16 0xFFCB9843D60F6159C9DB58835C926644 MUL PUSH1 0x80 SHR SWAP2 PUSH2 0x41C4 JUMP JUMPDEST SWAP2 PUSH16 0xFFE5CACA7E10E4E61C3624EAA0941CD0 MUL PUSH1 0x80 SHR SWAP2 PUSH2 0x41BB JUMP JUMPDEST SWAP2 PUSH16 0xFFF2E50F5F656932EF12357CF3C7FDCC MUL PUSH1 0x80 SHR SWAP2 PUSH2 0x41B2 JUMP JUMPDEST SWAP2 PUSH16 0xFFF97272373D413259A46990580E213A MUL PUSH1 0x80 SHR SWAP2 PUSH2 0x41A9 JUMP JUMPDEST DUP3 PUSH32 0x8B86327A00000000000000000000000000000000000000000000000000000000 PUSH0 MSTORE PUSH1 0x4 MSTORE PUSH1 0x24 PUSH0 REVERT JUMPDEST SWAP1 PUSH0 DUP4 PUSH1 0xF SIGNEXTEND SLT PUSH0 EQ PUSH2 0x44FF JUMPI PUSH2 0x44F5 SWAP3 PUSH0 SUB PUSH16 0xFFFFFFFFFFFFFFFFFFFFFFFFFFFFFFFF AND SWAP2 PUSH2 0x5A3D JUMP JUMPDEST PUSH0 DUP2 SLT PUSH2 0x30C8 JUMPI SWAP1 JUMP JUMPDEST PUSH2 0x451B SWAP3 PUSH16 0xFFFFFFFFFFFFFFFFFFFFFFFFFFFFFFFF AND SWAP2 PUSH2 0x59E2 JUMP JUMPDEST PUSH0 DUP2 SLT PUSH2 0x30C8 JUMPI PUSH0 SUB SWAP1 JUMP JUMPDEST SWAP1 PUSH0 DUP4 PUSH1 0xF SIGNEXTEND SLT PUSH0 EQ PUSH2 0x4552 JUMPI PUSH2 0x44F5 SWAP3 PUSH0 SUB PUSH16 0xFFFFFFFFFFFFFFFFFFFFFFFFFFFFFFFF AND SWAP2 PUSH2 0x5B34 JUMP JUMPDEST PUSH2 0x451B SWAP3 PUSH16 0xFFFFFFFFFFFFFFFFFFFFFFFFFFFFFFFF AND SWAP2 PUSH2 0x5A7D JUMP JUMPDEST SWAP1 PUSH16 0xFFFFFFFFFFFFFFFFFFFFFFFFFFFFFFFF SWAP1 PUSH1 0xF SIGNEXTEND SWAP2 AND ADD SWAP1 DUP2 PUSH1 0x80 SHR PUSH2 0x4592 JUMPI JUMP JUMPDEST PUSH4 0x93DAFDF1 PUSH0 MSTORE PUSH1 0x4 PUSH1 0x1C REVERT JUMPDEST SWAP1 PUSH2 0x45A9 SWAP2 PUSH2 0x3F25 JUMP JUMPDEST SWAP1 ISZERO PUSH2 0x3A8D JUMPI PUSH1 0x40 DUP2 MLOAD SUB PUSH2 0x3D05 JUMPI PUSH1 0x40 ADD MLOAD SWAP1 JUMP JUMPDEST PUSH2 0x45E2 SWAP1 PUSH2 0x45D4 DUP4 PUSH1 0x80 SAR DUP3 PUSH1 0x80 SAR SUB PUSH2 0x3785 JUMP JUMPDEST SWAP3 PUSH1 0xF SIGNEXTEND SWAP1 PUSH1 0xF SIGNEXTEND SUB PUSH2 0x3785 JUMP JUMPDEST PUSH16 0xFFFFFFFFFFFFFFFFFFFFFFFFFFFFFFFF AND SWAP1 PUSH1 0x80 SHL OR SWAP1 JUMP JUMPDEST PUSH20 0xFFFD8963EFD1FC6A506488495D951D5163961682 PUSH20 0xFFFFFFFFFFFFFFFFFFFFFFFFFFFFFFFFFFFFFFFF PUSH32 0xFFFFFFFFFFFFFFFFFFFFFFFFFFFFFFFFFFFFFFFFFFFFFFFFFFFFFFFEFFFD895D DUP4 ADD AND GT PUSH2 0x48E0 JUMPI PUSH24 0xFFFFFFFFFFFFFFFFFFFFFFFFFFFFFFFFFFFFFFFF00000000 DUP2 PUSH1 0x20 SHL AND DUP1 PUSH1 0xFF PUSH2 0x4679 DUP4 PUSH2 0x5BDB JUMP JUMPDEST AND SWAP2 PUSH1 0x80 DUP4 LT PUSH2 0x48D4 JUMPI POP PUSH32 0xFFFFFFFFFFFFFFFFFFFFFFFFFFFFFFFFFFFFFFFFFFFFFFFFFFFFFFFFFFFFFF81 DUP3 ADD SHR JUMPDEST DUP1 MUL DUP1 PUSH1 0x7F SHR DUP2 PUSH1 0xFF SHR SHR DUP1 MUL DUP1 PUSH1 0x7F SHR DUP2 PUSH1 0xFF SHR SHR DUP1 MUL DUP1 PUSH1 0x7F SHR DUP2 PUSH1 0xFF SHR SHR DUP1 MUL DUP1 PUSH1 0x7F SHR DUP2 PUSH1 0xFF SHR SHR DUP1 MUL DUP1 PUSH1 0x7F SHR DUP2 PUSH1 0xFF SHR SHR DUP1 MUL DUP1 PUSH1 0x7F SHR DUP2 PUSH1 0xFF SHR SHR DUP1 MUL SWAP1 DUP2 PUSH1 0x7F SHR DUP3 PUSH1 0xFF SHR SHR DUP1 MUL SWAP3 DUP4 PUSH1 0x7F SHR DUP5 PUSH1 0xFF SHR SHR DUP1 MUL SWAP5 DUP6 PUSH1 0x7F SHR DUP7 PUSH1 0xFF SHR SHR DUP1 MUL SWAP7 DUP8 PUSH1 0x7F SHR DUP9 PUSH1 0xFF SHR SHR DUP1 MUL SWAP9 DUP10 PUSH1 0x7F SHR DUP11 PUSH1 0xFF SHR SHR DUP1 MUL SWAP11 DUP12 PUSH1 0x7F SHR DUP13 PUSH1 0xFF SHR SHR DUP1 MUL SWAP13 DUP14 DUP1 PUSH1 0x7F SHR SWAP1 PUSH1 0xFF SHR SHR DUP1 MUL PUSH1 0xCD SHR PUSH7 0x4000000000000 AND SWAP14 PUSH1 0xCC SHR PUSH7 0x8000000000000 AND SWAP13 PUSH1 0xCB SHR PUSH7 0x10000000000000 AND SWAP12 PUSH1 0xCA SHR PUSH7 0x20000000000000 AND SWAP11 PUSH1 0xC9 SHR PUSH7 0x40000000000000 AND SWAP10 PUSH1 0xC8 SHR PUSH7 0x80000000000000 AND SWAP9 PUSH1 0xC7 SHR PUSH8 0x100000000000000 AND SWAP8 PUSH1 0xC6 SHR PUSH8 0x200000000000000 AND SWAP7 PUSH1 0xC5 SHR PUSH8 0x400000000000000 AND SWAP6 PUSH1 0xC4 SHR PUSH8 0x800000000000000 AND SWAP5 PUSH1 0xC3 SHR PUSH8 0x1000000000000000 AND SWAP4 PUSH1 0xC2 SHR PUSH8 0x2000000000000000 AND SWAP3 PUSH1 0xC1 SHR PUSH8 0x4000000000000000 AND SWAP2 PUSH1 0xC0 SHR PUSH8 0x8000000000000000 AND SWAP1 PUSH32 0xFFFFFFFFFFFFFFFFFFFFFFFFFFFFFFFFFFFFFFFFFFFFFFFFFFFFFFFFFFFFFF80 ADD PUSH1 0x40 SHL OR OR OR OR OR OR OR OR OR OR OR OR OR OR PUSH10 0x3627A301D71055774C85 MUL PUSH32 0xFFFFFFFFFFFFFFFFFFFFFFFFFFFFFFFFFD709B7E5480FBA5A50FED5E62FFC556 DUP2 ADD PUSH1 0x80 SAR PUSH1 0x2 SIGNEXTEND SWAP1 PUSH16 0xDB2DF09E81959A81455E260799A0632F ADD PUSH1 0x80 SAR PUSH1 0x2 SIGNEXTEND SWAP2 DUP3 DUP3 EQ PUSH0 EQ PUSH2 0x4891 JUMPI POP SWAP1 POP SWAP1 JUMP JUMPDEST PUSH20 0xFFFFFFFFFFFFFFFFFFFFFFFFFFFFFFFFFFFFFFFF AND PUSH20 0xFFFFFFFFFFFFFFFFFFFFFFFFFFFFFFFFFFFFFFFF PUSH2 0x48C5 DUP5 PUSH2 0x4158 JUMP JUMPDEST AND GT PUSH2 0x48CF JUMPI POP SWAP1 JUMP JUMPDEST SWAP1 POP SWAP1 JUMP JUMPDEST SWAP1 POP DUP2 PUSH1 0x7F SUB SHL PUSH2 0x46A9 JUMP JUMPDEST PUSH20 0xFFFFFFFFFFFFFFFFFFFFFFFFFFFFFFFFFFFFFFFF SWAP1 PUSH32 0x6148752400000000000000000000000000000000000000000000000000000000 PUSH0 MSTORE AND PUSH1 0x4 MSTORE PUSH1 0x24 PUSH0 REVERT JUMPDEST DUP2 ISZERO PUSH2 0x492C JUMPI DIV SWAP1 JUMP JUMPDEST PUSH32 0x4E487B7100000000000000000000000000000000000000000000000000000000 PUSH0 MSTORE PUSH1 0x12 PUSH1 0x4 MSTORE PUSH1 0x24 PUSH0 REVERT JUMPDEST PUSH1 0x40 MLOAD SWAP3 SWAP1 SWAP2 PUSH0 PUSH2 0x4969 DUP6 PUSH2 0x2DF6 JUMP JUMPDEST PUSH0 DUP6 MSTORE PUSH1 0x20 DUP6 ADD SWAP3 PUSH0 DUP5 MSTORE PUSH1 0x40 DUP7 ADD SWAP6 PUSH0 DUP8 MSTORE DUP1 SWAP7 DUP7 SLOAD SWAP6 PUSH1 0x40 DUP7 ADD MLOAD ISZERO SWAP6 DUP7 ISZERO PUSH0 EQ PUSH2 0x56F5 JUMPI PUSH2 0xFFF DUP9 PUSH1 0xB8 SHR AND SWAP5 JUMPDEST DUP2 MLOAD SWAP3 PUSH0 SWAP5 DUP11 PUSH20 0xFFFFFFFFFFFFFFFFFFFFFFFFFFFFFFFFFFFFFFFF AND SWAP2 DUP3 DUP9 MSTORE DUP12 PUSH1 0xA0 SHR PUSH1 0x2 SIGNEXTEND SWAP1 MSTORE PUSH16 0xFFFFFFFFFFFFFFFFFFFFFFFFFFFFFFFF PUSH1 0x3 DUP14 ADD SLOAD AND SWAP1 MSTORE PUSH1 0x80 DUP4 ADD MLOAD PUSH3 0x400000 DUP2 AND ISZERO ISZERO PUSH0 EQ PUSH2 0x56E6 JUMPI PUSH3 0xBFFFFF AND PUSH2 0x49FD DUP2 PUSH2 0x368E JUMP JUMPDEST PUSH2 0xFFFF DUP9 AND PUSH2 0x56CB JUMPI JUMPDEST DUP1 SWAP7 PUSH3 0xF4240 PUSH3 0xFFFFFF DUP4 AND LT ISZERO PUSH2 0x569A JUMPI JUMPDEST DUP5 MLOAD ISZERO PUSH2 0x5684 JUMPI POP POP DUP9 PUSH2 0x5624 JUMPI PUSH1 0x60 DUP4 ADD SWAP1 PUSH20 0xFFFFFFFFFFFFFFFFFFFFFFFFFFFFFFFFFFFFFFFF DUP3 MLOAD AND DUP2 DUP2 LT ISZERO PUSH2 0x55ED JUMPI POP POP MLOAD PUSH20 0xFFFFFFFFFFFFFFFFFFFFFFFFFFFFFFFFFFFFFFFF AND PUSH5 0x1000276A3 DUP2 GT ISZERO PUSH2 0x55C2 JUMPI POP JUMPDEST PUSH1 0x40 MLOAD SWAP9 PUSH2 0x100 DUP11 ADD DUP11 DUP2 LT PUSH8 0xFFFFFFFFFFFFFFFF DUP3 GT OR PUSH2 0x1EB1 JUMPI PUSH1 0x40 MSTORE PUSH0 DUP11 MSTORE PUSH0 PUSH1 0x20 DUP12 ADD MSTORE PUSH0 PUSH1 0x40 DUP12 ADD MSTORE PUSH0 PUSH1 0x60 DUP12 ADD MSTORE PUSH0 PUSH1 0x80 DUP12 ADD MSTORE PUSH0 PUSH1 0xA0 DUP12 ADD MSTORE PUSH0 PUSH1 0xC0 DUP12 ADD MSTORE DUP9 ISZERO PUSH0 EQ PUSH2 0x55B4 JUMPI PUSH1 0x1 DUP12 ADD SLOAD SWAP5 SWAP4 SWAP1 SWAP5 JUMPDEST PUSH1 0xE0 DUP12 ADD MSTORE JUMPDEST DUP1 ISZERO DUP1 ISZERO PUSH2 0x557A JUMPI JUMPDEST PUSH2 0x5420 JUMPI DUP9 DUP7 DUP14 DUP13 DUP15 PUSH20 0xFFFFFFFFFFFFFFFFFFFFFFFFFFFFFFFFFFFFFFFF DUP4 MLOAD AND DUP3 MSTORE PUSH1 0x20 DUP4 ADD MLOAD PUSH1 0x2 SIGNEXTEND PUSH1 0x20 DUP10 ADD MLOAD PUSH1 0x2 SIGNEXTEND SWAP1 DUP2 PUSH0 DUP2 DUP4 SMOD SLT SWAP2 SDIV SUB DUP7 ISZERO PUSH0 EQ PUSH2 0x5275 JUMPI PUSH16 0xFFFFFFFFFFFFFFFFFFFFFFFFFFFFFFFF SWAP4 PUSH32 0xFFFFFFFFFFFFFFFFFFFFFFFFFFFFFFFFFFFFFFFFFFFFFFFFFFFFFFFFFFF27618 PUSH1 0x40 SWAP5 PUSH1 0x1 SWAP5 DUP5 PUSH1 0x5 PUSH1 0xFF PUSH1 0x60 SWAP8 AND SWAP4 DUP3 PUSH1 0x2 SIGNEXTEND PUSH1 0x8 SAR DUP10 SIGNEXTEND PUSH0 MSTORE ADD PUSH1 0x20 MSTORE DUP8 PUSH0 KECCAK256 PUSH32 0xFFFFFFFFFFFFFFFFFFFFFFFFFFFFFFFFFFFFFFFFFFFFFFFFFFFFFFFFFFFFFFFF DUP5 PUSH1 0xFF SUB SHR SWAP1 SLOAD AND SWAP3 DUP4 ISZERO ISZERO SWAP4 DUP5 PUSH0 EQ PUSH2 0x5263 JUMPI SWAP1 PUSH2 0x4BB7 PUSH1 0xFF SWAP3 PUSH2 0x5BDB JUMP JUMPDEST SWAP1 SUB AND PUSH1 0x2 SIGNEXTEND SWAP1 SUB PUSH1 0x2 SIGNEXTEND MUL PUSH1 0x2 SIGNEXTEND JUMPDEST SWAP1 JUMPDEST ISZERO ISZERO DUP7 DUP5 ADD MSTORE PUSH1 0x2 SIGNEXTEND DUP1 PUSH1 0x20 DUP5 ADD MSTORE SGT ISZERO PUSH2 0x5238 JUMPI JUMPDEST PUSH3 0xD89E8 PUSH1 0x20 DUP3 ADD MLOAD PUSH1 0x2 SIGNEXTEND SLT ISZERO PUSH2 0x522A JUMPI JUMPDEST PUSH20 0xFFFFFFFFFFFFFFFFFFFFFFFFFFFFFFFFFFFFFFFF PUSH2 0x4C17 PUSH1 0x20 DUP4 ADD MLOAD PUSH1 0x2 SIGNEXTEND PUSH2 0x4158 JUMP JUMPDEST AND SWAP2 DUP3 SWAP2 ADD MSTORE PUSH20 0xFFFFFFFFFFFFFFFFFFFFFFFFFFFFFFFFFFFFFFFF DUP6 MLOAD AND SWAP7 PUSH20 0xFFFFFFFFFFFFFFFFFFFFFFFFFFFFFFFFFFFFFFFF PUSH1 0x60 DUP13 ADD MLOAD AND SWAP3 DUP4 SWAP2 ISZERO AND DUP2 DUP4 LT XOR SWAP2 XOR MUL XOR SWAP3 ADD MLOAD AND SWAP3 DUP14 PUSH20 0xFFFFFFFFFFFFFFFFFFFFFFFFFFFFFFFFFFFFFFFF DUP4 AND DUP3 LT ISZERO SWAP2 PUSH0 DUP8 SLT PUSH0 EQ PUSH2 0x507F JUMPI PUSH3 0xFFFFFF DUP6 AND PUSH3 0xF4240 SUB PUSH2 0x4C9F DUP2 DUP10 PUSH0 SUB PUSH2 0x5785 JUMP JUMPDEST SWAP5 DUP5 ISZERO PUSH2 0x506E JUMPI PUSH2 0x4CB1 DUP9 DUP5 DUP4 PUSH2 0x5A7D JUMP JUMPDEST SWAP6 JUMPDEST DUP7 DUP2 LT PUSH2 0x4FB2 JUMPI POP SWAP7 PUSH1 0xA0 SWAP4 SWAP3 SWAP2 PUSH20 0xFFFFFFFFFFFFFFFFFFFFFFFFFFFFFFFFFFFFFFFF SWAP9 SWAP8 DUP9 SWAP2 PUSH3 0xF4240 PUSH3 0xFFFFFF DUP4 AND EQ PUSH0 EQ PUSH2 0x4F9E JUMPI POP POP DUP7 JUMPDEST SWAP6 JUMPDEST ISZERO PUSH2 0x4F90 JUMPI SWAP2 PUSH2 0x4D00 SWAP3 PUSH2 0x5A3D JUMP JUMPDEST SWAP3 JUMPDEST PUSH1 0xC0 DUP3 ADD MSTORE ADD MSTORE PUSH1 0x80 DUP14 ADD MSTORE AND DUP13 MSTORE PUSH0 DUP4 MLOAD SGT PUSH0 EQ PUSH2 0x4F60 JUMPI PUSH1 0xA0 DUP11 ADD MLOAD SWAP1 PUSH0 DUP3 SLT PUSH2 0x30C8 JUMPI SUB SWAP3 PUSH2 0x4D3D PUSH1 0x80 DUP12 ADD MLOAD PUSH1 0xC0 DUP13 ADD MLOAD SWAP1 PUSH2 0x2FFA JUMP JUMPDEST PUSH0 DUP2 SLT PUSH2 0x30C8 JUMPI DUP2 SUB SWAP1 DUP2 SGT PUSH1 0x1 AND PUSH2 0x1D94 JUMPI SWAP4 JUMPDEST PUSH2 0xFFFF DUP8 AND PUSH2 0x4F18 JUMPI JUMPDEST PUSH16 0xFFFFFFFFFFFFFFFFFFFFFFFFFFFFFFFF PUSH1 0x40 DUP14 ADD MLOAD AND DUP1 PUSH2 0x4EFE JUMPI JUMPDEST POP PUSH20 0xFFFFFFFFFFFFFFFFFFFFFFFFFFFFFFFFFFFFFFFF DUP13 MLOAD AND PUSH20 0xFFFFFFFFFFFFFFFFFFFFFFFFFFFFFFFFFFFFFFFF PUSH1 0x60 DUP13 ADD MLOAD AND DUP2 EQ PUSH0 EQ PUSH2 0x4EC2 JUMPI POP PUSH1 0x40 DUP11 ADD MLOAD PUSH2 0x4E10 JUMPI JUMPDEST DUP9 PUSH2 0x4E03 JUMPI PUSH32 0xFFFFFFFFFFFFFFFFFFFFFFFFFFFFFFFFFFFFFFFFFFFFFFFFFFFFFFFFFFFFFFFF PUSH1 0x20 DUP12 ADD MLOAD PUSH1 0x2 SIGNEXTEND ADD PUSH1 0x2 SIGNEXTEND JUMPDEST PUSH1 0x2 SIGNEXTEND PUSH1 0x20 DUP14 ADD MSTORE JUMPDEST SWAP4 SWAP3 PUSH2 0x4AD3 JUMP JUMPDEST PUSH1 0x20 DUP11 ADD MLOAD PUSH1 0x2 SIGNEXTEND PUSH2 0x4DF3 JUMP JUMPDEST DUP9 PUSH2 0x4E96 JUMPI PUSH16 0xFFFFFFFFFFFFFFFFFFFFFFFFFFFFFFFF PUSH2 0x4E7D DUP14 DUP14 DUP14 PUSH1 0x4 PUSH1 0xE0 DUP3 ADD MLOAD SWAP3 PUSH1 0x20 PUSH1 0x2 DUP3 ADD SLOAD SWAP4 JUMPDEST ADD MLOAD PUSH1 0x2 SIGNEXTEND PUSH1 0x2 SIGNEXTEND PUSH0 MSTORE ADD PUSH1 0x20 MSTORE PUSH1 0x40 PUSH0 KECCAK256 SWAP2 PUSH1 0x1 DUP4 ADD SWAP1 DUP2 SLOAD SWAP1 SUB SWAP1 SSTORE PUSH1 0x2 DUP3 ADD SWAP1 DUP2 SLOAD SWAP1 SUB SWAP1 SSTORE SLOAD PUSH1 0x80 SAR SWAP1 DUP13 ISZERO PUSH2 0x4E88 JUMPI JUMPDEST PUSH1 0x40 ADD MLOAD DUP4 AND PUSH2 0x456E JUMP JUMPDEST AND PUSH1 0x40 DUP14 ADD MSTORE PUSH2 0x4DC0 JUMP JUMPDEST PUSH0 SWAP2 SWAP1 SWAP2 SUB PUSH1 0xF SIGNEXTEND SWAP1 PUSH2 0x4E72 JUMP JUMPDEST PUSH16 0xFFFFFFFFFFFFFFFFFFFFFFFFFFFFFFFF PUSH2 0x4E7D DUP14 DUP14 DUP14 PUSH1 0x4 PUSH1 0x1 DUP4 ADD SLOAD SWAP3 PUSH1 0x20 PUSH1 0xE0 DUP5 ADD MLOAD SWAP4 PUSH2 0x4E3D JUMP JUMPDEST PUSH20 0xFFFFFFFFFFFFFFFFFFFFFFFFFFFFFFFFFFFFFFFF DUP12 MLOAD AND DUP2 SUB PUSH2 0x4EE7 JUMPI JUMPDEST POP PUSH2 0x4DFC JUMP JUMPDEST PUSH2 0x4EF0 SWAP1 PUSH2 0x45FC JUMP JUMPDEST PUSH1 0x2 SIGNEXTEND PUSH1 0x20 DUP14 ADD MSTORE PUSH0 PUSH2 0x4EE1 JUMP JUMPDEST PUSH1 0xC0 DUP12 ADD MLOAD PUSH1 0x80 SHL DIV PUSH1 0xE0 DUP12 ADD MLOAD ADD PUSH1 0xE0 DUP12 ADD MSTORE PUSH0 PUSH2 0x4D79 JUMP JUMPDEST SWAP7 PUSH3 0xFFFFFF DUP7 AND PUSH2 0xFFFF DUP9 AND SUB PUSH2 0x4F43 JUMPI PUSH1 0xC0 DUP11 ADD MLOAD SWAP1 JUMPDEST DUP2 PUSH1 0xC0 DUP13 ADD MLOAD SUB PUSH1 0xC0 DUP13 ADD MSTORE ADD SWAP7 PUSH2 0x4D5C JUMP JUMPDEST PUSH3 0xF4240 PUSH1 0x80 DUP12 ADD MLOAD PUSH2 0xFFFF DUP10 AND SWAP1 PUSH1 0xC0 DUP14 ADD MLOAD ADD MUL DIV SWAP1 PUSH2 0x4F30 JUMP JUMPDEST PUSH1 0x80 DUP11 ADD MLOAD PUSH1 0xC0 DUP12 ADD MLOAD ADD SWAP1 PUSH0 DUP3 SLT PUSH2 0x30C8 JUMPI ADD SWAP3 PUSH1 0xA0 DUP11 ADD MLOAD PUSH0 DUP2 SLT PUSH2 0x30C8 JUMPI PUSH2 0x4F8A SWAP2 PUSH2 0x3B29 JUMP JUMPDEST SWAP4 PUSH2 0x4D52 JUMP JUMPDEST PUSH2 0x4F99 SWAP3 PUSH2 0x5B34 JUMP JUMPDEST PUSH2 0x4D00 JUMP JUMPDEST PUSH3 0xFFFFFF PUSH2 0x4FAD SWAP3 AND DUP10 PUSH2 0x5C68 JUMP JUMPDEST PUSH2 0x4CEF JUMP JUMPDEST SWAP7 POP POP POP SWAP3 POP POP DUP3 SWAP2 DUP5 ISZERO DUP2 ISZERO OR PUSH2 0x5061 JUMPI DUP15 PUSH1 0xA0 SWAP2 PUSH20 0xFFFFFFFFFFFFFFFFFFFFFFFFFFFFFFFFFFFFFFFF SWAP7 DUP5 PUSH0 EQ PUSH2 0x4FFC JUMPI PUSH2 0x4FF0 DUP8 DUP3 DUP5 PUSH2 0x5D07 JUMP JUMPDEST DUP1 SWAP8 DUP11 ADD PUSH0 SUB SWAP6 PUSH2 0x4CF1 JUMP JUMPDEST DUP8 DUP8 GT PUSH2 0x503A JUMPI PUSH2 0x5035 PUSH2 0x5030 PUSH2 0x5028 PUSH16 0xFFFFFFFFFFFFFFFFFFFFFFFFFFFFFFFF DUP5 AND DUP11 PUSH1 0x60 SHL PUSH2 0x4922 JUMP JUMPDEST DUP11 DUP6 AND PUSH2 0x2FFA JUMP JUMPDEST PUSH2 0x5D9B JUMP JUMPDEST PUSH2 0x4FF0 JUMP JUMPDEST PUSH2 0x5035 PUSH2 0x5030 PUSH2 0x505C PUSH16 0xFFFFFFFFFFFFFFFFFFFFFFFFFFFFFFFF DUP5 AND DUP11 PUSH2 0x588A JUMP JUMPDEST PUSH2 0x5028 JUMP JUMPDEST PUSH4 0x4F2461B8 PUSH0 MSTORE PUSH1 0x4 PUSH1 0x1C REVERT JUMPDEST PUSH2 0x5079 DUP9 DUP3 DUP6 PUSH2 0x59E2 JUMP JUMPDEST SWAP6 PUSH2 0x4CB3 JUMP JUMPDEST SWAP2 SWAP4 POP SWAP2 SWAP1 DUP4 ISZERO PUSH2 0x5219 JUMPI PUSH2 0x5095 DUP6 DUP3 DUP5 PUSH2 0x5A3D JUMP JUMPDEST SWAP2 JUMPDEST DUP3 DUP8 LT PUSH2 0x50F7 JUMPI SWAP1 PUSH20 0xFFFFFFFFFFFFFFFFFFFFFFFFFFFFFFFFFFFFFFFF SWAP6 PUSH1 0xA0 SWAP3 DUP1 SWAP7 JUMPDEST ISZERO PUSH2 0x50E8 JUMPI SWAP2 PUSH2 0x50CA SWAP3 PUSH2 0x5A7D JUMP JUMPDEST SWAP3 JUMPDEST PUSH2 0x50E3 PUSH3 0xFFFFFF DUP14 AND PUSH3 0xF4240 DUP2 SWAP1 SUB SWAP1 DUP7 PUSH2 0x5C68 JUMP JUMPDEST PUSH2 0x4D02 JUMP JUMPDEST PUSH2 0x50F1 SWAP3 PUSH2 0x59E2 JUMP JUMPDEST SWAP3 PUSH2 0x50CC JUMP JUMPDEST POP SWAP2 POP POP DUP4 DUP4 ISZERO DUP3 ISZERO OR PUSH2 0x5061 JUMPI DUP14 DUP4 ISZERO PUSH2 0x51EF JUMPI POP PUSH20 0xFFFFFFFFFFFFFFFFFFFFFFFFFFFFFFFFFFFFFFFF DUP6 GT PUSH2 0x519C JUMPI DUP5 PUSH1 0x60 SHL PUSH16 0xFFFFFFFFFFFFFFFFFFFFFFFFFFFFFFFF DUP6 AND DUP1 DUP3 MOD ISZERO ISZERO SWAP2 DIV ADD JUMPDEST PUSH20 0xFFFFFFFFFFFFFFFFFFFFFFFFFFFFFFFFFFFFFFFF DUP4 AND SWAP3 DUP2 DUP5 GT ISZERO PUSH2 0x518F JUMPI DUP16 SWAP4 SWAP6 PUSH20 0xFFFFFFFFFFFFFFFFFFFFFFFFFFFFFFFFFFFFFFFF PUSH1 0xA0 SWAP4 DUP2 SWAP9 SUB AND JUMPDEST DUP1 SWAP7 PUSH2 0x50BB JUMP JUMPDEST PUSH4 0x4323A555 PUSH0 MSTORE PUSH1 0x4 PUSH1 0x1C REVERT JUMPDEST PUSH16 0xFFFFFFFFFFFFFFFFFFFFFFFFFFFFFFFF DUP5 AND PUSH2 0x51C7 DUP2 PUSH13 0x1000000000000000000000000 DUP9 PUSH2 0x5943 JUMP JUMPDEST SWAP1 DUP1 ISZERO PUSH2 0x492C JUMPI PUSH13 0x1000000000000000000000000 DUP8 MULMOD ISZERO PUSH2 0x5148 JUMPI PUSH1 0x1 ADD DUP1 PUSH2 0x5148 JUMPI PUSH0 DUP1 REVERT JUMPDEST SWAP2 DUP1 DUP6 PUSH2 0x5214 DUP9 PUSH20 0xFFFFFFFFFFFFFFFFFFFFFFFFFFFFFFFFFFFFFFFF SWAP9 PUSH1 0xA0 SWAP6 PUSH2 0x5C91 JUMP JUMPDEST PUSH2 0x5188 JUMP JUMPDEST PUSH2 0x5224 DUP6 DUP4 DUP4 PUSH2 0x5B34 JUMP JUMPDEST SWAP2 PUSH2 0x5097 JUMP JUMPDEST PUSH3 0xD89E8 PUSH1 0x20 DUP3 ADD MSTORE PUSH2 0x4BF2 JUMP JUMPDEST PUSH32 0xFFFFFFFFFFFFFFFFFFFFFFFFFFFFFFFFFFFFFFFFFFFFFFFFFFFFFFFFFFF27618 PUSH1 0x20 DUP3 ADD MSTORE PUSH2 0x4BDF JUMP JUMPDEST POP PUSH1 0x2 SIGNEXTEND SWAP1 SUB PUSH1 0x2 SIGNEXTEND MUL PUSH1 0x2 SIGNEXTEND PUSH2 0x4BC7 JUMP JUMPDEST PUSH1 0x1 SWAP2 SWAP5 SWAP4 SWAP7 POP PUSH1 0x5 SWAP3 SWAP6 POP ADD SWAP4 DUP5 PUSH1 0x2 SIGNEXTEND PUSH1 0x8 SAR PUSH1 0x1 SIGNEXTEND PUSH0 MSTORE ADD PUSH1 0x20 MSTORE PUSH1 0x40 PUSH0 KECCAK256 PUSH32 0xFFFFFFFFFFFFFFFFFFFFFFFFFFFFFFFFFFFFFFFFFFFFFFFFFFFFFFFFFFFFFFFF PUSH1 0x1 PUSH1 0xFF DUP7 AND SHL ADD NOT SWAP1 SLOAD AND SWAP1 DUP14 DUP12 DUP4 ISZERO SWAP3 DUP4 ISZERO SWAP8 DUP9 PUSH0 EQ PUSH2 0x53C1 JUMPI POP POP POP POP PUSH2 0x330 JUMPI DUP16 SWAP2 PUSH1 0x1 DUP16 DUP16 SWAP7 SWAP1 PUSH32 0xFFFFFFFFFFFFFFFFFFFFFFFFFFFFFFFFFFFFFFFFFFFFFFFFFFFFFFFFFFF27618 PUSH1 0x60 SWAP3 DUP16 SWAP9 SWAP6 PUSH1 0x40 SWAP7 PUSH1 0xFF DUP10 PUSH16 0xFFFFFFFFFFFFFFFFFFFFFFFFFFFFFFFF SWAP11 PUSH0 SUB AND PUSH2 0x1E0 PUSH32 0x8040405543005266443200005020610674053026020000107506200176117077 PUSH1 0xFC PUSH32 0xB6DB6DB6DDDDDDDDD34D34D349249249210842108C6318C639CE739CFFFFFFFF DUP5 MUL PUSH1 0xF8 SHR AND SHL PUSH1 0xF7 SHR AND PUSH31 0x1F0D1E100C1D070F090B19131C1706010E11080A1A141802121B1503160405 PUSH1 0x1F DUP6 DUP6 AND SWAP4 DUP4 SHR PUSH4 0xD76453E0 DIV AND BYTE OR SUB AND PUSH1 0x2 SIGNEXTEND SWAP1 PUSH1 0x2 SIGNEXTEND ADD PUSH1 0x2 SIGNEXTEND MUL PUSH1 0x2 SIGNEXTEND JUMPDEST SWAP1 PUSH2 0x4BC9 JUMP JUMPDEST SWAP1 SWAP6 PUSH16 0xFFFFFFFFFFFFFFFFFFFFFFFFFFFFFFFF SWAP6 POP PUSH1 0x40 SWAP5 POP PUSH1 0x1 SWAP4 SWAP9 PUSH32 0xFFFFFFFFFFFFFFFFFFFFFFFFFFFFFFFFFFFFFFFFFFFFFFFFFFFFFFFFFFF27618 SWAP2 DUP10 PUSH1 0xFF PUSH1 0x60 SWAP7 SWAP12 DUP2 AND DUP2 SUB AND PUSH1 0x2 SIGNEXTEND SWAP1 PUSH1 0x2 SIGNEXTEND ADD PUSH1 0x2 SIGNEXTEND MUL PUSH1 0x2 SIGNEXTEND PUSH2 0x53BB JUMP JUMPDEST SWAP5 SWAP9 SWAP2 SWAP6 POP SWAP10 SWAP7 SWAP3 SWAP9 SWAP2 SWAP6 SWAP9 PUSH1 0x20 DUP9 ADD MLOAD PUSH1 0xA0 SHL PUSH23 0xFFFFFF0000000000000000000000000000000000000000 AND PUSH32 0xFFFFFFFFFFFFFFFFFF0000000000000000000000000000000000000000000000 PUSH20 0xFFFFFFFFFFFFFFFFFFFFFFFFFFFFFFFFFFFFFFFF DUP11 MLOAD AND SWAP3 AND OR OR DUP3 SSTORE PUSH16 0xFFFFFFFFFFFFFFFFFFFFFFFFFFFFFFFF PUSH1 0x3 DUP4 ADD SLOAD AND PUSH16 0xFFFFFFFFFFFFFFFFFFFFFFFFFFFFFFFF PUSH1 0x40 DUP10 ADD MLOAD AND DUP1 SWAP2 SUB PUSH2 0x5535 JUMPI JUMPDEST POP DUP3 ISZERO PUSH2 0x5526 JUMPI PUSH1 0xE0 PUSH1 0x2 SWAP2 ADD MLOAD SWAP2 ADD SSTORE JUMPDEST DUP3 MLOAD SWAP1 ISZERO PUSH0 DUP3 SLT EQ PUSH2 0x5510 JUMPI POP PUSH2 0x54EE PUSH2 0x54F6 SWAP3 SWAP4 PUSH2 0x3785 JUMP JUMPDEST SWAP3 MLOAD SUB PUSH2 0x3785 JUMP JUMPDEST PUSH16 0xFFFFFFFFFFFFFFFFFFFFFFFFFFFFFFFF AND SWAP1 PUSH1 0x80 SHL OR SWAP4 JUMP JUMPDEST PUSH2 0x54F6 SWAP3 POP SWAP1 PUSH2 0x5520 SWAP2 SUB PUSH2 0x3785 JUMP JUMPDEST SWAP2 PUSH2 0x3785 JUMP JUMPDEST PUSH1 0xE0 PUSH1 0x1 SWAP2 ADD MLOAD SWAP2 ADD SSTORE PUSH2 0x54D4 JUMP JUMPDEST PUSH16 0xFFFFFFFFFFFFFFFFFFFFFFFFFFFFFFFF AND PUSH32 0xFFFFFFFFFFFFFFFFFFFFFFFFFFFFFFFF00000000000000000000000000000000 PUSH1 0x3 DUP5 ADD SLOAD AND OR PUSH1 0x3 DUP4 ADD SSTORE PUSH0 PUSH2 0x54C2 JUMP JUMPDEST POP PUSH20 0xFFFFFFFFFFFFFFFFFFFFFFFFFFFFFFFFFFFFFFFF DUP13 MLOAD AND PUSH20 0xFFFFFFFFFFFFFFFFFFFFFFFFFFFFFFFFFFFFFFFF PUSH1 0x60 DUP6 ADD MLOAD AND EQ PUSH2 0x4ADC JUMP JUMPDEST PUSH1 0x2 DUP12 ADD SLOAD SWAP5 SWAP4 SWAP1 SWAP5 PUSH2 0x4ACD JUMP JUMPDEST PUSH32 0x9E4D7CC700000000000000000000000000000000000000000000000000000000 PUSH0 MSTORE PUSH1 0x4 MSTORE PUSH1 0x24 PUSH0 REVERT JUMPDEST PUSH1 0x44 SWAP3 POP PUSH1 0x40 MLOAD SWAP2 PUSH32 0x7C9C6E8F00000000000000000000000000000000000000000000000000000000 DUP4 MSTORE PUSH1 0x4 DUP4 ADD MSTORE PUSH1 0x24 DUP3 ADD MSTORE REVERT JUMPDEST PUSH1 0x60 DUP4 ADD SWAP1 PUSH20 0xFFFFFFFFFFFFFFFFFFFFFFFFFFFFFFFFFFFFFFFF DUP3 MLOAD AND DUP2 DUP2 GT ISZERO PUSH2 0x55ED JUMPI POP POP MLOAD PUSH20 0xFFFFFFFFFFFFFFFFFFFFFFFFFFFFFFFFFFFFFFFF AND PUSH20 0xFFFD8963EFD1FC6A506488495D951D5263988D26 DUP2 LT ISZERO PUSH2 0x55C2 JUMPI POP PUSH2 0x4A75 JUMP JUMPDEST SWAP11 POP SWAP11 POP POP SWAP10 POP POP POP POP POP POP POP POP PUSH0 SWAP3 PUSH0 SWAP3 SWAP2 SWAP1 JUMP JUMPDEST PUSH0 DUP6 MLOAD SGT ISZERO PUSH2 0x4A1A JUMPI PUSH32 0x9620624600000000000000000000000000000000000000000000000000000000 PUSH0 MSTORE PUSH1 0x4 PUSH0 REVERT JUMPDEST PUSH3 0xFFFFFF PUSH2 0xFFF DUP10 AND SWAP2 AND PUSH3 0xF4240 DUP2 DUP4 MUL DIV SWAP2 ADD SUB PUSH2 0x4A07 JUMP JUMPDEST POP DUP10 PUSH1 0xD0 SHR PUSH3 0xFFFFFF AND PUSH2 0x49FD JUMP JUMPDEST PUSH2 0xFFF DUP9 PUSH1 0xC4 SHR AND SWAP5 PUSH2 0x499A JUMP JUMPDEST SWAP1 DUP1 DUP3 MUL SWAP2 PUSH32 0xFFFFFFFFFFFFFFFFFFFFFFFFFFFFFFFFFFFFFFFFFFFFFFFFFFFFFFFFFFFFFFFF DUP3 DUP3 MULMOD SWAP2 DUP4 DUP1 DUP5 LT SWAP4 SUB SWAP3 DUP1 DUP5 SUB SWAP4 DUP5 PUSH17 0x100000000000000000000000000000000 GT ISZERO PUSH2 0x330 JUMPI EQ PUSH2 0x577C JUMPI PUSH17 0x100000000000000000000000000000000 SWAP2 MULMOD SWAP1 DUP3 DUP3 GT SWAP1 SUB PUSH1 0x80 SHL SWAP2 SUB PUSH1 0x80 SHR OR SWAP1 JUMP JUMPDEST POP POP POP PUSH1 0x80 SHR SWAP1 JUMP JUMPDEST DUP2 DUP2 MUL SWAP1 PUSH32 0xFFFFFFFFFFFFFFFFFFFFFFFFFFFFFFFFFFFFFFFFFFFFFFFFFFFFFFFFFFFFFFFF DUP4 DUP3 MULMOD SWAP1 DUP3 DUP1 DUP4 LT SWAP3 SUB SWAP2 DUP1 DUP4 SUB SWAP3 DUP4 PUSH3 0xF4240 GT ISZERO PUSH2 0x330 JUMPI EQ PUSH2 0x5804 JUMPI PUSH32 0xDE8F6CEFED634549B62C77574F722E1AC57E23F24D8FD5CB790FB65668C26139 SWAP4 PUSH3 0xF4240 SWAP2 MULMOD SWAP1 DUP3 DUP3 GT SWAP1 SUB PUSH1 0xFA SHL SWAP2 SUB PUSH1 0x6 SHR OR MUL SWAP1 JUMP JUMPDEST POP POP PUSH3 0xF4240 SWAP2 POP DIV SWAP1 JUMP JUMPDEST SWAP1 DUP1 DUP3 MUL SWAP2 PUSH32 0xFFFFFFFFFFFFFFFFFFFFFFFFFFFFFFFFFFFFFFFFFFFFFFFFFFFFFFFFFFFFFFFF DUP3 DUP3 MULMOD SWAP2 DUP4 DUP1 DUP5 LT SWAP4 SUB SWAP3 DUP1 DUP5 SUB SWAP4 DUP5 PUSH13 0x1000000000000000000000000 GT ISZERO PUSH2 0x330 JUMPI EQ PUSH2 0x5881 JUMPI PUSH13 0x1000000000000000000000000 SWAP2 MULMOD SWAP1 DUP3 DUP3 GT SWAP1 SUB PUSH1 0xA0 SHL SWAP2 SUB PUSH1 0x60 SHR OR SWAP1 JUMP JUMPDEST POP POP POP PUSH1 0x60 SHR SWAP1 JUMP JUMPDEST SWAP1 DUP2 PUSH1 0x60 SHL SWAP1 PUSH32 0xFFFFFFFFFFFFFFFFFFFFFFFFFFFFFFFFFFFFFFFFFFFFFFFFFFFFFFFFFFFFFFFF PUSH13 0x1000000000000000000000000 DUP5 MULMOD SWAP3 DUP3 DUP1 DUP6 LT SWAP5 SUB SWAP4 DUP1 DUP6 SUB SWAP5 DUP6 DUP5 GT ISZERO PUSH2 0x330 JUMPI EQ PUSH2 0x593C JUMPI PUSH13 0x1000000000000000000000000 DUP3 SWAP2 MULMOD DUP2 DUP1 PUSH0 SUB AND DUP1 SWAP3 DIV PUSH1 0x2 DUP2 PUSH1 0x3 MUL XOR DUP1 DUP3 MUL PUSH1 0x2 SUB MUL DUP1 DUP3 MUL PUSH1 0x2 SUB MUL DUP1 DUP3 MUL PUSH1 0x2 SUB MUL DUP1 DUP3 MUL PUSH1 0x2 SUB MUL DUP1 DUP3 MUL PUSH1 0x2 SUB MUL DUP1 SWAP2 MUL PUSH1 0x2 SUB MUL SWAP4 PUSH1 0x1 DUP4 DUP1 PUSH0 SUB DIV ADD SWAP1 DUP5 DUP4 GT SWAP1 SUB MUL SWAP3 SUB DIV OR MUL SWAP1 JUMP JUMPDEST POP SWAP2 POP DIV SWAP1 JUMP JUMPDEST SWAP2 DUP2 DUP4 MUL SWAP2 PUSH32 0xFFFFFFFFFFFFFFFFFFFFFFFFFFFFFFFFFFFFFFFFFFFFFFFFFFFFFFFFFFFFFFFF DUP2 DUP6 MULMOD SWAP4 DUP4 DUP1 DUP7 LT SWAP6 SUB SWAP5 DUP1 DUP7 SUB SWAP6 DUP7 DUP6 GT ISZERO PUSH2 0x330 JUMPI EQ PUSH2 0x59DA JUMPI SWAP1 DUP3 SWAP2 MULMOD DUP2 DUP1 PUSH0 SUB AND DUP1 SWAP3 DIV PUSH1 0x2 DUP2 PUSH1 0x3 MUL XOR DUP1 DUP3 MUL PUSH1 0x2 SUB MUL DUP1 DUP3 MUL PUSH1 0x2 SUB MUL DUP1 DUP3 MUL PUSH1 0x2 SUB MUL DUP1 DUP3 MUL PUSH1 0x2 SUB MUL DUP1 DUP3 MUL PUSH1 0x2 SUB MUL DUP1 SWAP2 MUL PUSH1 0x2 SUB MUL SWAP4 PUSH1 0x1 DUP4 DUP1 PUSH0 SUB DIV ADD SWAP1 DUP5 DUP4 GT SWAP1 SUB MUL SWAP3 SUB DIV OR MUL SWAP1 JUMP JUMPDEST POP POP SWAP2 POP DIV SWAP1 JUMP JUMPDEST PUSH16 0xFFFFFFFFFFFFFFFFFFFFFFFFFFFFFFFF PUSH13 0x1000000000000000000000000 SWAP2 PUSH20 0xFFFFFFFFFFFFFFFFFFFFFFFFFFFFFFFFFFFFFFFF DUP1 PUSH1 0x1 SWAP6 AND SWAP2 AND SUB DUP1 PUSH1 0xFF SAR SWAP1 DUP2 ADD XOR SWAP4 AND SWAP3 PUSH2 0x5A34 DUP2 DUP6 PUSH2 0x5810 JUMP JUMPDEST SWAP4 MULMOD ISZERO ISZERO AND ADD SWAP1 JUMP JUMPDEST PUSH16 0xFFFFFFFFFFFFFFFFFFFFFFFFFFFFFFFF SWAP1 PUSH20 0xFFFFFFFFFFFFFFFFFFFFFFFFFFFFFFFFFFFFFFFF DUP1 PUSH2 0x364F SWAP6 SWAP5 AND SWAP2 AND SUB DUP1 PUSH1 0xFF SAR SWAP1 DUP2 ADD XOR SWAP2 AND PUSH2 0x5810 JUMP JUMPDEST SWAP1 PUSH20 0xFFFFFFFFFFFFFFFFFFFFFFFFFFFFFFFFFFFFFFFF DUP2 AND PUSH20 0xFFFFFFFFFFFFFFFFFFFFFFFFFFFFFFFFFFFFFFFF DUP4 AND GT PUSH2 0x5B2E JUMPI JUMPDEST PUSH20 0xFFFFFFFFFFFFFFFFFFFFFFFFFFFFFFFFFFFFFFFF DUP3 AND SWAP3 DUP4 ISZERO PUSH2 0x5B22 JUMPI PUSH28 0xFFFFFFFFFFFFFFFFFFFFFFFFFFFFFFFF000000000000000000000000 PUSH20 0xFFFFFFFFFFFFFFFFFFFFFFFFFFFFFFFFFFFFFFFF PUSH2 0x5B16 SWAP5 DUP2 DUP6 AND SWAP5 SUB AND SWAP2 PUSH1 0x60 SHL AND PUSH2 0x5C68 JUMP JUMPDEST SWAP1 DUP1 DUP3 MOD ISZERO ISZERO SWAP2 DIV ADD SWAP1 JUMP JUMPDEST PUSH3 0xBFC921 PUSH0 MSTORE PUSH1 0x4 PUSH1 0x1C REVERT JUMPDEST SWAP1 PUSH2 0x5AB2 JUMP JUMPDEST PUSH20 0xFFFFFFFFFFFFFFFFFFFFFFFFFFFFFFFFFFFFFFFF DUP3 AND PUSH20 0xFFFFFFFFFFFFFFFFFFFFFFFFFFFFFFFFFFFFFFFF DUP3 AND GT PUSH2 0x5BD5 JUMPI JUMPDEST PUSH20 0xFFFFFFFFFFFFFFFFFFFFFFFFFFFFFFFFFFFFFFFF DUP2 AND SWAP2 DUP3 ISZERO PUSH2 0x5B22 JUMPI PUSH2 0x364F SWAP4 PUSH28 0xFFFFFFFFFFFFFFFFFFFFFFFFFFFFFFFF000000000000000000000000 PUSH20 0xFFFFFFFFFFFFFFFFFFFFFFFFFFFFFFFFFFFFFFFF PUSH2 0x5BD0 SWAP5 DUP2 DUP6 AND SWAP5 SUB AND SWAP2 PUSH1 0x60 SHL AND PUSH2 0x5943 JUMP JUMPDEST PUSH2 0x4922 JUMP JUMPDEST SWAP1 PUSH2 0x5B68 JUMP JUMPDEST DUP1 ISZERO PUSH2 0x330 JUMPI PUSH32 0x706060506020500060203020504000106050205030304010505030400000000 PUSH16 0x8421084210842108CC6318C6DB6D54BE DUP3 PUSH16 0xFFFFFFFFFFFFFFFFFFFFFFFFFFFFFFFF LT PUSH1 0x7 SHL DUP4 DUP2 SHR PUSH8 0xFFFFFFFFFFFFFFFF LT PUSH1 0x6 SHL OR DUP4 DUP2 SHR PUSH4 0xFFFFFFFF LT PUSH1 0x5 SHL OR DUP4 DUP2 SHR PUSH2 0xFFFF LT PUSH1 0x4 SHL OR DUP4 DUP2 SHR PUSH1 0xFF LT PUSH1 0x3 SHL OR SWAP3 DUP4 SHR SHR PUSH1 0x1F AND BYTE OR SWAP1 JUMP JUMPDEST SWAP3 SWAP2 SWAP1 PUSH2 0x5C76 DUP3 DUP3 DUP7 PUSH2 0x5943 JUMP JUMPDEST SWAP4 DUP3 ISZERO PUSH2 0x492C JUMPI MULMOD PUSH2 0x5C84 JUMPI JUMP JUMPDEST SWAP1 PUSH1 0x1 ADD SWAP1 DUP2 ISZERO PUSH2 0x330 JUMPI JUMP JUMPDEST SWAP2 SWAP1 DUP2 ISZERO PUSH2 0x5D02 JUMPI PUSH28 0xFFFFFFFFFFFFFFFFFFFFFFFFFFFFFFFF000000000000000000000000 PUSH20 0xFFFFFFFFFFFFFFFFFFFFFFFFFFFFFFFFFFFFFFFF SWAP2 PUSH1 0x60 SHL AND SWAP3 AND SWAP2 DUP3 DUP3 MUL SWAP2 DUP4 DUP4 DUP4 GT SWAP2 DUP5 DIV EQ AND ISZERO PUSH2 0x5CF5 JUMPI PUSH2 0x364F SWAP3 PUSH2 0x5030 SWAP3 DUP3 SUB SWAP2 PUSH2 0x5C68 JUMP JUMPDEST PUSH4 0xF5C787F1 PUSH0 MSTORE PUSH1 0x4 PUSH1 0x1C REVERT JUMPDEST POP POP SWAP1 JUMP JUMPDEST SWAP1 SWAP2 DUP1 ISZERO PUSH2 0x5D95 JUMPI PUSH20 0xFFFFFFFFFFFFFFFFFFFFFFFFFFFFFFFFFFFFFFFF PUSH28 0xFFFFFFFFFFFFFFFFFFFFFFFFFFFFFFFF000000000000000000000000 DUP2 SWAP5 PUSH1 0x60 SHL AND SWAP3 AND DUP1 DUP3 MUL DUP2 PUSH2 0x5D57 DUP5 DUP4 PUSH2 0x4922 JUMP JUMPDEST EQ PUSH2 0x5D7D JUMPI JUMPDEST POP SWAP1 PUSH2 0x5D6C PUSH2 0x5D71 SWAP3 DUP5 PUSH2 0x4922 JUMP JUMPDEST PUSH2 0x2FFA JUMP JUMPDEST DUP1 DUP3 MOD ISZERO ISZERO SWAP2 DIV ADD AND SWAP1 JUMP JUMPDEST DUP4 ADD DUP4 DUP2 LT PUSH2 0x5D5D JUMPI SWAP2 POP PUSH2 0x5D91 SWAP3 PUSH2 0x5C68 JUMP JUMPDEST AND SWAP1 JUMP JUMPDEST POP SWAP1 POP SWAP1 JUMP JUMPDEST SWAP1 PUSH20 0xFFFFFFFFFFFFFFFFFFFFFFFFFFFFFFFFFFFFFFFF DUP3 AND SWAP2 DUP3 SUB PUSH2 0x30C8 JUMPI JUMP INVALID LOG2 PUSH5 0x6970667358 0x22 SLT KECCAK256 0xE6 CHAINID SWAP11 SWAP9 0xE5 SWAP14 0xC2 LOG3 0x2A 0xBA 0xB0 0x2C TSTORE SWAP16 MSTORE8 DELEGATECALL TSTORE CREATE2 0xB4 0xD9 SWAP12 0xAC SUB 0xEA PUSH19 0x7F043D7A2445CA64736F6C634300081A003300 "},"methodIdentifiers":{"allowance(address,address,uint256)":"598af9e7","approve(address,uint256,uint256)":"426a8493","balanceOf(address,uint256)":"00fdd58e","burn(address,uint256,uint256)":"f5298aca","clear(address,uint256)":"80f0b44c","collectProtocolFees(address,address,uint256)":"8161b874","donate((address,address,uint24,int24,address),uint256,uint256,bytes)":"234266d7","extsload(bytes32)":"1e2eaeaf","extsload(bytes32,uint256)":"35fd631a","extsload(bytes32[])":"dbd035ff","exttload(bytes32)":"f135baaa","exttload(bytes32[])":"9bf6645f","initialize((address,address,uint24,int24,address),uint160)":"6276cbbe","isOperator(address,address)":"b6363cf2","mint(address,uint256,uint256)":"156e29f6","modifyLiquidity((address,address,uint24,int24,address),(int24,int24,int256,bytes32),bytes)":"5a6bcfda","owner()":"8da5cb5b","protocolFeeController()":"f02de3b2","protocolFeesAccrued(address)":"97e8cd4e","setOperator(address,bool)":"558a7297","setProtocolFee((address,address,uint24,int24,address),uint24)":"7e87ce7d","setProtocolFeeController(address)":"2d771389","settle()":"11da60b4","settleFor(address)":"3dd45adb","supportsInterface(bytes4)":"01ffc9a7","swap((address,address,uint24,int24,address),(bool,int256,uint160),bytes)":"f3cd914c","sync(address)":"a5841194","take(address,address,uint256)":"0b0d9c09","transfer(address,uint256,uint256)":"095bcdb6","transferFrom(address,address,uint256,uint256)":"fe99049a","transferOwnership(address)":"f2fde38b","unlock(bytes)":"48c89491","updateDynamicLPFee((address,address,uint24,int24,address),uint24)":"52759651"}}}}}