{"src/deploy/libraries/LPFeeLibrary.sol":{"LPFeeLibrary":{"abi":[{"inputs":[{"internalType":"uint24","name":"fee","type":"uint24"}],"name":"LPFeeTooLarge","type":"error"},{"inputs":[],"name":"DYNAMIC_FEE_FLAG","outputs":[{"internalType":"uint24","name":"","type":"uint24"}],"stateMutability":"view","type":"function"},{"inputs":[],"name":"MAX_LP_FEE","outputs":[{"internalType":"uint24","name":"","type":"uint24"}],"stateMutability":"view","type":"function"},{"inputs":[],"name":"OVERRIDE_FEE_FLAG","outputs":[{"internalType":"uint24","name":"","type":"uint24"}],"stateMutability":"view","type":"function"},{"inputs":[],"name":"REMOVE_OVERRIDE_MASK","outputs":[{"internalType":"uint24","name":"","type":"uint24"}],"stateMutability":"view","type":"function"}],"evm":{"bytecode":{"linkReferences":{},"object":"60808060405234601957610158908161001e823930815050f35b5f80fdfe6080806040526004361015610012575f80fd5b5f3560e01c9081633b01d64d146100ee575080633fc48eba146100b85780636f95ebcf146100825763f26ef49d14610048575f80fd5b5f7ffffffffffffffffffffffffffffffffffffffffffffffffffffffffffffffffc36011261007e576020604051628000008152f35b5f80fd5b5f7ffffffffffffffffffffffffffffffffffffffffffffffffffffffffffffffffc36011261007e57602060405162bfffff8152f35b5f7ffffffffffffffffffffffffffffffffffffffffffffffffffffffffffffffffc36011261007e576020604051620f42408152f35b5f7ffffffffffffffffffffffffffffffffffffffffffffffffffffffffffffffffc36011261007e57806240000060209252f3fea26469706673582212200344b7029b4ff9e496ed334fa14d0a1b436ef2556745ccdfd90035b89bea699b64736f6c634300081a0033","opcodes":"PUSH1 0x80 DUP1 PUSH1 0x40 MSTORE CALLVALUE PUSH1 0x19 JUMPI PUSH2 0x158 SWAP1 DUP2 PUSH2 0x1E DUP3 CODECOPY ADDRESS DUP2 POP POP RETURN JUMPDEST PUSH0 DUP1 REVERT INVALID PUSH1 0x80 DUP1 PUSH1 0x40 MSTORE PUSH1 0x4 CALLDATASIZE LT ISZERO PUSH2 0x12 JUMPI PUSH0 DUP1 REVERT JUMPDEST PUSH0 CALLDATALOAD PUSH1 0xE0 SHR SWAP1 DUP2 PUSH4 0x3B01D64D EQ PUSH2 0xEE JUMPI POP DUP1 PUSH4 0x3FC48EBA EQ PUSH2 0xB8 JUMPI DUP1 PUSH4 0x6F95EBCF EQ PUSH2 0x82 JUMPI PUSH4 0xF26EF49D EQ PUSH2 0x48 JUMPI PUSH0 DUP1 REVERT JUMPDEST PUSH0 PUSH32 0xFFFFFFFFFFFFFFFFFFFFFFFFFFFFFFFFFFFFFFFFFFFFFFFFFFFFFFFFFFFFFFFC CALLDATASIZE ADD SLT PUSH2 0x7E JUMPI PUSH1 0x20 PUSH1 0x40 MLOAD PUSH3 0x800000 DUP2 MSTORE RETURN JUMPDEST PUSH0 DUP1 REVERT JUMPDEST PUSH0 PUSH32 0xFFFFFFFFFFFFFFFFFFFFFFFFFFFFFFFFFFFFFFFFFFFFFFFFFFFFFFFFFFFFFFFC CALLDATASIZE ADD SLT PUSH2 0x7E JUMPI PUSH1 0x20 PUSH1 0x40 MLOAD PUSH3 0xBFFFFF DUP2 MSTORE RETURN JUMPDEST PUSH0 PUSH32 0xFFFFFFFFFFFFFFFFFFFFFFFFFFFFFFFFFFFFFFFFFFFFFFFFFFFFFFFFFFFFFFFC CALLDATASIZE ADD SLT PUSH2 0x7E JUMPI PUSH1 0x20 PUSH1 0x40 MLOAD PUSH3 0xF4240 DUP2 MSTORE RETURN JUMPDEST PUSH0 PUSH32 0xFFFFFFFFFFFFFFFFFFFFFFFFFFFFFFFFFFFFFFFFFFFFFFFFFFFFFFFFFFFFFFFC CALLDATASIZE ADD SLT PUSH2 0x7E JUMPI DUP1 PUSH3 0x400000 PUSH1 0x20 SWAP3 MSTORE RETURN INVALID LOG2 PUSH5 0x6970667358 0x22 SLT KECCAK256 SUB PREVRANDAO 0xB7 MUL SWAP12 0x4F 0xF9 0xE4 SWAP7 0xED CALLER 0x4F LOG1 0x4D EXP SHL NUMBER PUSH15 0xF2556745CCDFD90035B89BEA699B64 PUSH20 0x6F6C634300081A00330000000000000000000000 "},"methodIdentifiers":{"DYNAMIC_FEE_FLAG()":"f26ef49d","MAX_LP_FEE()":"3fc48eba","OVERRIDE_FEE_FLAG()":"3b01d64d","REMOVE_OVERRIDE_MASK()":"6f95ebcf"}}}}}